{
	"contracts/Persons.sol": {
		"Persons": {
			"abi": [
				{
					"inputs": [
						{
							"components": [
								{
									"internalType": "string",
									"name": "firstName",
									"type": "string"
								},
								{
									"internalType": "string",
									"name": "lastName",
									"type": "string"
								},
								{
									"internalType": "uint256",
									"name": "age",
									"type": "uint256"
								}
							],
							"internalType": "struct Persons.Persons",
							"name": "_person",
							"type": "tuple"
						}
					],
					"name": "addPerson",
					"outputs": [],
					"stateMutability": "nonpayable",
					"type": "function"
				},
				{
					"inputs": [
						{
							"internalType": "uint256",
							"name": "_indice",
							"type": "uint256"
						},
						{
							"internalType": "uint256",
							"name": "_newAge",
							"type": "uint256"
						}
					],
					"name": "modAge",
					"outputs": [],
					"stateMutability": "nonpayable",
					"type": "function"
				},
				{
					"inputs": [
						{
							"internalType": "uint256",
							"name": "",
							"type": "uint256"
						}
					],
					"name": "person",
					"outputs": [
						{
							"internalType": "string",
							"name": "firstName",
							"type": "string"
						},
						{
							"internalType": "string",
							"name": "lastName",
							"type": "string"
						},
						{
							"internalType": "uint256",
							"name": "age",
							"type": "uint256"
						}
					],
					"stateMutability": "view",
					"type": "function"
				}
			],
			"devdoc": {
				"kind": "dev",
				"methods": {},
				"version": 1
			},
			"evm": {
				"assembly": "    /* \"contracts/Persons.sol\":57:450  contract Persons {... */\n  mstore(0x40, 0x80)\n  callvalue\n  dup1\n  iszero\n  tag_1\n  jumpi\n  0x00\n  dup1\n  revert\ntag_1:\n  pop\n  dataSize(sub_0)\n  dup1\n  dataOffset(sub_0)\n  0x00\n  codecopy\n  0x00\n  return\nstop\n\nsub_0: assembly {\n        /* \"contracts/Persons.sol\":57:450  contract Persons {... */\n      mstore(0x40, 0x80)\n      callvalue\n      dup1\n      iszero\n      tag_1\n      jumpi\n      0x00\n      dup1\n      revert\n    tag_1:\n      pop\n      jumpi(tag_2, lt(calldatasize, 0x04))\n      shr(0xe0, calldataload(0x00))\n      dup1\n      0x092a1820\n      eq\n      tag_3\n      jumpi\n      dup1\n      0xd55ce7b0\n      eq\n      tag_4\n      jumpi\n      dup1\n      0xdcea595a\n      eq\n      tag_5\n      jumpi\n    tag_2:\n      0x00\n      dup1\n      revert\n        /* \"contracts/Persons.sol\":184:207  Persons[] public person */\n    tag_3:\n      tag_6\n      0x04\n      dup1\n      calldatasize\n      sub\n      dup2\n      add\n      swap1\n      tag_7\n      swap2\n      swap1\n      tag_8\n      jump\t// in\n    tag_7:\n      tag_9\n      jump\t// in\n    tag_6:\n      mload(0x40)\n      tag_10\n      swap4\n      swap3\n      swap2\n      swap1\n      tag_11\n      jump\t// in\n    tag_10:\n      mload(0x40)\n      dup1\n      swap2\n      sub\n      swap1\n      return\n        /* \"contracts/Persons.sol\":311:448  function modAge(uint _indice,uint _newAge) public {... */\n    tag_4:\n      tag_12\n      0x04\n      dup1\n      calldatasize\n      sub\n      dup2\n      add\n      swap1\n      tag_13\n      swap2\n      swap1\n      tag_14\n      jump\t// in\n    tag_13:\n      tag_15\n      jump\t// in\n    tag_12:\n      stop\n        /* \"contracts/Persons.sol\":214:301  function addPerson(Persons memory _person) public {... */\n    tag_5:\n      tag_16\n      0x04\n      dup1\n      calldatasize\n      sub\n      dup2\n      add\n      swap1\n      tag_17\n      swap2\n      swap1\n      tag_18\n      jump\t// in\n    tag_17:\n      tag_19\n      jump\t// in\n    tag_16:\n      stop\n        /* \"contracts/Persons.sol\":184:207  Persons[] public person */\n    tag_9:\n      0x00\n      dup2\n      dup2\n      sload\n      dup2\n      lt\n      tag_20\n      jumpi\n      0x00\n      dup1\n      revert\n    tag_20:\n      swap1\n      0x00\n      mstore\n      keccak256(0x00, 0x20)\n      swap1\n      0x03\n      mul\n      add\n      0x00\n      swap2\n      pop\n      swap1\n      pop\n      dup1\n      0x00\n      add\n      dup1\n      sload\n      tag_22\n      swap1\n      tag_23\n      jump\t// in\n    tag_22:\n      dup1\n      0x1f\n      add\n      0x20\n      dup1\n      swap2\n      div\n      mul\n      0x20\n      add\n      mload(0x40)\n      swap1\n      dup2\n      add\n      0x40\n      mstore\n      dup1\n      swap3\n      swap2\n      swap1\n      dup2\n      dup2\n      mstore\n      0x20\n      add\n      dup3\n      dup1\n      sload\n      tag_24\n      swap1\n      tag_23\n      jump\t// in\n    tag_24:\n      dup1\n      iszero\n      tag_25\n      jumpi\n      dup1\n      0x1f\n      lt\n      tag_26\n      jumpi\n      0x0100\n      dup1\n      dup4\n      sload\n      div\n      mul\n      dup4\n      mstore\n      swap2\n      0x20\n      add\n      swap2\n      jump(tag_25)\n    tag_26:\n      dup3\n      add\n      swap2\n      swap1\n      0x00\n      mstore\n      keccak256(0x00, 0x20)\n      swap1\n    tag_27:\n      dup2\n      sload\n      dup2\n      mstore\n      swap1\n      0x01\n      add\n      swap1\n      0x20\n      add\n      dup1\n      dup4\n      gt\n      tag_27\n      jumpi\n      dup3\n      swap1\n      sub\n      0x1f\n      and\n      dup3\n      add\n      swap2\n    tag_25:\n      pop\n      pop\n      pop\n      pop\n      pop\n      swap1\n      dup1\n      0x01\n      add\n      dup1\n      sload\n      tag_28\n      swap1\n      tag_23\n      jump\t// in\n    tag_28:\n      dup1\n      0x1f\n      add\n      0x20\n      dup1\n      swap2\n      div\n      mul\n      0x20\n      add\n      mload(0x40)\n      swap1\n      dup2\n      add\n      0x40\n      mstore\n      dup1\n      swap3\n      swap2\n      swap1\n      dup2\n      dup2\n      mstore\n      0x20\n      add\n      dup3\n      dup1\n      sload\n      tag_29\n      swap1\n      tag_23\n      jump\t// in\n    tag_29:\n      dup1\n      iszero\n      tag_30\n      jumpi\n      dup1\n      0x1f\n      lt\n      tag_31\n      jumpi\n      0x0100\n      dup1\n      dup4\n      sload\n      div\n      mul\n      dup4\n      mstore\n      swap2\n      0x20\n      add\n      swap2\n      jump(tag_30)\n    tag_31:\n      dup3\n      add\n      swap2\n      swap1\n      0x00\n      mstore\n      keccak256(0x00, 0x20)\n      swap1\n    tag_32:\n      dup2\n      sload\n      dup2\n      mstore\n      swap1\n      0x01\n      add\n      swap1\n      0x20\n      add\n      dup1\n      dup4\n      gt\n      tag_32\n      jumpi\n      dup3\n      swap1\n      sub\n      0x1f\n      and\n      dup3\n      add\n      swap2\n    tag_30:\n      pop\n      pop\n      pop\n      pop\n      pop\n      swap1\n      dup1\n      0x02\n      add\n      sload\n      swap1\n      pop\n      dup4\n      jump\t// out\n        /* \"contracts/Persons.sol\":311:448  function modAge(uint _indice,uint _newAge) public {... */\n    tag_15:\n        /* \"contracts/Persons.sol\":371:393  Persons storage person */\n      0x00\n        /* \"contracts/Persons.sol\":396:402  person */\n      dup1\n        /* \"contracts/Persons.sol\":403:410  _indice */\n      dup4\n        /* \"contracts/Persons.sol\":396:411  person[_indice] */\n      dup2\n      sload\n      dup2\n      lt\n      tag_34\n      jumpi\n      tag_35\n      tag_36\n      jump\t// in\n    tag_35:\n    tag_34:\n      swap1\n      0x00\n      mstore\n      keccak256(0x00, 0x20)\n      swap1\n      0x03\n      mul\n      add\n        /* \"contracts/Persons.sol\":371:411  Persons storage person = person[_indice] */\n      swap1\n      pop\n        /* \"contracts/Persons.sol\":434:441  _newAge */\n      dup2\n        /* \"contracts/Persons.sol\":421:427  person */\n      dup2\n        /* \"contracts/Persons.sol\":421:431  person.age */\n      0x02\n      add\n        /* \"contracts/Persons.sol\":421:441  person.age = _newAge */\n      dup2\n      swap1\n      sstore\n      pop\n        /* \"contracts/Persons.sol\":361:448  {... */\n      pop\n        /* \"contracts/Persons.sol\":311:448  function modAge(uint _indice,uint _newAge) public {... */\n      pop\n      pop\n      jump\t// out\n        /* \"contracts/Persons.sol\":214:301  function addPerson(Persons memory _person) public {... */\n    tag_19:\n        /* \"contracts/Persons.sol\":274:280  person */\n      0x00\n        /* \"contracts/Persons.sol\":286:293  _person */\n      dup2\n        /* \"contracts/Persons.sol\":274:294  person.push(_person) */\n      swap1\n      dup1\n      0x01\n      dup2\n      sload\n      add\n      dup1\n      dup3\n      sstore\n      dup1\n      swap2\n      pop\n      pop\n      0x01\n      swap1\n      sub\n      swap1\n      0x00\n      mstore\n      keccak256(0x00, 0x20)\n      swap1\n      0x03\n      mul\n      add\n      0x00\n      swap1\n      swap2\n      swap1\n      swap2\n      swap1\n      swap2\n      pop\n      0x00\n      dup3\n      add\n      mload\n      dup2\n      0x00\n      add\n      swap1\n      dup2\n      tag_40\n      swap2\n      swap1\n      tag_41\n      jump\t// in\n    tag_40:\n      pop\n      0x20\n      dup3\n      add\n      mload\n      dup2\n      0x01\n      add\n      swap1\n      dup2\n      tag_42\n      swap2\n      swap1\n      tag_41\n      jump\t// in\n    tag_42:\n      pop\n      0x40\n      dup3\n      add\n      mload\n      dup2\n      0x02\n      add\n      sstore\n      pop\n      pop\n        /* \"contracts/Persons.sol\":214:301  function addPerson(Persons memory _person) public {... */\n      pop\n      jump\t// out\n        /* \"#utility.yul\":7:82   */\n    tag_43:\n        /* \"#utility.yul\":40:46   */\n      0x00\n        /* \"#utility.yul\":73:75   */\n      0x40\n        /* \"#utility.yul\":67:76   */\n      mload\n        /* \"#utility.yul\":57:76   */\n      swap1\n      pop\n        /* \"#utility.yul\":7:82   */\n      swap1\n      jump\t// out\n        /* \"#utility.yul\":88:205   */\n    tag_44:\n        /* \"#utility.yul\":197:198   */\n      0x00\n        /* \"#utility.yul\":194:195   */\n      dup1\n        /* \"#utility.yul\":187:199   */\n      revert\n        /* \"#utility.yul\":211:328   */\n    tag_45:\n        /* \"#utility.yul\":320:321   */\n      0x00\n        /* \"#utility.yul\":317:318   */\n      dup1\n        /* \"#utility.yul\":310:322   */\n      revert\n        /* \"#utility.yul\":334:411   */\n    tag_46:\n        /* \"#utility.yul\":371:378   */\n      0x00\n        /* \"#utility.yul\":400:405   */\n      dup2\n        /* \"#utility.yul\":389:405   */\n      swap1\n      pop\n        /* \"#utility.yul\":334:411   */\n      swap2\n      swap1\n      pop\n      jump\t// out\n        /* \"#utility.yul\":417:539   */\n    tag_47:\n        /* \"#utility.yul\":490:514   */\n      tag_89\n        /* \"#utility.yul\":508:513   */\n      dup2\n        /* \"#utility.yul\":490:514   */\n      tag_46\n      jump\t// in\n    tag_89:\n        /* \"#utility.yul\":483:488   */\n      dup2\n        /* \"#utility.yul\":480:515   */\n      eq\n        /* \"#utility.yul\":470:533   */\n      tag_90\n      jumpi\n        /* \"#utility.yul\":529:530   */\n      0x00\n        /* \"#utility.yul\":526:527   */\n      dup1\n        /* \"#utility.yul\":519:531   */\n      revert\n        /* \"#utility.yul\":470:533   */\n    tag_90:\n        /* \"#utility.yul\":417:539   */\n      pop\n      jump\t// out\n        /* \"#utility.yul\":545:684   */\n    tag_48:\n        /* \"#utility.yul\":591:596   */\n      0x00\n        /* \"#utility.yul\":629:635   */\n      dup2\n        /* \"#utility.yul\":616:636   */\n      calldataload\n        /* \"#utility.yul\":607:636   */\n      swap1\n      pop\n        /* \"#utility.yul\":645:678   */\n      tag_92\n        /* \"#utility.yul\":672:677   */\n      dup2\n        /* \"#utility.yul\":645:678   */\n      tag_47\n      jump\t// in\n    tag_92:\n        /* \"#utility.yul\":545:684   */\n      swap3\n      swap2\n      pop\n      pop\n      jump\t// out\n        /* \"#utility.yul\":690:1019   */\n    tag_8:\n        /* \"#utility.yul\":749:755   */\n      0x00\n        /* \"#utility.yul\":798:800   */\n      0x20\n        /* \"#utility.yul\":786:795   */\n      dup3\n        /* \"#utility.yul\":777:784   */\n      dup5\n        /* \"#utility.yul\":773:796   */\n      sub\n        /* \"#utility.yul\":769:801   */\n      slt\n        /* \"#utility.yul\":766:885   */\n      iszero\n      tag_94\n      jumpi\n        /* \"#utility.yul\":804:883   */\n      tag_95\n      tag_44\n      jump\t// in\n    tag_95:\n        /* \"#utility.yul\":766:885   */\n    tag_94:\n        /* \"#utility.yul\":924:925   */\n      0x00\n        /* \"#utility.yul\":949:1002   */\n      tag_96\n        /* \"#utility.yul\":994:1001   */\n      dup5\n        /* \"#utility.yul\":985:991   */\n      dup3\n        /* \"#utility.yul\":974:983   */\n      dup6\n        /* \"#utility.yul\":970:992   */\n      add\n        /* \"#utility.yul\":949:1002   */\n      tag_48\n      jump\t// in\n    tag_96:\n        /* \"#utility.yul\":939:1002   */\n      swap2\n      pop\n        /* \"#utility.yul\":895:1012   */\n      pop\n        /* \"#utility.yul\":690:1019   */\n      swap3\n      swap2\n      pop\n      pop\n      jump\t// out\n        /* \"#utility.yul\":1025:1124   */\n    tag_49:\n        /* \"#utility.yul\":1077:1083   */\n      0x00\n        /* \"#utility.yul\":1111:1116   */\n      dup2\n        /* \"#utility.yul\":1105:1117   */\n      mload\n        /* \"#utility.yul\":1095:1117   */\n      swap1\n      pop\n        /* \"#utility.yul\":1025:1124   */\n      swap2\n      swap1\n      pop\n      jump\t// out\n        /* \"#utility.yul\":1130:1299   */\n    tag_50:\n        /* \"#utility.yul\":1214:1225   */\n      0x00\n        /* \"#utility.yul\":1248:1254   */\n      dup3\n        /* \"#utility.yul\":1243:1246   */\n      dup3\n        /* \"#utility.yul\":1236:1255   */\n      mstore\n        /* \"#utility.yul\":1288:1292   */\n      0x20\n        /* \"#utility.yul\":1283:1286   */\n      dup3\n        /* \"#utility.yul\":1279:1293   */\n      add\n        /* \"#utility.yul\":1264:1293   */\n      swap1\n      pop\n        /* \"#utility.yul\":1130:1299   */\n      swap3\n      swap2\n      pop\n      pop\n      jump\t// out\n        /* \"#utility.yul\":1305:1444   */\n    tag_51:\n        /* \"#utility.yul\":1394:1400   */\n      dup3\n        /* \"#utility.yul\":1389:1392   */\n      dup2\n        /* \"#utility.yul\":1384:1387   */\n      dup4\n        /* \"#utility.yul\":1378:1401   */\n      mcopy\n        /* \"#utility.yul\":1435:1436   */\n      0x00\n        /* \"#utility.yul\":1426:1432   */\n      dup4\n        /* \"#utility.yul\":1421:1424   */\n      dup4\n        /* \"#utility.yul\":1417:1433   */\n      add\n        /* \"#utility.yul\":1410:1437   */\n      mstore\n        /* \"#utility.yul\":1305:1444   */\n      pop\n      pop\n      pop\n      jump\t// out\n        /* \"#utility.yul\":1450:1552   */\n    tag_52:\n        /* \"#utility.yul\":1491:1497   */\n      0x00\n        /* \"#utility.yul\":1542:1544   */\n      0x1f\n        /* \"#utility.yul\":1538:1545   */\n      not\n        /* \"#utility.yul\":1533:1535   */\n      0x1f\n        /* \"#utility.yul\":1526:1531   */\n      dup4\n        /* \"#utility.yul\":1522:1536   */\n      add\n        /* \"#utility.yul\":1518:1546   */\n      and\n        /* \"#utility.yul\":1508:1546   */\n      swap1\n      pop\n        /* \"#utility.yul\":1450:1552   */\n      swap2\n      swap1\n      pop\n      jump\t// out\n        /* \"#utility.yul\":1558:1935   */\n    tag_53:\n        /* \"#utility.yul\":1646:1649   */\n      0x00\n        /* \"#utility.yul\":1674:1713   */\n      tag_102\n        /* \"#utility.yul\":1707:1712   */\n      dup3\n        /* \"#utility.yul\":1674:1713   */\n      tag_49\n      jump\t// in\n    tag_102:\n        /* \"#utility.yul\":1729:1800   */\n      tag_103\n        /* \"#utility.yul\":1793:1799   */\n      dup2\n        /* \"#utility.yul\":1788:1791   */\n      dup6\n        /* \"#utility.yul\":1729:1800   */\n      tag_50\n      jump\t// in\n    tag_103:\n        /* \"#utility.yul\":1722:1800   */\n      swap4\n      pop\n        /* \"#utility.yul\":1809:1874   */\n      tag_104\n        /* \"#utility.yul\":1867:1873   */\n      dup2\n        /* \"#utility.yul\":1862:1865   */\n      dup6\n        /* \"#utility.yul\":1855:1859   */\n      0x20\n        /* \"#utility.yul\":1848:1853   */\n      dup7\n        /* \"#utility.yul\":1844:1860   */\n      add\n        /* \"#utility.yul\":1809:1874   */\n      tag_51\n      jump\t// in\n    tag_104:\n        /* \"#utility.yul\":1899:1928   */\n      tag_105\n        /* \"#utility.yul\":1921:1927   */\n      dup2\n        /* \"#utility.yul\":1899:1928   */\n      tag_52\n      jump\t// in\n    tag_105:\n        /* \"#utility.yul\":1894:1897   */\n      dup5\n        /* \"#utility.yul\":1890:1929   */\n      add\n        /* \"#utility.yul\":1883:1929   */\n      swap2\n      pop\n        /* \"#utility.yul\":1650:1935   */\n      pop\n        /* \"#utility.yul\":1558:1935   */\n      swap3\n      swap2\n      pop\n      pop\n      jump\t// out\n        /* \"#utility.yul\":1941:2059   */\n    tag_54:\n        /* \"#utility.yul\":2028:2052   */\n      tag_107\n        /* \"#utility.yul\":2046:2051   */\n      dup2\n        /* \"#utility.yul\":2028:2052   */\n      tag_46\n      jump\t// in\n    tag_107:\n        /* \"#utility.yul\":2023:2026   */\n      dup3\n        /* \"#utility.yul\":2016:2053   */\n      mstore\n        /* \"#utility.yul\":1941:2059   */\n      pop\n      pop\n      jump\t// out\n        /* \"#utility.yul\":2065:2689   */\n    tag_11:\n        /* \"#utility.yul\":2254:2258   */\n      0x00\n        /* \"#utility.yul\":2292:2294   */\n      0x60\n        /* \"#utility.yul\":2281:2290   */\n      dup3\n        /* \"#utility.yul\":2277:2295   */\n      add\n        /* \"#utility.yul\":2269:2295   */\n      swap1\n      pop\n        /* \"#utility.yul\":2341:2350   */\n      dup2\n        /* \"#utility.yul\":2335:2339   */\n      dup2\n        /* \"#utility.yul\":2331:2351   */\n      sub\n        /* \"#utility.yul\":2327:2328   */\n      0x00\n        /* \"#utility.yul\":2316:2325   */\n      dup4\n        /* \"#utility.yul\":2312:2329   */\n      add\n        /* \"#utility.yul\":2305:2352   */\n      mstore\n        /* \"#utility.yul\":2369:2447   */\n      tag_109\n        /* \"#utility.yul\":2442:2446   */\n      dup2\n        /* \"#utility.yul\":2433:2439   */\n      dup7\n        /* \"#utility.yul\":2369:2447   */\n      tag_53\n      jump\t// in\n    tag_109:\n        /* \"#utility.yul\":2361:2447   */\n      swap1\n      pop\n        /* \"#utility.yul\":2494:2503   */\n      dup2\n        /* \"#utility.yul\":2488:2492   */\n      dup2\n        /* \"#utility.yul\":2484:2504   */\n      sub\n        /* \"#utility.yul\":2479:2481   */\n      0x20\n        /* \"#utility.yul\":2468:2477   */\n      dup4\n        /* \"#utility.yul\":2464:2482   */\n      add\n        /* \"#utility.yul\":2457:2505   */\n      mstore\n        /* \"#utility.yul\":2522:2600   */\n      tag_110\n        /* \"#utility.yul\":2595:2599   */\n      dup2\n        /* \"#utility.yul\":2586:2592   */\n      dup6\n        /* \"#utility.yul\":2522:2600   */\n      tag_53\n      jump\t// in\n    tag_110:\n        /* \"#utility.yul\":2514:2600   */\n      swap1\n      pop\n        /* \"#utility.yul\":2610:2682   */\n      tag_111\n        /* \"#utility.yul\":2678:2680   */\n      0x40\n        /* \"#utility.yul\":2667:2676   */\n      dup4\n        /* \"#utility.yul\":2663:2681   */\n      add\n        /* \"#utility.yul\":2654:2660   */\n      dup5\n        /* \"#utility.yul\":2610:2682   */\n      tag_54\n      jump\t// in\n    tag_111:\n        /* \"#utility.yul\":2065:2689   */\n      swap5\n      swap4\n      pop\n      pop\n      pop\n      pop\n      jump\t// out\n        /* \"#utility.yul\":2695:3169   */\n    tag_14:\n        /* \"#utility.yul\":2763:2769   */\n      0x00\n        /* \"#utility.yul\":2771:2777   */\n      dup1\n        /* \"#utility.yul\":2820:2822   */\n      0x40\n        /* \"#utility.yul\":2808:2817   */\n      dup4\n        /* \"#utility.yul\":2799:2806   */\n      dup6\n        /* \"#utility.yul\":2795:2818   */\n      sub\n        /* \"#utility.yul\":2791:2823   */\n      slt\n        /* \"#utility.yul\":2788:2907   */\n      iszero\n      tag_113\n      jumpi\n        /* \"#utility.yul\":2826:2905   */\n      tag_114\n      tag_44\n      jump\t// in\n    tag_114:\n        /* \"#utility.yul\":2788:2907   */\n    tag_113:\n        /* \"#utility.yul\":2946:2947   */\n      0x00\n        /* \"#utility.yul\":2971:3024   */\n      tag_115\n        /* \"#utility.yul\":3016:3023   */\n      dup6\n        /* \"#utility.yul\":3007:3013   */\n      dup3\n        /* \"#utility.yul\":2996:3005   */\n      dup7\n        /* \"#utility.yul\":2992:3014   */\n      add\n        /* \"#utility.yul\":2971:3024   */\n      tag_48\n      jump\t// in\n    tag_115:\n        /* \"#utility.yul\":2961:3024   */\n      swap3\n      pop\n        /* \"#utility.yul\":2917:3034   */\n      pop\n        /* \"#utility.yul\":3073:3075   */\n      0x20\n        /* \"#utility.yul\":3099:3152   */\n      tag_116\n        /* \"#utility.yul\":3144:3151   */\n      dup6\n        /* \"#utility.yul\":3135:3141   */\n      dup3\n        /* \"#utility.yul\":3124:3133   */\n      dup7\n        /* \"#utility.yul\":3120:3142   */\n      add\n        /* \"#utility.yul\":3099:3152   */\n      tag_48\n      jump\t// in\n    tag_116:\n        /* \"#utility.yul\":3089:3152   */\n      swap2\n      pop\n        /* \"#utility.yul\":3044:3162   */\n      pop\n        /* \"#utility.yul\":2695:3169   */\n      swap3\n      pop\n      swap3\n      swap1\n      pop\n      jump\t// out\n        /* \"#utility.yul\":3175:3292   */\n    tag_55:\n        /* \"#utility.yul\":3284:3285   */\n      0x00\n        /* \"#utility.yul\":3281:3282   */\n      dup1\n        /* \"#utility.yul\":3274:3286   */\n      revert\n        /* \"#utility.yul\":3298:3478   */\n    tag_56:\n        /* \"#utility.yul\":3346:3423   */\n      0x4e487b7100000000000000000000000000000000000000000000000000000000\n        /* \"#utility.yul\":3343:3344   */\n      0x00\n        /* \"#utility.yul\":3336:3424   */\n      mstore\n        /* \"#utility.yul\":3443:3447   */\n      0x41\n        /* \"#utility.yul\":3440:3441   */\n      0x04\n        /* \"#utility.yul\":3433:3448   */\n      mstore\n        /* \"#utility.yul\":3467:3471   */\n      0x24\n        /* \"#utility.yul\":3464:3465   */\n      0x00\n        /* \"#utility.yul\":3457:3472   */\n      revert\n        /* \"#utility.yul\":3484:3765   */\n    tag_57:\n        /* \"#utility.yul\":3567:3594   */\n      tag_120\n        /* \"#utility.yul\":3589:3593   */\n      dup3\n        /* \"#utility.yul\":3567:3594   */\n      tag_52\n      jump\t// in\n    tag_120:\n        /* \"#utility.yul\":3559:3565   */\n      dup2\n        /* \"#utility.yul\":3555:3595   */\n      add\n        /* \"#utility.yul\":3697:3703   */\n      dup2\n        /* \"#utility.yul\":3685:3695   */\n      dup2\n        /* \"#utility.yul\":3682:3704   */\n      lt\n        /* \"#utility.yul\":3661:3679   */\n      0xffffffffffffffff\n        /* \"#utility.yul\":3649:3659   */\n      dup3\n        /* \"#utility.yul\":3646:3680   */\n      gt\n        /* \"#utility.yul\":3643:3705   */\n      or\n        /* \"#utility.yul\":3640:3728   */\n      iszero\n      tag_121\n      jumpi\n        /* \"#utility.yul\":3708:3726   */\n      tag_122\n      tag_56\n      jump\t// in\n    tag_122:\n        /* \"#utility.yul\":3640:3728   */\n    tag_121:\n        /* \"#utility.yul\":3748:3758   */\n      dup1\n        /* \"#utility.yul\":3744:3746   */\n      0x40\n        /* \"#utility.yul\":3737:3759   */\n      mstore\n        /* \"#utility.yul\":3527:3765   */\n      pop\n        /* \"#utility.yul\":3484:3765   */\n      pop\n      pop\n      jump\t// out\n        /* \"#utility.yul\":3771:3900   */\n    tag_58:\n        /* \"#utility.yul\":3805:3811   */\n      0x00\n        /* \"#utility.yul\":3832:3852   */\n      tag_124\n      tag_43\n      jump\t// in\n    tag_124:\n        /* \"#utility.yul\":3822:3852   */\n      swap1\n      pop\n        /* \"#utility.yul\":3861:3894   */\n      tag_125\n        /* \"#utility.yul\":3889:3893   */\n      dup3\n        /* \"#utility.yul\":3881:3887   */\n      dup3\n        /* \"#utility.yul\":3861:3894   */\n      tag_57\n      jump\t// in\n    tag_125:\n        /* \"#utility.yul\":3771:3900   */\n      swap2\n      swap1\n      pop\n      jump\t// out\n        /* \"#utility.yul\":3906:4023   */\n    tag_59:\n        /* \"#utility.yul\":4015:4016   */\n      0x00\n        /* \"#utility.yul\":4012:4013   */\n      dup1\n        /* \"#utility.yul\":4005:4017   */\n      revert\n        /* \"#utility.yul\":4029:4146   */\n    tag_60:\n        /* \"#utility.yul\":4138:4139   */\n      0x00\n        /* \"#utility.yul\":4135:4136   */\n      dup1\n        /* \"#utility.yul\":4128:4140   */\n      revert\n        /* \"#utility.yul\":4152:4269   */\n    tag_61:\n        /* \"#utility.yul\":4261:4262   */\n      0x00\n        /* \"#utility.yul\":4258:4259   */\n      dup1\n        /* \"#utility.yul\":4251:4263   */\n      revert\n        /* \"#utility.yul\":4275:4583   */\n    tag_62:\n        /* \"#utility.yul\":4337:4341   */\n      0x00\n        /* \"#utility.yul\":4427:4445   */\n      0xffffffffffffffff\n        /* \"#utility.yul\":4419:4425   */\n      dup3\n        /* \"#utility.yul\":4416:4446   */\n      gt\n        /* \"#utility.yul\":4413:4469   */\n      iszero\n      tag_130\n      jumpi\n        /* \"#utility.yul\":4449:4467   */\n      tag_131\n      tag_56\n      jump\t// in\n    tag_131:\n        /* \"#utility.yul\":4413:4469   */\n    tag_130:\n        /* \"#utility.yul\":4487:4516   */\n      tag_132\n        /* \"#utility.yul\":4509:4515   */\n      dup3\n        /* \"#utility.yul\":4487:4516   */\n      tag_52\n      jump\t// in\n    tag_132:\n        /* \"#utility.yul\":4479:4516   */\n      swap1\n      pop\n        /* \"#utility.yul\":4571:4575   */\n      0x20\n        /* \"#utility.yul\":4565:4569   */\n      dup2\n        /* \"#utility.yul\":4561:4576   */\n      add\n        /* \"#utility.yul\":4553:4576   */\n      swap1\n      pop\n        /* \"#utility.yul\":4275:4583   */\n      swap2\n      swap1\n      pop\n      jump\t// out\n        /* \"#utility.yul\":4589:4737   */\n    tag_63:\n        /* \"#utility.yul\":4687:4693   */\n      dup3\n        /* \"#utility.yul\":4682:4685   */\n      dup2\n        /* \"#utility.yul\":4677:4680   */\n      dup4\n        /* \"#utility.yul\":4664:4694   */\n      calldatacopy\n        /* \"#utility.yul\":4728:4729   */\n      0x00\n        /* \"#utility.yul\":4719:4725   */\n      dup4\n        /* \"#utility.yul\":4714:4717   */\n      dup4\n        /* \"#utility.yul\":4710:4726   */\n      add\n        /* \"#utility.yul\":4703:4730   */\n      mstore\n        /* \"#utility.yul\":4589:4737   */\n      pop\n      pop\n      pop\n      jump\t// out\n        /* \"#utility.yul\":4743:5168   */\n    tag_64:\n        /* \"#utility.yul\":4821:4826   */\n      0x00\n        /* \"#utility.yul\":4846:4912   */\n      tag_135\n        /* \"#utility.yul\":4862:4911   */\n      tag_136\n        /* \"#utility.yul\":4904:4910   */\n      dup5\n        /* \"#utility.yul\":4862:4911   */\n      tag_62\n      jump\t// in\n    tag_136:\n        /* \"#utility.yul\":4846:4912   */\n      tag_58\n      jump\t// in\n    tag_135:\n        /* \"#utility.yul\":4837:4912   */\n      swap1\n      pop\n        /* \"#utility.yul\":4935:4941   */\n      dup3\n        /* \"#utility.yul\":4928:4933   */\n      dup2\n        /* \"#utility.yul\":4921:4942   */\n      mstore\n        /* \"#utility.yul\":4973:4977   */\n      0x20\n        /* \"#utility.yul\":4966:4971   */\n      dup2\n        /* \"#utility.yul\":4962:4978   */\n      add\n        /* \"#utility.yul\":5011:5014   */\n      dup5\n        /* \"#utility.yul\":5002:5008   */\n      dup5\n        /* \"#utility.yul\":4997:5000   */\n      dup5\n        /* \"#utility.yul\":4993:5009   */\n      add\n        /* \"#utility.yul\":4990:5015   */\n      gt\n        /* \"#utility.yul\":4987:5099   */\n      iszero\n      tag_137\n      jumpi\n        /* \"#utility.yul\":5018:5097   */\n      tag_138\n      tag_61\n      jump\t// in\n    tag_138:\n        /* \"#utility.yul\":4987:5099   */\n    tag_137:\n        /* \"#utility.yul\":5108:5162   */\n      tag_139\n        /* \"#utility.yul\":5155:5161   */\n      dup5\n        /* \"#utility.yul\":5150:5153   */\n      dup3\n        /* \"#utility.yul\":5145:5148   */\n      dup6\n        /* \"#utility.yul\":5108:5162   */\n      tag_63\n      jump\t// in\n    tag_139:\n        /* \"#utility.yul\":4827:5168   */\n      pop\n        /* \"#utility.yul\":4743:5168   */\n      swap4\n      swap3\n      pop\n      pop\n      pop\n      jump\t// out\n        /* \"#utility.yul\":5188:5528   */\n    tag_65:\n        /* \"#utility.yul\":5244:5249   */\n      0x00\n        /* \"#utility.yul\":5293:5296   */\n      dup3\n        /* \"#utility.yul\":5286:5290   */\n      0x1f\n        /* \"#utility.yul\":5278:5284   */\n      dup4\n        /* \"#utility.yul\":5274:5291   */\n      add\n        /* \"#utility.yul\":5270:5297   */\n      slt\n        /* \"#utility.yul\":5260:5382   */\n      tag_141\n      jumpi\n        /* \"#utility.yul\":5301:5380   */\n      tag_142\n      tag_60\n      jump\t// in\n    tag_142:\n        /* \"#utility.yul\":5260:5382   */\n    tag_141:\n        /* \"#utility.yul\":5418:5424   */\n      dup2\n        /* \"#utility.yul\":5405:5425   */\n      calldataload\n        /* \"#utility.yul\":5443:5522   */\n      tag_143\n        /* \"#utility.yul\":5518:5521   */\n      dup5\n        /* \"#utility.yul\":5510:5516   */\n      dup3\n        /* \"#utility.yul\":5503:5507   */\n      0x20\n        /* \"#utility.yul\":5495:5501   */\n      dup7\n        /* \"#utility.yul\":5491:5508   */\n      add\n        /* \"#utility.yul\":5443:5522   */\n      tag_64\n      jump\t// in\n    tag_143:\n        /* \"#utility.yul\":5434:5522   */\n      swap2\n      pop\n        /* \"#utility.yul\":5250:5528   */\n      pop\n        /* \"#utility.yul\":5188:5528   */\n      swap3\n      swap2\n      pop\n      pop\n      jump\t// out\n        /* \"#utility.yul\":5564:6644   */\n    tag_66:\n        /* \"#utility.yul\":5635:5640   */\n      0x00\n        /* \"#utility.yul\":5679:5683   */\n      0x60\n        /* \"#utility.yul\":5667:5676   */\n      dup3\n        /* \"#utility.yul\":5662:5665   */\n      dup5\n        /* \"#utility.yul\":5658:5677   */\n      sub\n        /* \"#utility.yul\":5654:5684   */\n      slt\n        /* \"#utility.yul\":5651:5768   */\n      iszero\n      tag_145\n      jumpi\n        /* \"#utility.yul\":5687:5766   */\n      tag_146\n      tag_55\n      jump\t// in\n    tag_146:\n        /* \"#utility.yul\":5651:5768   */\n    tag_145:\n        /* \"#utility.yul\":5786:5807   */\n      tag_147\n        /* \"#utility.yul\":5802:5806   */\n      0x60\n        /* \"#utility.yul\":5786:5807   */\n      tag_58\n      jump\t// in\n    tag_147:\n        /* \"#utility.yul\":5777:5807   */\n      swap1\n      pop\n        /* \"#utility.yul\":5899:5900   */\n      0x00\n        /* \"#utility.yul\":5888:5897   */\n      dup3\n        /* \"#utility.yul\":5884:5901   */\n      add\n        /* \"#utility.yul\":5871:5902   */\n      calldataload\n        /* \"#utility.yul\":5929:5947   */\n      0xffffffffffffffff\n        /* \"#utility.yul\":5921:5927   */\n      dup2\n        /* \"#utility.yul\":5918:5948   */\n      gt\n        /* \"#utility.yul\":5915:6032   */\n      iszero\n      tag_148\n      jumpi\n        /* \"#utility.yul\":5951:6030   */\n      tag_149\n      tag_59\n      jump\t// in\n    tag_149:\n        /* \"#utility.yul\":5915:6032   */\n    tag_148:\n        /* \"#utility.yul\":6071:6130   */\n      tag_150\n        /* \"#utility.yul\":6126:6129   */\n      dup5\n        /* \"#utility.yul\":6117:6123   */\n      dup3\n        /* \"#utility.yul\":6106:6115   */\n      dup6\n        /* \"#utility.yul\":6102:6124   */\n      add\n        /* \"#utility.yul\":6071:6130   */\n      tag_65\n      jump\t// in\n    tag_150:\n        /* \"#utility.yul\":6064:6068   */\n      0x00\n        /* \"#utility.yul\":6057:6062   */\n      dup4\n        /* \"#utility.yul\":6053:6069   */\n      add\n        /* \"#utility.yul\":6046:6131   */\n      mstore\n        /* \"#utility.yul\":5817:6142   */\n      pop\n        /* \"#utility.yul\":6233:6235   */\n      0x20\n        /* \"#utility.yul\":6222:6231   */\n      dup3\n        /* \"#utility.yul\":6218:6236   */\n      add\n        /* \"#utility.yul\":6205:6237   */\n      calldataload\n        /* \"#utility.yul\":6264:6282   */\n      0xffffffffffffffff\n        /* \"#utility.yul\":6256:6262   */\n      dup2\n        /* \"#utility.yul\":6253:6283   */\n      gt\n        /* \"#utility.yul\":6250:6367   */\n      iszero\n      tag_151\n      jumpi\n        /* \"#utility.yul\":6286:6365   */\n      tag_152\n      tag_59\n      jump\t// in\n    tag_152:\n        /* \"#utility.yul\":6250:6367   */\n    tag_151:\n        /* \"#utility.yul\":6406:6465   */\n      tag_153\n        /* \"#utility.yul\":6461:6464   */\n      dup5\n        /* \"#utility.yul\":6452:6458   */\n      dup3\n        /* \"#utility.yul\":6441:6450   */\n      dup6\n        /* \"#utility.yul\":6437:6459   */\n      add\n        /* \"#utility.yul\":6406:6465   */\n      tag_65\n      jump\t// in\n    tag_153:\n        /* \"#utility.yul\":6399:6403   */\n      0x20\n        /* \"#utility.yul\":6392:6397   */\n      dup4\n        /* \"#utility.yul\":6388:6404   */\n      add\n        /* \"#utility.yul\":6381:6466   */\n      mstore\n        /* \"#utility.yul\":6152:6477   */\n      pop\n        /* \"#utility.yul\":6535:6537   */\n      0x40\n        /* \"#utility.yul\":6576:6625   */\n      tag_154\n        /* \"#utility.yul\":6621:6624   */\n      dup5\n        /* \"#utility.yul\":6612:6618   */\n      dup3\n        /* \"#utility.yul\":6601:6610   */\n      dup6\n        /* \"#utility.yul\":6597:6619   */\n      add\n        /* \"#utility.yul\":6576:6625   */\n      tag_48\n      jump\t// in\n    tag_154:\n        /* \"#utility.yul\":6569:6573   */\n      0x40\n        /* \"#utility.yul\":6562:6567   */\n      dup4\n        /* \"#utility.yul\":6558:6574   */\n      add\n        /* \"#utility.yul\":6551:6626   */\n      mstore\n        /* \"#utility.yul\":6487:6637   */\n      pop\n        /* \"#utility.yul\":5564:6644   */\n      swap3\n      swap2\n      pop\n      pop\n      jump\t// out\n        /* \"#utility.yul\":6650:7183   */\n    tag_18:\n        /* \"#utility.yul\":6731:6737   */\n      0x00\n        /* \"#utility.yul\":6780:6782   */\n      0x20\n        /* \"#utility.yul\":6768:6777   */\n      dup3\n        /* \"#utility.yul\":6759:6766   */\n      dup5\n        /* \"#utility.yul\":6755:6778   */\n      sub\n        /* \"#utility.yul\":6751:6783   */\n      slt\n        /* \"#utility.yul\":6748:6867   */\n      iszero\n      tag_156\n      jumpi\n        /* \"#utility.yul\":6786:6865   */\n      tag_157\n      tag_44\n      jump\t// in\n    tag_157:\n        /* \"#utility.yul\":6748:6867   */\n    tag_156:\n        /* \"#utility.yul\":6934:6935   */\n      0x00\n        /* \"#utility.yul\":6923:6932   */\n      dup3\n        /* \"#utility.yul\":6919:6936   */\n      add\n        /* \"#utility.yul\":6906:6937   */\n      calldataload\n        /* \"#utility.yul\":6964:6982   */\n      0xffffffffffffffff\n        /* \"#utility.yul\":6956:6962   */\n      dup2\n        /* \"#utility.yul\":6953:6983   */\n      gt\n        /* \"#utility.yul\":6950:7067   */\n      iszero\n      tag_158\n      jumpi\n        /* \"#utility.yul\":6986:7065   */\n      tag_159\n      tag_45\n      jump\t// in\n    tag_159:\n        /* \"#utility.yul\":6950:7067   */\n    tag_158:\n        /* \"#utility.yul\":7091:7166   */\n      tag_160\n        /* \"#utility.yul\":7158:7165   */\n      dup5\n        /* \"#utility.yul\":7149:7155   */\n      dup3\n        /* \"#utility.yul\":7138:7147   */\n      dup6\n        /* \"#utility.yul\":7134:7156   */\n      add\n        /* \"#utility.yul\":7091:7166   */\n      tag_66\n      jump\t// in\n    tag_160:\n        /* \"#utility.yul\":7081:7166   */\n      swap2\n      pop\n        /* \"#utility.yul\":6877:7176   */\n      pop\n        /* \"#utility.yul\":6650:7183   */\n      swap3\n      swap2\n      pop\n      pop\n      jump\t// out\n        /* \"#utility.yul\":7189:7369   */\n    tag_67:\n        /* \"#utility.yul\":7237:7314   */\n      0x4e487b7100000000000000000000000000000000000000000000000000000000\n        /* \"#utility.yul\":7234:7235   */\n      0x00\n        /* \"#utility.yul\":7227:7315   */\n      mstore\n        /* \"#utility.yul\":7334:7338   */\n      0x22\n        /* \"#utility.yul\":7331:7332   */\n      0x04\n        /* \"#utility.yul\":7324:7339   */\n      mstore\n        /* \"#utility.yul\":7358:7362   */\n      0x24\n        /* \"#utility.yul\":7355:7356   */\n      0x00\n        /* \"#utility.yul\":7348:7363   */\n      revert\n        /* \"#utility.yul\":7375:7695   */\n    tag_23:\n        /* \"#utility.yul\":7419:7425   */\n      0x00\n        /* \"#utility.yul\":7456:7457   */\n      0x02\n        /* \"#utility.yul\":7450:7454   */\n      dup3\n        /* \"#utility.yul\":7446:7458   */\n      div\n        /* \"#utility.yul\":7436:7458   */\n      swap1\n      pop\n        /* \"#utility.yul\":7503:7504   */\n      0x01\n        /* \"#utility.yul\":7497:7501   */\n      dup3\n        /* \"#utility.yul\":7493:7505   */\n      and\n        /* \"#utility.yul\":7524:7542   */\n      dup1\n        /* \"#utility.yul\":7514:7595   */\n      tag_163\n      jumpi\n        /* \"#utility.yul\":7580:7584   */\n      0x7f\n        /* \"#utility.yul\":7572:7578   */\n      dup3\n        /* \"#utility.yul\":7568:7585   */\n      and\n        /* \"#utility.yul\":7558:7585   */\n      swap2\n      pop\n        /* \"#utility.yul\":7514:7595   */\n    tag_163:\n        /* \"#utility.yul\":7642:7644   */\n      0x20\n        /* \"#utility.yul\":7634:7640   */\n      dup3\n        /* \"#utility.yul\":7631:7645   */\n      lt\n        /* \"#utility.yul\":7611:7629   */\n      dup2\n        /* \"#utility.yul\":7608:7646   */\n      sub\n        /* \"#utility.yul\":7605:7689   */\n      tag_164\n      jumpi\n        /* \"#utility.yul\":7661:7679   */\n      tag_165\n      tag_67\n      jump\t// in\n    tag_165:\n        /* \"#utility.yul\":7605:7689   */\n    tag_164:\n        /* \"#utility.yul\":7426:7695   */\n      pop\n        /* \"#utility.yul\":7375:7695   */\n      swap2\n      swap1\n      pop\n      jump\t// out\n        /* \"#utility.yul\":7701:7881   */\n    tag_36:\n        /* \"#utility.yul\":7749:7826   */\n      0x4e487b7100000000000000000000000000000000000000000000000000000000\n        /* \"#utility.yul\":7746:7747   */\n      0x00\n        /* \"#utility.yul\":7739:7827   */\n      mstore\n        /* \"#utility.yul\":7846:7850   */\n      0x32\n        /* \"#utility.yul\":7843:7844   */\n      0x04\n        /* \"#utility.yul\":7836:7851   */\n      mstore\n        /* \"#utility.yul\":7870:7874   */\n      0x24\n        /* \"#utility.yul\":7867:7868   */\n      0x00\n        /* \"#utility.yul\":7860:7875   */\n      revert\n        /* \"#utility.yul\":7887:8028   */\n    tag_68:\n        /* \"#utility.yul\":7936:7940   */\n      0x00\n        /* \"#utility.yul\":7959:7962   */\n      dup2\n        /* \"#utility.yul\":7951:7962   */\n      swap1\n      pop\n        /* \"#utility.yul\":7982:7985   */\n      dup2\n        /* \"#utility.yul\":7979:7980   */\n      0x00\n        /* \"#utility.yul\":7972:7986   */\n      mstore\n        /* \"#utility.yul\":8016:8020   */\n      0x20\n        /* \"#utility.yul\":8013:8014   */\n      0x00\n        /* \"#utility.yul\":8003:8021   */\n      keccak256\n        /* \"#utility.yul\":7995:8021   */\n      swap1\n      pop\n        /* \"#utility.yul\":7887:8028   */\n      swap2\n      swap1\n      pop\n      jump\t// out\n        /* \"#utility.yul\":8034:8127   */\n    tag_69:\n        /* \"#utility.yul\":8071:8077   */\n      0x00\n        /* \"#utility.yul\":8118:8120   */\n      0x20\n        /* \"#utility.yul\":8113:8115   */\n      0x1f\n        /* \"#utility.yul\":8106:8111   */\n      dup4\n        /* \"#utility.yul\":8102:8116   */\n      add\n        /* \"#utility.yul\":8098:8121   */\n      div\n        /* \"#utility.yul\":8088:8121   */\n      swap1\n      pop\n        /* \"#utility.yul\":8034:8127   */\n      swap2\n      swap1\n      pop\n      jump\t// out\n        /* \"#utility.yul\":8133:8240   */\n    tag_70:\n        /* \"#utility.yul\":8177:8185   */\n      0x00\n        /* \"#utility.yul\":8227:8232   */\n      dup3\n        /* \"#utility.yul\":8221:8225   */\n      dup3\n        /* \"#utility.yul\":8217:8233   */\n      shl\n        /* \"#utility.yul\":8196:8233   */\n      swap1\n      pop\n        /* \"#utility.yul\":8133:8240   */\n      swap3\n      swap2\n      pop\n      pop\n      jump\t// out\n        /* \"#utility.yul\":8246:8639   */\n    tag_71:\n        /* \"#utility.yul\":8315:8321   */\n      0x00\n        /* \"#utility.yul\":8365:8366   */\n      0x08\n        /* \"#utility.yul\":8353:8363   */\n      dup4\n        /* \"#utility.yul\":8349:8367   */\n      mul\n        /* \"#utility.yul\":8388:8485   */\n      tag_171\n        /* \"#utility.yul\":8418:8484   */\n      0xffffffffffffffffffffffffffffffffffffffffffffffffffffffffffffffff\n        /* \"#utility.yul\":8407:8416   */\n      dup3\n        /* \"#utility.yul\":8388:8485   */\n      tag_70\n      jump\t// in\n    tag_171:\n        /* \"#utility.yul\":8506:8545   */\n      tag_172\n        /* \"#utility.yul\":8536:8544   */\n      dup7\n        /* \"#utility.yul\":8525:8534   */\n      dup4\n        /* \"#utility.yul\":8506:8545   */\n      tag_70\n      jump\t// in\n    tag_172:\n        /* \"#utility.yul\":8494:8545   */\n      swap6\n      pop\n        /* \"#utility.yul\":8578:8582   */\n      dup1\n        /* \"#utility.yul\":8574:8583   */\n      not\n        /* \"#utility.yul\":8567:8572   */\n      dup5\n        /* \"#utility.yul\":8563:8584   */\n      and\n        /* \"#utility.yul\":8554:8584   */\n      swap4\n      pop\n        /* \"#utility.yul\":8627:8631   */\n      dup1\n        /* \"#utility.yul\":8617:8625   */\n      dup7\n        /* \"#utility.yul\":8613:8632   */\n      and\n        /* \"#utility.yul\":8606:8611   */\n      dup5\n        /* \"#utility.yul\":8603:8633   */\n      or\n        /* \"#utility.yul\":8593:8633   */\n      swap3\n      pop\n        /* \"#utility.yul\":8322:8639   */\n      pop\n      pop\n        /* \"#utility.yul\":8246:8639   */\n      swap4\n      swap3\n      pop\n      pop\n      pop\n      jump\t// out\n        /* \"#utility.yul\":8645:8705   */\n    tag_72:\n        /* \"#utility.yul\":8673:8676   */\n      0x00\n        /* \"#utility.yul\":8694:8699   */\n      dup2\n        /* \"#utility.yul\":8687:8699   */\n      swap1\n      pop\n        /* \"#utility.yul\":8645:8705   */\n      swap2\n      swap1\n      pop\n      jump\t// out\n        /* \"#utility.yul\":8711:8853   */\n    tag_73:\n        /* \"#utility.yul\":8761:8770   */\n      0x00\n        /* \"#utility.yul\":8794:8847   */\n      tag_175\n        /* \"#utility.yul\":8812:8846   */\n      tag_176\n        /* \"#utility.yul\":8821:8845   */\n      tag_177\n        /* \"#utility.yul\":8839:8844   */\n      dup5\n        /* \"#utility.yul\":8821:8845   */\n      tag_46\n      jump\t// in\n    tag_177:\n        /* \"#utility.yul\":8812:8846   */\n      tag_72\n      jump\t// in\n    tag_176:\n        /* \"#utility.yul\":8794:8847   */\n      tag_46\n      jump\t// in\n    tag_175:\n        /* \"#utility.yul\":8781:8847   */\n      swap1\n      pop\n        /* \"#utility.yul\":8711:8853   */\n      swap2\n      swap1\n      pop\n      jump\t// out\n        /* \"#utility.yul\":8859:8934   */\n    tag_74:\n        /* \"#utility.yul\":8902:8905   */\n      0x00\n        /* \"#utility.yul\":8923:8928   */\n      dup2\n        /* \"#utility.yul\":8916:8928   */\n      swap1\n      pop\n        /* \"#utility.yul\":8859:8934   */\n      swap2\n      swap1\n      pop\n      jump\t// out\n        /* \"#utility.yul\":8940:9209   */\n    tag_75:\n        /* \"#utility.yul\":9050:9089   */\n      tag_180\n        /* \"#utility.yul\":9081:9088   */\n      dup4\n        /* \"#utility.yul\":9050:9089   */\n      tag_73\n      jump\t// in\n    tag_180:\n        /* \"#utility.yul\":9111:9202   */\n      tag_181\n        /* \"#utility.yul\":9160:9201   */\n      tag_182\n        /* \"#utility.yul\":9184:9200   */\n      dup3\n        /* \"#utility.yul\":9160:9201   */\n      tag_74\n      jump\t// in\n    tag_182:\n        /* \"#utility.yul\":9152:9158   */\n      dup5\n        /* \"#utility.yul\":9145:9149   */\n      dup5\n        /* \"#utility.yul\":9139:9150   */\n      sload\n        /* \"#utility.yul\":9111:9202   */\n      tag_71\n      jump\t// in\n    tag_181:\n        /* \"#utility.yul\":9105:9109   */\n      dup3\n        /* \"#utility.yul\":9098:9203   */\n      sstore\n        /* \"#utility.yul\":9016:9209   */\n      pop\n        /* \"#utility.yul\":8940:9209   */\n      pop\n      pop\n      pop\n      jump\t// out\n        /* \"#utility.yul\":9215:9288   */\n    tag_76:\n        /* \"#utility.yul\":9260:9263   */\n      0x00\n        /* \"#utility.yul\":9215:9288   */\n      swap1\n      jump\t// out\n        /* \"#utility.yul\":9294:9483   */\n    tag_77:\n        /* \"#utility.yul\":9371:9403   */\n      tag_185\n      tag_76\n      jump\t// in\n    tag_185:\n        /* \"#utility.yul\":9412:9477   */\n      tag_186\n        /* \"#utility.yul\":9470:9476   */\n      dup2\n        /* \"#utility.yul\":9462:9468   */\n      dup5\n        /* \"#utility.yul\":9456:9460   */\n      dup5\n        /* \"#utility.yul\":9412:9477   */\n      tag_75\n      jump\t// in\n    tag_186:\n        /* \"#utility.yul\":9347:9483   */\n      pop\n        /* \"#utility.yul\":9294:9483   */\n      pop\n      pop\n      jump\t// out\n        /* \"#utility.yul\":9489:9675   */\n    tag_78:\n        /* \"#utility.yul\":9549:9669   */\n    tag_188:\n        /* \"#utility.yul\":9566:9569   */\n      dup2\n        /* \"#utility.yul\":9559:9564   */\n      dup2\n        /* \"#utility.yul\":9556:9570   */\n      lt\n        /* \"#utility.yul\":9549:9669   */\n      iszero\n      tag_190\n      jumpi\n        /* \"#utility.yul\":9620:9659   */\n      tag_191\n        /* \"#utility.yul\":9657:9658   */\n      0x00\n        /* \"#utility.yul\":9650:9655   */\n      dup3\n        /* \"#utility.yul\":9620:9659   */\n      tag_77\n      jump\t// in\n    tag_191:\n        /* \"#utility.yul\":9593:9594   */\n      0x01\n        /* \"#utility.yul\":9586:9591   */\n      dup2\n        /* \"#utility.yul\":9582:9595   */\n      add\n        /* \"#utility.yul\":9573:9595   */\n      swap1\n      pop\n        /* \"#utility.yul\":9549:9669   */\n      jump(tag_188)\n    tag_190:\n        /* \"#utility.yul\":9489:9675   */\n      pop\n      pop\n      jump\t// out\n        /* \"#utility.yul\":9681:10224   */\n    tag_79:\n        /* \"#utility.yul\":9782:9784   */\n      0x1f\n        /* \"#utility.yul\":9777:9780   */\n      dup3\n        /* \"#utility.yul\":9774:9785   */\n      gt\n        /* \"#utility.yul\":9771:10217   */\n      iszero\n      tag_193\n      jumpi\n        /* \"#utility.yul\":9816:9854   */\n      tag_194\n        /* \"#utility.yul\":9848:9853   */\n      dup2\n        /* \"#utility.yul\":9816:9854   */\n      tag_68\n      jump\t// in\n    tag_194:\n        /* \"#utility.yul\":9900:9929   */\n      tag_195\n        /* \"#utility.yul\":9918:9928   */\n      dup5\n        /* \"#utility.yul\":9900:9929   */\n      tag_69\n      jump\t// in\n    tag_195:\n        /* \"#utility.yul\":9890:9898   */\n      dup2\n        /* \"#utility.yul\":9886:9930   */\n      add\n        /* \"#utility.yul\":10083:10085   */\n      0x20\n        /* \"#utility.yul\":10071:10081   */\n      dup6\n        /* \"#utility.yul\":10068:10086   */\n      lt\n        /* \"#utility.yul\":10065:10114   */\n      iszero\n      tag_196\n      jumpi\n        /* \"#utility.yul\":10104:10112   */\n      dup2\n        /* \"#utility.yul\":10089:10112   */\n      swap1\n      pop\n        /* \"#utility.yul\":10065:10114   */\n    tag_196:\n        /* \"#utility.yul\":10127:10207   */\n      tag_197\n        /* \"#utility.yul\":10183:10205   */\n      tag_198\n        /* \"#utility.yul\":10201:10204   */\n      dup6\n        /* \"#utility.yul\":10183:10205   */\n      tag_69\n      jump\t// in\n    tag_198:\n        /* \"#utility.yul\":10173:10181   */\n      dup4\n        /* \"#utility.yul\":10169:10206   */\n      add\n        /* \"#utility.yul\":10156:10167   */\n      dup3\n        /* \"#utility.yul\":10127:10207   */\n      tag_78\n      jump\t// in\n    tag_197:\n        /* \"#utility.yul\":9786:10217   */\n      pop\n      pop\n        /* \"#utility.yul\":9771:10217   */\n    tag_193:\n        /* \"#utility.yul\":9681:10224   */\n      pop\n      pop\n      pop\n      jump\t// out\n        /* \"#utility.yul\":10230:10347   */\n    tag_80:\n        /* \"#utility.yul\":10284:10292   */\n      0x00\n        /* \"#utility.yul\":10334:10339   */\n      dup3\n        /* \"#utility.yul\":10328:10332   */\n      dup3\n        /* \"#utility.yul\":10324:10340   */\n      shr\n        /* \"#utility.yul\":10303:10340   */\n      swap1\n      pop\n        /* \"#utility.yul\":10230:10347   */\n      swap3\n      swap2\n      pop\n      pop\n      jump\t// out\n        /* \"#utility.yul\":10353:10522   */\n    tag_81:\n        /* \"#utility.yul\":10397:10403   */\n      0x00\n        /* \"#utility.yul\":10430:10481   */\n      tag_201\n        /* \"#utility.yul\":10478:10479   */\n      0x00\n        /* \"#utility.yul\":10474:10480   */\n      not\n        /* \"#utility.yul\":10466:10471   */\n      dup5\n        /* \"#utility.yul\":10463:10464   */\n      0x08\n        /* \"#utility.yul\":10459:10472   */\n      mul\n        /* \"#utility.yul\":10430:10481   */\n      tag_80\n      jump\t// in\n    tag_201:\n        /* \"#utility.yul\":10426:10482   */\n      not\n        /* \"#utility.yul\":10511:10515   */\n      dup1\n        /* \"#utility.yul\":10505:10509   */\n      dup4\n        /* \"#utility.yul\":10501:10516   */\n      and\n        /* \"#utility.yul\":10491:10516   */\n      swap2\n      pop\n        /* \"#utility.yul\":10404:10522   */\n      pop\n        /* \"#utility.yul\":10353:10522   */\n      swap3\n      swap2\n      pop\n      pop\n      jump\t// out\n        /* \"#utility.yul\":10527:10822   */\n    tag_82:\n        /* \"#utility.yul\":10603:10607   */\n      0x00\n        /* \"#utility.yul\":10749:10778   */\n      tag_203\n        /* \"#utility.yul\":10774:10777   */\n      dup4\n        /* \"#utility.yul\":10768:10772   */\n      dup4\n        /* \"#utility.yul\":10749:10778   */\n      tag_81\n      jump\t// in\n    tag_203:\n        /* \"#utility.yul\":10741:10778   */\n      swap2\n      pop\n        /* \"#utility.yul\":10811:10814   */\n      dup3\n        /* \"#utility.yul\":10808:10809   */\n      0x02\n        /* \"#utility.yul\":10804:10815   */\n      mul\n        /* \"#utility.yul\":10798:10802   */\n      dup3\n        /* \"#utility.yul\":10795:10816   */\n      or\n        /* \"#utility.yul\":10787:10816   */\n      swap1\n      pop\n        /* \"#utility.yul\":10527:10822   */\n      swap3\n      swap2\n      pop\n      pop\n      jump\t// out\n        /* \"#utility.yul\":10827:12222   */\n    tag_41:\n        /* \"#utility.yul\":10944:10981   */\n      tag_205\n        /* \"#utility.yul\":10977:10980   */\n      dup3\n        /* \"#utility.yul\":10944:10981   */\n      tag_49\n      jump\t// in\n    tag_205:\n        /* \"#utility.yul\":11046:11064   */\n      0xffffffffffffffff\n        /* \"#utility.yul\":11038:11044   */\n      dup2\n        /* \"#utility.yul\":11035:11065   */\n      gt\n        /* \"#utility.yul\":11032:11088   */\n      iszero\n      tag_206\n      jumpi\n        /* \"#utility.yul\":11068:11086   */\n      tag_207\n      tag_56\n      jump\t// in\n    tag_207:\n        /* \"#utility.yul\":11032:11088   */\n    tag_206:\n        /* \"#utility.yul\":11112:11150   */\n      tag_208\n        /* \"#utility.yul\":11144:11148   */\n      dup3\n        /* \"#utility.yul\":11138:11149   */\n      sload\n        /* \"#utility.yul\":11112:11150   */\n      tag_23\n      jump\t// in\n    tag_208:\n        /* \"#utility.yul\":11197:11264   */\n      tag_209\n        /* \"#utility.yul\":11257:11263   */\n      dup3\n        /* \"#utility.yul\":11249:11255   */\n      dup3\n        /* \"#utility.yul\":11243:11247   */\n      dup6\n        /* \"#utility.yul\":11197:11264   */\n      tag_79\n      jump\t// in\n    tag_209:\n        /* \"#utility.yul\":11291:11292   */\n      0x00\n        /* \"#utility.yul\":11315:11319   */\n      0x20\n        /* \"#utility.yul\":11302:11319   */\n      swap1\n      pop\n        /* \"#utility.yul\":11347:11349   */\n      0x1f\n        /* \"#utility.yul\":11339:11345   */\n      dup4\n        /* \"#utility.yul\":11336:11350   */\n      gt\n        /* \"#utility.yul\":11364:11365   */\n      0x01\n        /* \"#utility.yul\":11359:11977   */\n      dup2\n      eq\n      tag_211\n      jumpi\n        /* \"#utility.yul\":12021:12022   */\n      0x00\n        /* \"#utility.yul\":12038:12044   */\n      dup5\n        /* \"#utility.yul\":12035:12112   */\n      iszero\n      tag_212\n      jumpi\n        /* \"#utility.yul\":12087:12096   */\n      dup3\n        /* \"#utility.yul\":12082:12085   */\n      dup8\n        /* \"#utility.yul\":12078:12097   */\n      add\n        /* \"#utility.yul\":12072:12098   */\n      mload\n        /* \"#utility.yul\":12063:12098   */\n      swap1\n      pop\n        /* \"#utility.yul\":12035:12112   */\n    tag_212:\n        /* \"#utility.yul\":12138:12205   */\n      tag_213\n        /* \"#utility.yul\":12198:12204   */\n      dup6\n        /* \"#utility.yul\":12191:12196   */\n      dup3\n        /* \"#utility.yul\":12138:12205   */\n      tag_82\n      jump\t// in\n    tag_213:\n        /* \"#utility.yul\":12132:12136   */\n      dup7\n        /* \"#utility.yul\":12125:12206   */\n      sstore\n        /* \"#utility.yul\":11994:12216   */\n      pop\n        /* \"#utility.yul\":11329:12216   */\n      jump(tag_210)\n        /* \"#utility.yul\":11359:11977   */\n    tag_211:\n        /* \"#utility.yul\":11411:11415   */\n      0x1f\n        /* \"#utility.yul\":11407:11416   */\n      not\n        /* \"#utility.yul\":11399:11405   */\n      dup5\n        /* \"#utility.yul\":11395:11417   */\n      and\n        /* \"#utility.yul\":11445:11482   */\n      tag_214\n        /* \"#utility.yul\":11477:11481   */\n      dup7\n        /* \"#utility.yul\":11445:11482   */\n      tag_68\n      jump\t// in\n    tag_214:\n        /* \"#utility.yul\":11504:11505   */\n      0x00\n        /* \"#utility.yul\":11518:11726   */\n    tag_215:\n        /* \"#utility.yul\":11532:11539   */\n      dup3\n        /* \"#utility.yul\":11529:11530   */\n      dup2\n        /* \"#utility.yul\":11526:11540   */\n      lt\n        /* \"#utility.yul\":11518:11726   */\n      iszero\n      tag_217\n      jumpi\n        /* \"#utility.yul\":11611:11620   */\n      dup5\n        /* \"#utility.yul\":11606:11609   */\n      dup10\n        /* \"#utility.yul\":11602:11621   */\n      add\n        /* \"#utility.yul\":11596:11622   */\n      mload\n        /* \"#utility.yul\":11588:11594   */\n      dup3\n        /* \"#utility.yul\":11581:11623   */\n      sstore\n        /* \"#utility.yul\":11662:11663   */\n      0x01\n        /* \"#utility.yul\":11654:11660   */\n      dup3\n        /* \"#utility.yul\":11650:11664   */\n      add\n        /* \"#utility.yul\":11640:11664   */\n      swap2\n      pop\n        /* \"#utility.yul\":11709:11711   */\n      0x20\n        /* \"#utility.yul\":11698:11707   */\n      dup6\n        /* \"#utility.yul\":11694:11712   */\n      add\n        /* \"#utility.yul\":11681:11712   */\n      swap5\n      pop\n        /* \"#utility.yul\":11555:11559   */\n      0x20\n        /* \"#utility.yul\":11552:11553   */\n      dup2\n        /* \"#utility.yul\":11548:11560   */\n      add\n        /* \"#utility.yul\":11543:11560   */\n      swap1\n      pop\n        /* \"#utility.yul\":11518:11726   */\n      jump(tag_215)\n    tag_217:\n        /* \"#utility.yul\":11754:11760   */\n      dup7\n        /* \"#utility.yul\":11745:11752   */\n      dup4\n        /* \"#utility.yul\":11742:11761   */\n      lt\n        /* \"#utility.yul\":11739:11918   */\n      iszero\n      tag_218\n      jumpi\n        /* \"#utility.yul\":11812:11821   */\n      dup5\n        /* \"#utility.yul\":11807:11810   */\n      dup10\n        /* \"#utility.yul\":11803:11822   */\n      add\n        /* \"#utility.yul\":11797:11823   */\n      mload\n        /* \"#utility.yul\":11855:11903   */\n      tag_219\n        /* \"#utility.yul\":11897:11901   */\n      0x1f\n        /* \"#utility.yul\":11889:11895   */\n      dup10\n        /* \"#utility.yul\":11885:11902   */\n      and\n        /* \"#utility.yul\":11874:11883   */\n      dup3\n        /* \"#utility.yul\":11855:11903   */\n      tag_81\n      jump\t// in\n    tag_219:\n        /* \"#utility.yul\":11847:11853   */\n      dup4\n        /* \"#utility.yul\":11840:11904   */\n      sstore\n        /* \"#utility.yul\":11762:11918   */\n      pop\n        /* \"#utility.yul\":11739:11918   */\n    tag_218:\n        /* \"#utility.yul\":11964:11965   */\n      0x01\n        /* \"#utility.yul\":11960:11961   */\n      0x02\n        /* \"#utility.yul\":11952:11958   */\n      dup9\n        /* \"#utility.yul\":11948:11962   */\n      mul\n        /* \"#utility.yul\":11944:11966   */\n      add\n        /* \"#utility.yul\":11938:11942   */\n      dup9\n        /* \"#utility.yul\":11931:11967   */\n      sstore\n        /* \"#utility.yul\":11366:11977   */\n      pop\n      pop\n      pop\n        /* \"#utility.yul\":11329:12216   */\n    tag_210:\n      pop\n        /* \"#utility.yul\":10919:12222   */\n      pop\n      pop\n      pop\n        /* \"#utility.yul\":10827:12222   */\n      pop\n      pop\n      jump\t// out\n\n    auxdata: 0xa26469706673582212201bd111441d885b30b73fb8129923b1c6d7e7e8f43aa4b91785d2d69f34a4aab864736f6c63430008190033\n}\n",
				"bytecode": {
					"linkReferences": {},
					"object": "6080604052348015600e575f80fd5b5061092d8061001c5f395ff3fe608060405234801561000f575f80fd5b506004361061003f575f3560e01c8063092a182014610043578063d55ce7b014610075578063dcea595a14610091575b5f80fd5b61005d600480360381019061005891906102c2565b6100ad565b60405161006c9392919061036c565b60405180910390f35b61008f600480360381019061008a91906103af565b6101ed565b005b6100ab60048036038101906100a691906105ba565b61021d565b005b5f81815481106100bb575f80fd5b905f5260205f2090600302015f91509050805f0180546100da9061062e565b80601f01602080910402602001604051908101604052809291908181526020018280546101069061062e565b80156101515780601f1061012857610100808354040283529160200191610151565b820191905f5260205f20905b81548152906001019060200180831161013457829003601f168201915b5050505050908060010180546101669061062e565b80601f01602080910402602001604051908101604052809291908181526020018280546101929061062e565b80156101dd5780601f106101b4576101008083540402835291602001916101dd565b820191905f5260205f20905b8154815290600101906020018083116101c057829003601f168201915b5050505050908060020154905083565b5f8083815481106102015761020061065e565b5b905f5260205f2090600302019050818160020181905550505050565b5f81908060018154018082558091505060019003905f5260205f2090600302015f909190919091505f820151815f0190816102589190610828565b50602082015181600101908161026e9190610828565b5060408201518160020155505050565b5f604051905090565b5f80fd5b5f80fd5b5f819050919050565b6102a18161028f565b81146102ab575f80fd5b50565b5f813590506102bc81610298565b92915050565b5f602082840312156102d7576102d6610287565b5b5f6102e4848285016102ae565b91505092915050565b5f81519050919050565b5f82825260208201905092915050565b8281835e5f83830152505050565b5f601f19601f8301169050919050565b5f61032f826102ed565b61033981856102f7565b9350610349818560208601610307565b61035281610315565b840191505092915050565b6103668161028f565b82525050565b5f6060820190508181035f8301526103848186610325565b905081810360208301526103988185610325565b90506103a7604083018461035d565b949350505050565b5f80604083850312156103c5576103c4610287565b5b5f6103d2858286016102ae565b92505060206103e3858286016102ae565b9150509250929050565b5f80fd5b7f4e487b71000000000000000000000000000000000000000000000000000000005f52604160045260245ffd5b61042782610315565b810181811067ffffffffffffffff82111715610446576104456103f1565b5b80604052505050565b5f61045861027e565b9050610464828261041e565b919050565b5f80fd5b5f80fd5b5f80fd5b5f67ffffffffffffffff82111561048f5761048e6103f1565b5b61049882610315565b9050602081019050919050565b828183375f83830152505050565b5f6104c56104c084610475565b61044f565b9050828152602081018484840111156104e1576104e0610471565b5b6104ec8482856104a5565b509392505050565b5f82601f8301126105085761050761046d565b5b81356105188482602086016104b3565b91505092915050565b5f60608284031215610536576105356103ed565b5b610540606061044f565b90505f82013567ffffffffffffffff81111561055f5761055e610469565b5b61056b848285016104f4565b5f83015250602082013567ffffffffffffffff81111561058e5761058d610469565b5b61059a848285016104f4565b60208301525060406105ae848285016102ae565b60408301525092915050565b5f602082840312156105cf576105ce610287565b5b5f82013567ffffffffffffffff8111156105ec576105eb61028b565b5b6105f884828501610521565b91505092915050565b7f4e487b71000000000000000000000000000000000000000000000000000000005f52602260045260245ffd5b5f600282049050600182168061064557607f821691505b60208210810361065857610657610601565b5b50919050565b7f4e487b71000000000000000000000000000000000000000000000000000000005f52603260045260245ffd5b5f819050815f5260205f209050919050565b5f6020601f8301049050919050565b5f82821b905092915050565b5f600883026106e77fffffffffffffffffffffffffffffffffffffffffffffffffffffffffffffffff826106ac565b6106f186836106ac565b95508019841693508086168417925050509392505050565b5f819050919050565b5f61072c6107276107228461028f565b610709565b61028f565b9050919050565b5f819050919050565b61074583610712565b61075961075182610733565b8484546106b8565b825550505050565b5f90565b61076d610761565b61077881848461073c565b505050565b5b8181101561079b576107905f82610765565b60018101905061077e565b5050565b601f8211156107e0576107b18161068b565b6107ba8461069d565b810160208510156107c9578190505b6107dd6107d58561069d565b83018261077d565b50505b505050565b5f82821c905092915050565b5f6108005f19846008026107e5565b1980831691505092915050565b5f61081883836107f1565b9150826002028217905092915050565b610831826102ed565b67ffffffffffffffff81111561084a576108496103f1565b5b610854825461062e565b61085f82828561079f565b5f60209050601f831160018114610890575f841561087e578287015190505b610888858261080d565b8655506108ef565b601f19841661089e8661068b565b5f5b828110156108c5578489015182556001820191506020850194506020810190506108a0565b868310156108e257848901516108de601f8916826107f1565b8355505b6001600288020188555050505b50505050505056fea26469706673582212201bd111441d885b30b73fb8129923b1c6d7e7e8f43aa4b91785d2d69f34a4aab864736f6c63430008190033",
					"opcodes": "PUSH1 0x80 PUSH1 0x40 MSTORE CALLVALUE DUP1 ISZERO PUSH1 0xE JUMPI PUSH0 DUP1 REVERT JUMPDEST POP PUSH2 0x92D DUP1 PUSH2 0x1C PUSH0 CODECOPY PUSH0 RETURN INVALID PUSH1 0x80 PUSH1 0x40 MSTORE CALLVALUE DUP1 ISZERO PUSH2 0xF JUMPI PUSH0 DUP1 REVERT JUMPDEST POP PUSH1 0x4 CALLDATASIZE LT PUSH2 0x3F JUMPI PUSH0 CALLDATALOAD PUSH1 0xE0 SHR DUP1 PUSH4 0x92A1820 EQ PUSH2 0x43 JUMPI DUP1 PUSH4 0xD55CE7B0 EQ PUSH2 0x75 JUMPI DUP1 PUSH4 0xDCEA595A EQ PUSH2 0x91 JUMPI JUMPDEST PUSH0 DUP1 REVERT JUMPDEST PUSH2 0x5D PUSH1 0x4 DUP1 CALLDATASIZE SUB DUP2 ADD SWAP1 PUSH2 0x58 SWAP2 SWAP1 PUSH2 0x2C2 JUMP JUMPDEST PUSH2 0xAD JUMP JUMPDEST PUSH1 0x40 MLOAD PUSH2 0x6C SWAP4 SWAP3 SWAP2 SWAP1 PUSH2 0x36C JUMP JUMPDEST PUSH1 0x40 MLOAD DUP1 SWAP2 SUB SWAP1 RETURN JUMPDEST PUSH2 0x8F PUSH1 0x4 DUP1 CALLDATASIZE SUB DUP2 ADD SWAP1 PUSH2 0x8A SWAP2 SWAP1 PUSH2 0x3AF JUMP JUMPDEST PUSH2 0x1ED JUMP JUMPDEST STOP JUMPDEST PUSH2 0xAB PUSH1 0x4 DUP1 CALLDATASIZE SUB DUP2 ADD SWAP1 PUSH2 0xA6 SWAP2 SWAP1 PUSH2 0x5BA JUMP JUMPDEST PUSH2 0x21D JUMP JUMPDEST STOP JUMPDEST PUSH0 DUP2 DUP2 SLOAD DUP2 LT PUSH2 0xBB JUMPI PUSH0 DUP1 REVERT JUMPDEST SWAP1 PUSH0 MSTORE PUSH1 0x20 PUSH0 KECCAK256 SWAP1 PUSH1 0x3 MUL ADD PUSH0 SWAP2 POP SWAP1 POP DUP1 PUSH0 ADD DUP1 SLOAD PUSH2 0xDA SWAP1 PUSH2 0x62E JUMP JUMPDEST DUP1 PUSH1 0x1F ADD PUSH1 0x20 DUP1 SWAP2 DIV MUL PUSH1 0x20 ADD PUSH1 0x40 MLOAD SWAP1 DUP2 ADD PUSH1 0x40 MSTORE DUP1 SWAP3 SWAP2 SWAP1 DUP2 DUP2 MSTORE PUSH1 0x20 ADD DUP3 DUP1 SLOAD PUSH2 0x106 SWAP1 PUSH2 0x62E JUMP JUMPDEST DUP1 ISZERO PUSH2 0x151 JUMPI DUP1 PUSH1 0x1F LT PUSH2 0x128 JUMPI PUSH2 0x100 DUP1 DUP4 SLOAD DIV MUL DUP4 MSTORE SWAP2 PUSH1 0x20 ADD SWAP2 PUSH2 0x151 JUMP JUMPDEST DUP3 ADD SWAP2 SWAP1 PUSH0 MSTORE PUSH1 0x20 PUSH0 KECCAK256 SWAP1 JUMPDEST DUP2 SLOAD DUP2 MSTORE SWAP1 PUSH1 0x1 ADD SWAP1 PUSH1 0x20 ADD DUP1 DUP4 GT PUSH2 0x134 JUMPI DUP3 SWAP1 SUB PUSH1 0x1F AND DUP3 ADD SWAP2 JUMPDEST POP POP POP POP POP SWAP1 DUP1 PUSH1 0x1 ADD DUP1 SLOAD PUSH2 0x166 SWAP1 PUSH2 0x62E JUMP JUMPDEST DUP1 PUSH1 0x1F ADD PUSH1 0x20 DUP1 SWAP2 DIV MUL PUSH1 0x20 ADD PUSH1 0x40 MLOAD SWAP1 DUP2 ADD PUSH1 0x40 MSTORE DUP1 SWAP3 SWAP2 SWAP1 DUP2 DUP2 MSTORE PUSH1 0x20 ADD DUP3 DUP1 SLOAD PUSH2 0x192 SWAP1 PUSH2 0x62E JUMP JUMPDEST DUP1 ISZERO PUSH2 0x1DD JUMPI DUP1 PUSH1 0x1F LT PUSH2 0x1B4 JUMPI PUSH2 0x100 DUP1 DUP4 SLOAD DIV MUL DUP4 MSTORE SWAP2 PUSH1 0x20 ADD SWAP2 PUSH2 0x1DD JUMP JUMPDEST DUP3 ADD SWAP2 SWAP1 PUSH0 MSTORE PUSH1 0x20 PUSH0 KECCAK256 SWAP1 JUMPDEST DUP2 SLOAD DUP2 MSTORE SWAP1 PUSH1 0x1 ADD SWAP1 PUSH1 0x20 ADD DUP1 DUP4 GT PUSH2 0x1C0 JUMPI DUP3 SWAP1 SUB PUSH1 0x1F AND DUP3 ADD SWAP2 JUMPDEST POP POP POP POP POP SWAP1 DUP1 PUSH1 0x2 ADD SLOAD SWAP1 POP DUP4 JUMP JUMPDEST PUSH0 DUP1 DUP4 DUP2 SLOAD DUP2 LT PUSH2 0x201 JUMPI PUSH2 0x200 PUSH2 0x65E JUMP JUMPDEST JUMPDEST SWAP1 PUSH0 MSTORE PUSH1 0x20 PUSH0 KECCAK256 SWAP1 PUSH1 0x3 MUL ADD SWAP1 POP DUP2 DUP2 PUSH1 0x2 ADD DUP2 SWAP1 SSTORE POP POP POP POP JUMP JUMPDEST PUSH0 DUP2 SWAP1 DUP1 PUSH1 0x1 DUP2 SLOAD ADD DUP1 DUP3 SSTORE DUP1 SWAP2 POP POP PUSH1 0x1 SWAP1 SUB SWAP1 PUSH0 MSTORE PUSH1 0x20 PUSH0 KECCAK256 SWAP1 PUSH1 0x3 MUL ADD PUSH0 SWAP1 SWAP2 SWAP1 SWAP2 SWAP1 SWAP2 POP PUSH0 DUP3 ADD MLOAD DUP2 PUSH0 ADD SWAP1 DUP2 PUSH2 0x258 SWAP2 SWAP1 PUSH2 0x828 JUMP JUMPDEST POP PUSH1 0x20 DUP3 ADD MLOAD DUP2 PUSH1 0x1 ADD SWAP1 DUP2 PUSH2 0x26E SWAP2 SWAP1 PUSH2 0x828 JUMP JUMPDEST POP PUSH1 0x40 DUP3 ADD MLOAD DUP2 PUSH1 0x2 ADD SSTORE POP POP POP JUMP JUMPDEST PUSH0 PUSH1 0x40 MLOAD SWAP1 POP SWAP1 JUMP JUMPDEST PUSH0 DUP1 REVERT JUMPDEST PUSH0 DUP1 REVERT JUMPDEST PUSH0 DUP2 SWAP1 POP SWAP2 SWAP1 POP JUMP JUMPDEST PUSH2 0x2A1 DUP2 PUSH2 0x28F JUMP JUMPDEST DUP2 EQ PUSH2 0x2AB JUMPI PUSH0 DUP1 REVERT JUMPDEST POP JUMP JUMPDEST PUSH0 DUP2 CALLDATALOAD SWAP1 POP PUSH2 0x2BC DUP2 PUSH2 0x298 JUMP JUMPDEST SWAP3 SWAP2 POP POP JUMP JUMPDEST PUSH0 PUSH1 0x20 DUP3 DUP5 SUB SLT ISZERO PUSH2 0x2D7 JUMPI PUSH2 0x2D6 PUSH2 0x287 JUMP JUMPDEST JUMPDEST PUSH0 PUSH2 0x2E4 DUP5 DUP3 DUP6 ADD PUSH2 0x2AE JUMP JUMPDEST SWAP2 POP POP SWAP3 SWAP2 POP POP JUMP JUMPDEST PUSH0 DUP2 MLOAD SWAP1 POP SWAP2 SWAP1 POP JUMP JUMPDEST PUSH0 DUP3 DUP3 MSTORE PUSH1 0x20 DUP3 ADD SWAP1 POP SWAP3 SWAP2 POP POP JUMP JUMPDEST DUP3 DUP2 DUP4 MCOPY PUSH0 DUP4 DUP4 ADD MSTORE POP POP POP JUMP JUMPDEST PUSH0 PUSH1 0x1F NOT PUSH1 0x1F DUP4 ADD AND SWAP1 POP SWAP2 SWAP1 POP JUMP JUMPDEST PUSH0 PUSH2 0x32F DUP3 PUSH2 0x2ED JUMP JUMPDEST PUSH2 0x339 DUP2 DUP6 PUSH2 0x2F7 JUMP JUMPDEST SWAP4 POP PUSH2 0x349 DUP2 DUP6 PUSH1 0x20 DUP7 ADD PUSH2 0x307 JUMP JUMPDEST PUSH2 0x352 DUP2 PUSH2 0x315 JUMP JUMPDEST DUP5 ADD SWAP2 POP POP SWAP3 SWAP2 POP POP JUMP JUMPDEST PUSH2 0x366 DUP2 PUSH2 0x28F JUMP JUMPDEST DUP3 MSTORE POP POP JUMP JUMPDEST PUSH0 PUSH1 0x60 DUP3 ADD SWAP1 POP DUP2 DUP2 SUB PUSH0 DUP4 ADD MSTORE PUSH2 0x384 DUP2 DUP7 PUSH2 0x325 JUMP JUMPDEST SWAP1 POP DUP2 DUP2 SUB PUSH1 0x20 DUP4 ADD MSTORE PUSH2 0x398 DUP2 DUP6 PUSH2 0x325 JUMP JUMPDEST SWAP1 POP PUSH2 0x3A7 PUSH1 0x40 DUP4 ADD DUP5 PUSH2 0x35D JUMP JUMPDEST SWAP5 SWAP4 POP POP POP POP JUMP JUMPDEST PUSH0 DUP1 PUSH1 0x40 DUP4 DUP6 SUB SLT ISZERO PUSH2 0x3C5 JUMPI PUSH2 0x3C4 PUSH2 0x287 JUMP JUMPDEST JUMPDEST PUSH0 PUSH2 0x3D2 DUP6 DUP3 DUP7 ADD PUSH2 0x2AE JUMP JUMPDEST SWAP3 POP POP PUSH1 0x20 PUSH2 0x3E3 DUP6 DUP3 DUP7 ADD PUSH2 0x2AE JUMP JUMPDEST SWAP2 POP POP SWAP3 POP SWAP3 SWAP1 POP JUMP JUMPDEST PUSH0 DUP1 REVERT JUMPDEST PUSH32 0x4E487B7100000000000000000000000000000000000000000000000000000000 PUSH0 MSTORE PUSH1 0x41 PUSH1 0x4 MSTORE PUSH1 0x24 PUSH0 REVERT JUMPDEST PUSH2 0x427 DUP3 PUSH2 0x315 JUMP JUMPDEST DUP2 ADD DUP2 DUP2 LT PUSH8 0xFFFFFFFFFFFFFFFF DUP3 GT OR ISZERO PUSH2 0x446 JUMPI PUSH2 0x445 PUSH2 0x3F1 JUMP JUMPDEST JUMPDEST DUP1 PUSH1 0x40 MSTORE POP POP POP JUMP JUMPDEST PUSH0 PUSH2 0x458 PUSH2 0x27E JUMP JUMPDEST SWAP1 POP PUSH2 0x464 DUP3 DUP3 PUSH2 0x41E JUMP JUMPDEST SWAP2 SWAP1 POP JUMP JUMPDEST PUSH0 DUP1 REVERT JUMPDEST PUSH0 DUP1 REVERT JUMPDEST PUSH0 DUP1 REVERT JUMPDEST PUSH0 PUSH8 0xFFFFFFFFFFFFFFFF DUP3 GT ISZERO PUSH2 0x48F JUMPI PUSH2 0x48E PUSH2 0x3F1 JUMP JUMPDEST JUMPDEST PUSH2 0x498 DUP3 PUSH2 0x315 JUMP JUMPDEST SWAP1 POP PUSH1 0x20 DUP2 ADD SWAP1 POP SWAP2 SWAP1 POP JUMP JUMPDEST DUP3 DUP2 DUP4 CALLDATACOPY PUSH0 DUP4 DUP4 ADD MSTORE POP POP POP JUMP JUMPDEST PUSH0 PUSH2 0x4C5 PUSH2 0x4C0 DUP5 PUSH2 0x475 JUMP JUMPDEST PUSH2 0x44F JUMP JUMPDEST SWAP1 POP DUP3 DUP2 MSTORE PUSH1 0x20 DUP2 ADD DUP5 DUP5 DUP5 ADD GT ISZERO PUSH2 0x4E1 JUMPI PUSH2 0x4E0 PUSH2 0x471 JUMP JUMPDEST JUMPDEST PUSH2 0x4EC DUP5 DUP3 DUP6 PUSH2 0x4A5 JUMP JUMPDEST POP SWAP4 SWAP3 POP POP POP JUMP JUMPDEST PUSH0 DUP3 PUSH1 0x1F DUP4 ADD SLT PUSH2 0x508 JUMPI PUSH2 0x507 PUSH2 0x46D JUMP JUMPDEST JUMPDEST DUP2 CALLDATALOAD PUSH2 0x518 DUP5 DUP3 PUSH1 0x20 DUP7 ADD PUSH2 0x4B3 JUMP JUMPDEST SWAP2 POP POP SWAP3 SWAP2 POP POP JUMP JUMPDEST PUSH0 PUSH1 0x60 DUP3 DUP5 SUB SLT ISZERO PUSH2 0x536 JUMPI PUSH2 0x535 PUSH2 0x3ED JUMP JUMPDEST JUMPDEST PUSH2 0x540 PUSH1 0x60 PUSH2 0x44F JUMP JUMPDEST SWAP1 POP PUSH0 DUP3 ADD CALLDATALOAD PUSH8 0xFFFFFFFFFFFFFFFF DUP2 GT ISZERO PUSH2 0x55F JUMPI PUSH2 0x55E PUSH2 0x469 JUMP JUMPDEST JUMPDEST PUSH2 0x56B DUP5 DUP3 DUP6 ADD PUSH2 0x4F4 JUMP JUMPDEST PUSH0 DUP4 ADD MSTORE POP PUSH1 0x20 DUP3 ADD CALLDATALOAD PUSH8 0xFFFFFFFFFFFFFFFF DUP2 GT ISZERO PUSH2 0x58E JUMPI PUSH2 0x58D PUSH2 0x469 JUMP JUMPDEST JUMPDEST PUSH2 0x59A DUP5 DUP3 DUP6 ADD PUSH2 0x4F4 JUMP JUMPDEST PUSH1 0x20 DUP4 ADD MSTORE POP PUSH1 0x40 PUSH2 0x5AE DUP5 DUP3 DUP6 ADD PUSH2 0x2AE JUMP JUMPDEST PUSH1 0x40 DUP4 ADD MSTORE POP SWAP3 SWAP2 POP POP JUMP JUMPDEST PUSH0 PUSH1 0x20 DUP3 DUP5 SUB SLT ISZERO PUSH2 0x5CF JUMPI PUSH2 0x5CE PUSH2 0x287 JUMP JUMPDEST JUMPDEST PUSH0 DUP3 ADD CALLDATALOAD PUSH8 0xFFFFFFFFFFFFFFFF DUP2 GT ISZERO PUSH2 0x5EC JUMPI PUSH2 0x5EB PUSH2 0x28B JUMP JUMPDEST JUMPDEST PUSH2 0x5F8 DUP5 DUP3 DUP6 ADD PUSH2 0x521 JUMP JUMPDEST SWAP2 POP POP SWAP3 SWAP2 POP POP JUMP JUMPDEST PUSH32 0x4E487B7100000000000000000000000000000000000000000000000000000000 PUSH0 MSTORE PUSH1 0x22 PUSH1 0x4 MSTORE PUSH1 0x24 PUSH0 REVERT JUMPDEST PUSH0 PUSH1 0x2 DUP3 DIV SWAP1 POP PUSH1 0x1 DUP3 AND DUP1 PUSH2 0x645 JUMPI PUSH1 0x7F DUP3 AND SWAP2 POP JUMPDEST PUSH1 0x20 DUP3 LT DUP2 SUB PUSH2 0x658 JUMPI PUSH2 0x657 PUSH2 0x601 JUMP JUMPDEST JUMPDEST POP SWAP2 SWAP1 POP JUMP JUMPDEST PUSH32 0x4E487B7100000000000000000000000000000000000000000000000000000000 PUSH0 MSTORE PUSH1 0x32 PUSH1 0x4 MSTORE PUSH1 0x24 PUSH0 REVERT JUMPDEST PUSH0 DUP2 SWAP1 POP DUP2 PUSH0 MSTORE PUSH1 0x20 PUSH0 KECCAK256 SWAP1 POP SWAP2 SWAP1 POP JUMP JUMPDEST PUSH0 PUSH1 0x20 PUSH1 0x1F DUP4 ADD DIV SWAP1 POP SWAP2 SWAP1 POP JUMP JUMPDEST PUSH0 DUP3 DUP3 SHL SWAP1 POP SWAP3 SWAP2 POP POP JUMP JUMPDEST PUSH0 PUSH1 0x8 DUP4 MUL PUSH2 0x6E7 PUSH32 0xFFFFFFFFFFFFFFFFFFFFFFFFFFFFFFFFFFFFFFFFFFFFFFFFFFFFFFFFFFFFFFFF DUP3 PUSH2 0x6AC JUMP JUMPDEST PUSH2 0x6F1 DUP7 DUP4 PUSH2 0x6AC JUMP JUMPDEST SWAP6 POP DUP1 NOT DUP5 AND SWAP4 POP DUP1 DUP7 AND DUP5 OR SWAP3 POP POP POP SWAP4 SWAP3 POP POP POP JUMP JUMPDEST PUSH0 DUP2 SWAP1 POP SWAP2 SWAP1 POP JUMP JUMPDEST PUSH0 PUSH2 0x72C PUSH2 0x727 PUSH2 0x722 DUP5 PUSH2 0x28F JUMP JUMPDEST PUSH2 0x709 JUMP JUMPDEST PUSH2 0x28F JUMP JUMPDEST SWAP1 POP SWAP2 SWAP1 POP JUMP JUMPDEST PUSH0 DUP2 SWAP1 POP SWAP2 SWAP1 POP JUMP JUMPDEST PUSH2 0x745 DUP4 PUSH2 0x712 JUMP JUMPDEST PUSH2 0x759 PUSH2 0x751 DUP3 PUSH2 0x733 JUMP JUMPDEST DUP5 DUP5 SLOAD PUSH2 0x6B8 JUMP JUMPDEST DUP3 SSTORE POP POP POP POP JUMP JUMPDEST PUSH0 SWAP1 JUMP JUMPDEST PUSH2 0x76D PUSH2 0x761 JUMP JUMPDEST PUSH2 0x778 DUP2 DUP5 DUP5 PUSH2 0x73C JUMP JUMPDEST POP POP POP JUMP JUMPDEST JUMPDEST DUP2 DUP2 LT ISZERO PUSH2 0x79B JUMPI PUSH2 0x790 PUSH0 DUP3 PUSH2 0x765 JUMP JUMPDEST PUSH1 0x1 DUP2 ADD SWAP1 POP PUSH2 0x77E JUMP JUMPDEST POP POP JUMP JUMPDEST PUSH1 0x1F DUP3 GT ISZERO PUSH2 0x7E0 JUMPI PUSH2 0x7B1 DUP2 PUSH2 0x68B JUMP JUMPDEST PUSH2 0x7BA DUP5 PUSH2 0x69D JUMP JUMPDEST DUP2 ADD PUSH1 0x20 DUP6 LT ISZERO PUSH2 0x7C9 JUMPI DUP2 SWAP1 POP JUMPDEST PUSH2 0x7DD PUSH2 0x7D5 DUP6 PUSH2 0x69D JUMP JUMPDEST DUP4 ADD DUP3 PUSH2 0x77D JUMP JUMPDEST POP POP JUMPDEST POP POP POP JUMP JUMPDEST PUSH0 DUP3 DUP3 SHR SWAP1 POP SWAP3 SWAP2 POP POP JUMP JUMPDEST PUSH0 PUSH2 0x800 PUSH0 NOT DUP5 PUSH1 0x8 MUL PUSH2 0x7E5 JUMP JUMPDEST NOT DUP1 DUP4 AND SWAP2 POP POP SWAP3 SWAP2 POP POP JUMP JUMPDEST PUSH0 PUSH2 0x818 DUP4 DUP4 PUSH2 0x7F1 JUMP JUMPDEST SWAP2 POP DUP3 PUSH1 0x2 MUL DUP3 OR SWAP1 POP SWAP3 SWAP2 POP POP JUMP JUMPDEST PUSH2 0x831 DUP3 PUSH2 0x2ED JUMP JUMPDEST PUSH8 0xFFFFFFFFFFFFFFFF DUP2 GT ISZERO PUSH2 0x84A JUMPI PUSH2 0x849 PUSH2 0x3F1 JUMP JUMPDEST JUMPDEST PUSH2 0x854 DUP3 SLOAD PUSH2 0x62E JUMP JUMPDEST PUSH2 0x85F DUP3 DUP3 DUP6 PUSH2 0x79F JUMP JUMPDEST PUSH0 PUSH1 0x20 SWAP1 POP PUSH1 0x1F DUP4 GT PUSH1 0x1 DUP2 EQ PUSH2 0x890 JUMPI PUSH0 DUP5 ISZERO PUSH2 0x87E JUMPI DUP3 DUP8 ADD MLOAD SWAP1 POP JUMPDEST PUSH2 0x888 DUP6 DUP3 PUSH2 0x80D JUMP JUMPDEST DUP7 SSTORE POP PUSH2 0x8EF JUMP JUMPDEST PUSH1 0x1F NOT DUP5 AND PUSH2 0x89E DUP7 PUSH2 0x68B JUMP JUMPDEST PUSH0 JUMPDEST DUP3 DUP2 LT ISZERO PUSH2 0x8C5 JUMPI DUP5 DUP10 ADD MLOAD DUP3 SSTORE PUSH1 0x1 DUP3 ADD SWAP2 POP PUSH1 0x20 DUP6 ADD SWAP5 POP PUSH1 0x20 DUP2 ADD SWAP1 POP PUSH2 0x8A0 JUMP JUMPDEST DUP7 DUP4 LT ISZERO PUSH2 0x8E2 JUMPI DUP5 DUP10 ADD MLOAD PUSH2 0x8DE PUSH1 0x1F DUP10 AND DUP3 PUSH2 0x7F1 JUMP JUMPDEST DUP4 SSTORE POP JUMPDEST PUSH1 0x1 PUSH1 0x2 DUP9 MUL ADD DUP9 SSTORE POP POP POP JUMPDEST POP POP POP POP POP POP JUMP INVALID LOG2 PUSH5 0x6970667358 0x22 SLT KECCAK256 SHL 0xD1 GT PREVRANDAO SAR DUP9 JUMPDEST ADDRESS 0xB7 EXTCODEHASH 0xB8 SLT SWAP10 0x23 0xB1 0xC6 0xD7 0xE7 0xE8 DELEGATECALL GASPRICE LOG4 0xB9 OR DUP6 0xD2 0xD6 SWAP16 CALLVALUE LOG4 0xAA 0xB8 PUSH5 0x736F6C6343 STOP ADDMOD NOT STOP CALLER "
				},
				"gasEstimates": {
					"creation": {
						"codeDepositCost": "469800",
						"executionCost": "503",
						"totalCost": "470303"
					},
					"external": {
						"addPerson((string,string,uint256))": "infinite",
						"modAge(uint256,uint256)": "infinite",
						"person(uint256)": "infinite"
					}
				},
				"methodIdentifiers": {
					"addPerson((string,string,uint256))": "dcea595a",
					"modAge(uint256,uint256)": "d55ce7b0",
					"person(uint256)": "092a1820"
				}
			},
			"storageLayout": {
				"storage": [
					{
						"astId": 12,
						"contract": "contracts/Persons.sol:Persons",
						"label": "person",
						"offset": 0,
						"slot": "0",
						"type": "t_array(t_struct(Persons)8_storage)dyn_storage"
					}
				],
				"types": {
					"t_array(t_struct(Persons)8_storage)dyn_storage": {
						"base": "t_struct(Persons)8_storage",
						"encoding": "dynamic_array",
						"label": "struct Persons.Persons[]",
						"numberOfBytes": "32"
					},
					"t_string_storage": {
						"encoding": "bytes",
						"label": "string",
						"numberOfBytes": "32"
					},
					"t_struct(Persons)8_storage": {
						"encoding": "inplace",
						"label": "struct Persons.Persons",
						"members": [
							{
								"astId": 3,
								"contract": "contracts/Persons.sol:Persons",
								"label": "firstName",
								"offset": 0,
								"slot": "0",
								"type": "t_string_storage"
							},
							{
								"astId": 5,
								"contract": "contracts/Persons.sol:Persons",
								"label": "lastName",
								"offset": 0,
								"slot": "1",
								"type": "t_string_storage"
							},
							{
								"astId": 7,
								"contract": "contracts/Persons.sol:Persons",
								"label": "age",
								"offset": 0,
								"slot": "2",
								"type": "t_uint256"
							}
						],
						"numberOfBytes": "96"
					},
					"t_uint256": {
						"encoding": "inplace",
						"label": "uint256",
						"numberOfBytes": "32"
					}
				}
			},
			"userdoc": {
				"kind": "user",
				"methods": {},
				"version": 1
			}
		}
	}
}