{
	"data": {
		"bytecode": {
			"linkReferences": {},
			"object": "6080604052348015600e575f80fd5b506101658061001c5f395ff3fe608060405234801561000f575f80fd5b506004361061004a575f3560e01c8063117ac77f1461004e5780632090a0a51461006c5780633fa4f2451461008a578063c4b349a0146100a8575b5f80fd5b6100566100b2565b6040516100639190610116565b60405180910390f35b6100746100e9565b6040516100819190610116565b60405180910390f35b6100926100f0565b60405161009f9190610116565b60405180910390f35b6100b06100f5565b005b5f80735b38da6a701c568545dcfcb03fcb875f56beddc490508073ffffffffffffffffffffffffffffffffffffffff163191505090565b5f47905090565b5f5481565b600a5f81905550565b5f819050919050565b610110816100fe565b82525050565b5f6020820190506101295f830184610107565b9291505056fea2646970667358221220de03d489afd63edb9b4f0700ec29d015b74685ef0a8b3df98993e16ff644ef1564736f6c63430008190033",
			"opcodes": "PUSH1 0x80 PUSH1 0x40 MSTORE CALLVALUE DUP1 ISZERO PUSH1 0xE JUMPI PUSH0 DUP1 REVERT JUMPDEST POP PUSH2 0x165 DUP1 PUSH2 0x1C PUSH0 CODECOPY PUSH0 RETURN INVALID PUSH1 0x80 PUSH1 0x40 MSTORE CALLVALUE DUP1 ISZERO PUSH2 0xF JUMPI PUSH0 DUP1 REVERT JUMPDEST POP PUSH1 0x4 CALLDATASIZE LT PUSH2 0x4A JUMPI PUSH0 CALLDATALOAD PUSH1 0xE0 SHR DUP1 PUSH4 0x117AC77F EQ PUSH2 0x4E JUMPI DUP1 PUSH4 0x2090A0A5 EQ PUSH2 0x6C JUMPI DUP1 PUSH4 0x3FA4F245 EQ PUSH2 0x8A JUMPI DUP1 PUSH4 0xC4B349A0 EQ PUSH2 0xA8 JUMPI JUMPDEST PUSH0 DUP1 REVERT JUMPDEST PUSH2 0x56 PUSH2 0xB2 JUMP JUMPDEST PUSH1 0x40 MLOAD PUSH2 0x63 SWAP2 SWAP1 PUSH2 0x116 JUMP JUMPDEST PUSH1 0x40 MLOAD DUP1 SWAP2 SUB SWAP1 RETURN JUMPDEST PUSH2 0x74 PUSH2 0xE9 JUMP JUMPDEST PUSH1 0x40 MLOAD PUSH2 0x81 SWAP2 SWAP1 PUSH2 0x116 JUMP JUMPDEST PUSH1 0x40 MLOAD DUP1 SWAP2 SUB SWAP1 RETURN JUMPDEST PUSH2 0x92 PUSH2 0xF0 JUMP JUMPDEST PUSH1 0x40 MLOAD PUSH2 0x9F SWAP2 SWAP1 PUSH2 0x116 JUMP JUMPDEST PUSH1 0x40 MLOAD DUP1 SWAP2 SUB SWAP1 RETURN JUMPDEST PUSH2 0xB0 PUSH2 0xF5 JUMP JUMPDEST STOP JUMPDEST PUSH0 DUP1 PUSH20 0x5B38DA6A701C568545DCFCB03FCB875F56BEDDC4 SWAP1 POP DUP1 PUSH20 0xFFFFFFFFFFFFFFFFFFFFFFFFFFFFFFFFFFFFFFFF AND BALANCE SWAP2 POP POP SWAP1 JUMP JUMPDEST PUSH0 SELFBALANCE SWAP1 POP SWAP1 JUMP JUMPDEST PUSH0 SLOAD DUP2 JUMP JUMPDEST PUSH1 0xA PUSH0 DUP2 SWAP1 SSTORE POP JUMP JUMPDEST PUSH0 DUP2 SWAP1 POP SWAP2 SWAP1 POP JUMP JUMPDEST PUSH2 0x110 DUP2 PUSH2 0xFE JUMP JUMPDEST DUP3 MSTORE POP POP JUMP JUMPDEST PUSH0 PUSH1 0x20 DUP3 ADD SWAP1 POP PUSH2 0x129 PUSH0 DUP4 ADD DUP5 PUSH2 0x107 JUMP JUMPDEST SWAP3 SWAP2 POP POP JUMP INVALID LOG2 PUSH5 0x6970667358 0x22 SLT KECCAK256 0xDE SUB 0xD4 DUP10 0xAF 0xD6 RETURNDATACOPY 0xDB SWAP12 0x4F SMOD STOP 0xEC 0x29 0xD0 ISZERO 0xB7 CHAINID DUP6 0xEF EXP DUP12 RETURNDATASIZE 0xF9 DUP10 SWAP4 0xE1 PUSH16 0xF644EF1564736F6C6343000819003300 "
		},
		"gasEstimates": {
			"creation": {
				"codeDepositCost": "71400",
				"executionCost": "121",
				"totalCost": "71521"
			},
			"external": {
				"alteraValue()": "22300",
				"pegaSaldo()": "2929",
				"pegaSaldoContrato()": "334",
				"value()": "2446"
			}
		},
		"methodIdentifiers": {
			"alteraValue()": "c4b349a0",
			"pegaSaldo()": "117ac77f",
			"pegaSaldoContrato()": "2090a0a5",
			"value()": "3fa4f245"
		}
	},
	"abi": [
		{
			"inputs": [],
			"name": "alteraValue",
			"outputs": [],
			"stateMutability": "nonpayable",
			"type": "function"
		},
		{
			"inputs": [],
			"name": "pegaSaldo",
			"outputs": [
				{
					"internalType": "uint256",
					"name": "",
					"type": "uint256"
				}
			],
			"stateMutability": "view",
			"type": "function"
		},
		{
			"inputs": [],
			"name": "pegaSaldoContrato",
			"outputs": [
				{
					"internalType": "uint256",
					"name": "",
					"type": "uint256"
				}
			],
			"stateMutability": "view",
			"type": "function"
		},
		{
			"inputs": [],
			"name": "value",
			"outputs": [
				{
					"internalType": "uint256",
					"name": "",
					"type": "uint256"
				}
			],
			"stateMutability": "view",
			"type": "function"
		}
	]
}