{
	"contracts/PegaVariavel.sol": {
		"PegaVariavel": {
			"abi": [
				{
					"inputs": [],
					"name": "pegaNumero",
					"outputs": [
						{
							"internalType": "int256",
							"name": "",
							"type": "int256"
						}
					],
					"stateMutability": "view",
					"type": "function"
				},
				{
					"inputs": [],
					"name": "result",
					"outputs": [
						{
							"internalType": "int256",
							"name": "",
							"type": "int256"
						}
					],
					"stateMutability": "view",
					"type": "function"
				}
			],
			"devdoc": {
				"kind": "dev",
				"methods": {},
				"version": 1
			},
			"evm": {
				"assembly": "    /* \"contracts/PegaVariavel.sol\":57:234  contract PegaVariavel {... */\n  mstore(0x40, 0x80)\n    /* \"contracts/PegaVariavel.sol\":108:110  10 */\n  0x0a\n    /* \"contracts/PegaVariavel.sol\":86:110  int internal numero = 10 */\n  0x00\n  sstore\n    /* \"contracts/PegaVariavel.sol\":230:231  2 */\n  0x02\n    /* \"contracts/PegaVariavel.sol\":221:227  numero */\n  sload(0x00)\n    /* \"contracts/PegaVariavel.sol\":221:231  numero * 2 */\n  tag_1\n  swap2\n  swap1\n  tag_2\n  jump\t// in\ntag_1:\n    /* \"contracts/PegaVariavel.sol\":201:231  int public result = numero * 2 */\n  0x01\n  sstore\n    /* \"contracts/PegaVariavel.sol\":57:234  contract PegaVariavel {... */\n  callvalue\n  dup1\n  iszero\n  tag_3\n  jumpi\n  0x00\n  dup1\n  revert\ntag_3:\n  pop\n  jump(tag_4)\n    /* \"#utility.yul\":7:83   */\ntag_5:\n    /* \"#utility.yul\":43:50   */\n  0x00\n    /* \"#utility.yul\":72:77   */\n  dup2\n    /* \"#utility.yul\":61:77   */\n  swap1\n  pop\n    /* \"#utility.yul\":7:83   */\n  swap2\n  swap1\n  pop\n  jump\t// out\n    /* \"#utility.yul\":89:269   */\ntag_6:\n    /* \"#utility.yul\":137:214   */\n  0x4e487b7100000000000000000000000000000000000000000000000000000000\n    /* \"#utility.yul\":134:135   */\n  0x00\n    /* \"#utility.yul\":127:215   */\n  mstore\n    /* \"#utility.yul\":234:238   */\n  0x11\n    /* \"#utility.yul\":231:232   */\n  0x04\n    /* \"#utility.yul\":224:239   */\n  mstore\n    /* \"#utility.yul\":258:262   */\n  0x24\n    /* \"#utility.yul\":255:256   */\n  0x00\n    /* \"#utility.yul\":248:263   */\n  revert\n    /* \"#utility.yul\":275:831   */\ntag_2:\n    /* \"#utility.yul\":314:321   */\n  0x00\n    /* \"#utility.yul\":337:356   */\n  tag_11\n    /* \"#utility.yul\":354:355   */\n  dup3\n    /* \"#utility.yul\":337:356   */\n  tag_5\n  jump\t// in\ntag_11:\n    /* \"#utility.yul\":332:356   */\n  swap2\n  pop\n    /* \"#utility.yul\":370:389   */\n  tag_12\n    /* \"#utility.yul\":387:388   */\n  dup4\n    /* \"#utility.yul\":370:389   */\n  tag_5\n  jump\t// in\ntag_12:\n    /* \"#utility.yul\":365:389   */\n  swap3\n  pop\n    /* \"#utility.yul\":424:425   */\n  dup3\n    /* \"#utility.yul\":421:422   */\n  dup3\n    /* \"#utility.yul\":417:426   */\n  mul\n    /* \"#utility.yul\":446:475   */\n  tag_13\n    /* \"#utility.yul\":463:474   */\n  dup2\n    /* \"#utility.yul\":446:475   */\n  tag_5\n  jump\t// in\ntag_13:\n    /* \"#utility.yul\":435:475   */\n  swap2\n  pop\n    /* \"#utility.yul\":533:599   */\n  0x8000000000000000000000000000000000000000000000000000000000000000\n    /* \"#utility.yul\":530:531   */\n  dup5\n    /* \"#utility.yul\":527:600   */\n  eq\n    /* \"#utility.yul\":523:524   */\n  0x00\n    /* \"#utility.yul\":520:521   */\n  dup5\n    /* \"#utility.yul\":516:525   */\n  slt\n    /* \"#utility.yul\":512:601   */\n  and\n    /* \"#utility.yul\":509:624   */\n  iszero\n  tag_14\n  jumpi\n    /* \"#utility.yul\":604:622   */\n  tag_15\n  tag_6\n  jump\t// in\ntag_15:\n    /* \"#utility.yul\":509:624   */\ntag_14:\n    /* \"#utility.yul\":774:775   */\n  dup3\n    /* \"#utility.yul\":765:772   */\n  dup3\n    /* \"#utility.yul\":760:776   */\n  sdiv\n    /* \"#utility.yul\":757:758   */\n  dup5\n    /* \"#utility.yul\":754:777   */\n  eq\n    /* \"#utility.yul\":734:735   */\n  dup4\n    /* \"#utility.yul\":727:736   */\n  iszero\n    /* \"#utility.yul\":707:791   */\n  or\n    /* \"#utility.yul\":684:824   */\n  tag_16\n  jumpi\n    /* \"#utility.yul\":804:822   */\n  tag_17\n  tag_6\n  jump\t// in\ntag_17:\n    /* \"#utility.yul\":684:824   */\ntag_16:\n    /* \"#utility.yul\":322:831   */\n  pop\n    /* \"#utility.yul\":275:831   */\n  swap3\n  swap2\n  pop\n  pop\n  jump\t// out\n    /* \"contracts/PegaVariavel.sol\":57:234  contract PegaVariavel {... */\ntag_4:\n  dataSize(sub_0)\n  dup1\n  dataOffset(sub_0)\n  0x00\n  codecopy\n  0x00\n  return\nstop\n\nsub_0: assembly {\n        /* \"contracts/PegaVariavel.sol\":57:234  contract PegaVariavel {... */\n      mstore(0x40, 0x80)\n      callvalue\n      dup1\n      iszero\n      tag_1\n      jumpi\n      0x00\n      dup1\n      revert\n    tag_1:\n      pop\n      jumpi(tag_2, lt(calldatasize, 0x04))\n      shr(0xe0, calldataload(0x00))\n      dup1\n      0x48f1f7d4\n      eq\n      tag_3\n      jumpi\n      dup1\n      0x65372147\n      eq\n      tag_4\n      jumpi\n    tag_2:\n      0x00\n      dup1\n      revert\n        /* \"contracts/PegaVariavel.sol\":117:195  function pegaNumero() public view returns (int) {... */\n    tag_3:\n      tag_5\n      tag_6\n      jump\t// in\n    tag_5:\n      mload(0x40)\n      tag_7\n      swap2\n      swap1\n      tag_8\n      jump\t// in\n    tag_7:\n      mload(0x40)\n      dup1\n      swap2\n      sub\n      swap1\n      return\n        /* \"contracts/PegaVariavel.sol\":201:231  int public result = numero * 2 */\n    tag_4:\n      tag_9\n      tag_10\n      jump\t// in\n    tag_9:\n      mload(0x40)\n      tag_11\n      swap2\n      swap1\n      tag_8\n      jump\t// in\n    tag_11:\n      mload(0x40)\n      dup1\n      swap2\n      sub\n      swap1\n      return\n        /* \"contracts/PegaVariavel.sol\":117:195  function pegaNumero() public view returns (int) {... */\n    tag_6:\n        /* \"contracts/PegaVariavel.sol\":160:163  int */\n      0x00\n        /* \"contracts/PegaVariavel.sol\":182:188  numero */\n      dup1\n      sload\n        /* \"contracts/PegaVariavel.sol\":175:188  return numero */\n      swap1\n      pop\n        /* \"contracts/PegaVariavel.sol\":117:195  function pegaNumero() public view returns (int) {... */\n      swap1\n      jump\t// out\n        /* \"contracts/PegaVariavel.sol\":201:231  int public result = numero * 2 */\n    tag_10:\n      sload(0x01)\n      dup2\n      jump\t// out\n        /* \"#utility.yul\":7:83   */\n    tag_13:\n        /* \"#utility.yul\":43:50   */\n      0x00\n        /* \"#utility.yul\":72:77   */\n      dup2\n        /* \"#utility.yul\":61:77   */\n      swap1\n      pop\n        /* \"#utility.yul\":7:83   */\n      swap2\n      swap1\n      pop\n      jump\t// out\n        /* \"#utility.yul\":89:204   */\n    tag_14:\n        /* \"#utility.yul\":174:197   */\n      tag_18\n        /* \"#utility.yul\":191:196   */\n      dup2\n        /* \"#utility.yul\":174:197   */\n      tag_13\n      jump\t// in\n    tag_18:\n        /* \"#utility.yul\":169:172   */\n      dup3\n        /* \"#utility.yul\":162:198   */\n      mstore\n        /* \"#utility.yul\":89:204   */\n      pop\n      pop\n      jump\t// out\n        /* \"#utility.yul\":210:428   */\n    tag_8:\n        /* \"#utility.yul\":301:305   */\n      0x00\n        /* \"#utility.yul\":339:341   */\n      0x20\n        /* \"#utility.yul\":328:337   */\n      dup3\n        /* \"#utility.yul\":324:342   */\n      add\n        /* \"#utility.yul\":316:342   */\n      swap1\n      pop\n        /* \"#utility.yul\":352:421   */\n      tag_20\n        /* \"#utility.yul\":418:419   */\n      0x00\n        /* \"#utility.yul\":407:416   */\n      dup4\n        /* \"#utility.yul\":403:420   */\n      add\n        /* \"#utility.yul\":394:400   */\n      dup5\n        /* \"#utility.yul\":352:421   */\n      tag_14\n      jump\t// in\n    tag_20:\n        /* \"#utility.yul\":210:428   */\n      swap3\n      swap2\n      pop\n      pop\n      jump\t// out\n\n    auxdata: 0xa26469706673582212202bb2b38c7f52453f82e6f03799d4d1ec9a9b80470947c377458f8236e49f630464736f6c63430008190033\n}\n",
				"bytecode": {
					"linkReferences": {},
					"object": "6080604052600a5f5560025f5460149190605c565b6001553480156021575f80fd5b5060c6565b5f819050919050565b7f4e487b71000000000000000000000000000000000000000000000000000000005f52601160045260245ffd5b5f6064826026565b9150606d836026565b92508282026079816026565b91507f800000000000000000000000000000000000000000000000000000000000000084145f8412161560ad5760ac602f565b5b828205841483151760bf5760be602f565b5b5092915050565b60d9806100d25f395ff3fe6080604052348015600e575f80fd5b50600436106030575f3560e01c806348f1f7d41460345780636537214714604e575b5f80fd5b603a6068565b60405160459190608c565b60405180910390f35b60546070565b604051605f9190608c565b60405180910390f35b5f8054905090565b60015481565b5f819050919050565b6086816076565b82525050565b5f602082019050609d5f830184607f565b9291505056fea26469706673582212202bb2b38c7f52453f82e6f03799d4d1ec9a9b80470947c377458f8236e49f630464736f6c63430008190033",
					"opcodes": "PUSH1 0x80 PUSH1 0x40 MSTORE PUSH1 0xA PUSH0 SSTORE PUSH1 0x2 PUSH0 SLOAD PUSH1 0x14 SWAP2 SWAP1 PUSH1 0x5C JUMP JUMPDEST PUSH1 0x1 SSTORE CALLVALUE DUP1 ISZERO PUSH1 0x21 JUMPI PUSH0 DUP1 REVERT JUMPDEST POP PUSH1 0xC6 JUMP JUMPDEST PUSH0 DUP2 SWAP1 POP SWAP2 SWAP1 POP JUMP JUMPDEST PUSH32 0x4E487B7100000000000000000000000000000000000000000000000000000000 PUSH0 MSTORE PUSH1 0x11 PUSH1 0x4 MSTORE PUSH1 0x24 PUSH0 REVERT JUMPDEST PUSH0 PUSH1 0x64 DUP3 PUSH1 0x26 JUMP JUMPDEST SWAP2 POP PUSH1 0x6D DUP4 PUSH1 0x26 JUMP JUMPDEST SWAP3 POP DUP3 DUP3 MUL PUSH1 0x79 DUP2 PUSH1 0x26 JUMP JUMPDEST SWAP2 POP PUSH32 0x8000000000000000000000000000000000000000000000000000000000000000 DUP5 EQ PUSH0 DUP5 SLT AND ISZERO PUSH1 0xAD JUMPI PUSH1 0xAC PUSH1 0x2F JUMP JUMPDEST JUMPDEST DUP3 DUP3 SDIV DUP5 EQ DUP4 ISZERO OR PUSH1 0xBF JUMPI PUSH1 0xBE PUSH1 0x2F JUMP JUMPDEST JUMPDEST POP SWAP3 SWAP2 POP POP JUMP JUMPDEST PUSH1 0xD9 DUP1 PUSH2 0xD2 PUSH0 CODECOPY PUSH0 RETURN INVALID PUSH1 0x80 PUSH1 0x40 MSTORE CALLVALUE DUP1 ISZERO PUSH1 0xE JUMPI PUSH0 DUP1 REVERT JUMPDEST POP PUSH1 0x4 CALLDATASIZE LT PUSH1 0x30 JUMPI PUSH0 CALLDATALOAD PUSH1 0xE0 SHR DUP1 PUSH4 0x48F1F7D4 EQ PUSH1 0x34 JUMPI DUP1 PUSH4 0x65372147 EQ PUSH1 0x4E JUMPI JUMPDEST PUSH0 DUP1 REVERT JUMPDEST PUSH1 0x3A PUSH1 0x68 JUMP JUMPDEST PUSH1 0x40 MLOAD PUSH1 0x45 SWAP2 SWAP1 PUSH1 0x8C JUMP JUMPDEST PUSH1 0x40 MLOAD DUP1 SWAP2 SUB SWAP1 RETURN JUMPDEST PUSH1 0x54 PUSH1 0x70 JUMP JUMPDEST PUSH1 0x40 MLOAD PUSH1 0x5F SWAP2 SWAP1 PUSH1 0x8C JUMP JUMPDEST PUSH1 0x40 MLOAD DUP1 SWAP2 SUB SWAP1 RETURN JUMPDEST PUSH0 DUP1 SLOAD SWAP1 POP SWAP1 JUMP JUMPDEST PUSH1 0x1 SLOAD DUP2 JUMP JUMPDEST PUSH0 DUP2 SWAP1 POP SWAP2 SWAP1 POP JUMP JUMPDEST PUSH1 0x86 DUP2 PUSH1 0x76 JUMP JUMPDEST DUP3 MSTORE POP POP JUMP JUMPDEST PUSH0 PUSH1 0x20 DUP3 ADD SWAP1 POP PUSH1 0x9D PUSH0 DUP4 ADD DUP5 PUSH1 0x7F JUMP JUMPDEST SWAP3 SWAP2 POP POP JUMP INVALID LOG2 PUSH5 0x6970667358 0x22 SLT KECCAK256 0x2B 0xB2 0xB3 DUP13 PUSH32 0x52453F82E6F03799D4D1EC9A9B80470947C377458F8236E49F630464736F6C63 NUMBER STOP ADDMOD NOT STOP CALLER "
				},
				"gasEstimates": {
					"creation": {
						"codeDepositCost": "43400",
						"executionCost": "infinite",
						"totalCost": "infinite"
					},
					"external": {
						"pegaNumero()": "2410",
						"result()": "2425"
					}
				},
				"methodIdentifiers": {
					"pegaNumero()": "48f1f7d4",
					"result()": "65372147"
				}
			},
			"storageLayout": {
				"storage": [
					{
						"astId": 4,
						"contract": "contracts/PegaVariavel.sol:PegaVariavel",
						"label": "numero",
						"offset": 0,
						"slot": "0",
						"type": "t_int256"
					},
					{
						"astId": 17,
						"contract": "contracts/PegaVariavel.sol:PegaVariavel",
						"label": "result",
						"offset": 0,
						"slot": "1",
						"type": "t_int256"
					}
				],
				"types": {
					"t_int256": {
						"encoding": "inplace",
						"label": "int256",
						"numberOfBytes": "32"
					}
				}
			},
			"userdoc": {
				"kind": "user",
				"methods": {},
				"version": 1
			}
		}
	}
}