{
	"data": {
		"bytecode": {
			"linkReferences": {
				"contracts/bibliotecas/Contador.sol": {
					"UintSoma": [
						{
							"length": 20,
							"start": 203
						},
						{
							"length": 20,
							"start": 323
						}
					]
				}
			},
			"object": "6080604052348015600e575f80fd5b506103de8061001c5f395ff3fe608060405234801561000f575f80fd5b5060043610610034575f3560e01c8063abeb6d3b14610038578063d5afdc8614610068575b5f80fd5b610052600480360381019061004d91906101f4565b610099565b60405161005f919061022e565b60405180910390f35b610082600480360381019061007d9190610247565b6100aa565b604051610090929190610285565b60405180910390f35b5f6100a3826101a9565b9050919050565b5f808373__$257e949abd13ec422566b912743c9eb031$__63a7ccdfef90916040518263ffffffff1660e01b81526004016100e591906102bb565b602060405180830381865af4158015610100573d5f803e3d5ffd5b505050506040513d601f19601f8201168201806040525081019061012491906102e8565b8473__$257e949abd13ec422566b912743c9eb031$__6315c506639091866040518363ffffffff1660e01b815260040161015f929190610313565b602060405180830381865af415801561017a573d5f803e3d5ffd5b505050506040513d601f19601f8201168201806040525081019061019e91906102e8565b915091509250929050565b5f81826101b69190610367565b9050919050565b5f80fd5b5f819050919050565b6101d3816101c1565b81146101dd575f80fd5b50565b5f813590506101ee816101ca565b92915050565b5f60208284031215610209576102086101bd565b5b5f610216848285016101e0565b91505092915050565b610228816101c1565b82525050565b5f6020820190506102415f83018461021f565b92915050565b5f806040838503121561025d5761025c6101bd565b5b5f61026a858286016101e0565b925050602061027b858286016101e0565b9150509250929050565b5f6040820190506102985f83018561021f565b6102a5602083018461021f565b9392505050565b6102b5816101c1565b82525050565b5f6020820190506102ce5f8301846102ac565b92915050565b5f815190506102e2816101ca565b92915050565b5f602082840312156102fd576102fc6101bd565b5b5f61030a848285016102d4565b91505092915050565b5f6040820190506103265f8301856102ac565b61033360208301846102ac565b9392505050565b7f4e487b71000000000000000000000000000000000000000000000000000000005f52601160045260245ffd5b5f610371826101c1565b915061037c836101c1565b925082820261038a816101c1565b915082820484148315176103a1576103a061033a565b5b509291505056fea26469706673582212200be6a635c9648d51b964f1874c04b12b7eeb20bad7f638f401c267669054923e64736f6c63430008190033",
			"opcodes": "PUSH1 0x80 PUSH1 0x40 MSTORE CALLVALUE DUP1 ISZERO PUSH1 0xE JUMPI PUSH0 DUP1 REVERT JUMPDEST POP PUSH2 0x3DE DUP1 PUSH2 0x1C PUSH0 CODECOPY PUSH0 RETURN INVALID PUSH1 0x80 PUSH1 0x40 MSTORE CALLVALUE DUP1 ISZERO PUSH2 0xF JUMPI PUSH0 DUP1 REVERT JUMPDEST POP PUSH1 0x4 CALLDATASIZE LT PUSH2 0x34 JUMPI PUSH0 CALLDATALOAD PUSH1 0xE0 SHR DUP1 PUSH4 0xABEB6D3B EQ PUSH2 0x38 JUMPI DUP1 PUSH4 0xD5AFDC86 EQ PUSH2 0x68 JUMPI JUMPDEST PUSH0 DUP1 REVERT JUMPDEST PUSH2 0x52 PUSH1 0x4 DUP1 CALLDATASIZE SUB DUP2 ADD SWAP1 PUSH2 0x4D SWAP2 SWAP1 PUSH2 0x1F4 JUMP JUMPDEST PUSH2 0x99 JUMP JUMPDEST PUSH1 0x40 MLOAD PUSH2 0x5F SWAP2 SWAP1 PUSH2 0x22E JUMP JUMPDEST PUSH1 0x40 MLOAD DUP1 SWAP2 SUB SWAP1 RETURN JUMPDEST PUSH2 0x82 PUSH1 0x4 DUP1 CALLDATASIZE SUB DUP2 ADD SWAP1 PUSH2 0x7D SWAP2 SWAP1 PUSH2 0x247 JUMP JUMPDEST PUSH2 0xAA JUMP JUMPDEST PUSH1 0x40 MLOAD PUSH2 0x90 SWAP3 SWAP2 SWAP1 PUSH2 0x285 JUMP JUMPDEST PUSH1 0x40 MLOAD DUP1 SWAP2 SUB SWAP1 RETURN JUMPDEST PUSH0 PUSH2 0xA3 DUP3 PUSH2 0x1A9 JUMP JUMPDEST SWAP1 POP SWAP2 SWAP1 POP JUMP JUMPDEST PUSH0 DUP1 DUP4 PUSH20 0x0 PUSH4 0xA7CCDFEF SWAP1 SWAP2 PUSH1 0x40 MLOAD DUP3 PUSH4 0xFFFFFFFF AND PUSH1 0xE0 SHL DUP2 MSTORE PUSH1 0x4 ADD PUSH2 0xE5 SWAP2 SWAP1 PUSH2 0x2BB JUMP JUMPDEST PUSH1 0x20 PUSH1 0x40 MLOAD DUP1 DUP4 SUB DUP2 DUP7 GAS DELEGATECALL ISZERO DUP1 ISZERO PUSH2 0x100 JUMPI RETURNDATASIZE PUSH0 DUP1 RETURNDATACOPY RETURNDATASIZE PUSH0 REVERT JUMPDEST POP POP POP POP PUSH1 0x40 MLOAD RETURNDATASIZE PUSH1 0x1F NOT PUSH1 0x1F DUP3 ADD AND DUP3 ADD DUP1 PUSH1 0x40 MSTORE POP DUP2 ADD SWAP1 PUSH2 0x124 SWAP2 SWAP1 PUSH2 0x2E8 JUMP JUMPDEST DUP5 PUSH20 0x0 PUSH4 0x15C50663 SWAP1 SWAP2 DUP7 PUSH1 0x40 MLOAD DUP4 PUSH4 0xFFFFFFFF AND PUSH1 0xE0 SHL DUP2 MSTORE PUSH1 0x4 ADD PUSH2 0x15F SWAP3 SWAP2 SWAP1 PUSH2 0x313 JUMP JUMPDEST PUSH1 0x20 PUSH1 0x40 MLOAD DUP1 DUP4 SUB DUP2 DUP7 GAS DELEGATECALL ISZERO DUP1 ISZERO PUSH2 0x17A JUMPI RETURNDATASIZE PUSH0 DUP1 RETURNDATACOPY RETURNDATASIZE PUSH0 REVERT JUMPDEST POP POP POP POP PUSH1 0x40 MLOAD RETURNDATASIZE PUSH1 0x1F NOT PUSH1 0x1F DUP3 ADD AND DUP3 ADD DUP1 PUSH1 0x40 MSTORE POP DUP2 ADD SWAP1 PUSH2 0x19E SWAP2 SWAP1 PUSH2 0x2E8 JUMP JUMPDEST SWAP2 POP SWAP2 POP SWAP3 POP SWAP3 SWAP1 POP JUMP JUMPDEST PUSH0 DUP2 DUP3 PUSH2 0x1B6 SWAP2 SWAP1 PUSH2 0x367 JUMP JUMPDEST SWAP1 POP SWAP2 SWAP1 POP JUMP JUMPDEST PUSH0 DUP1 REVERT JUMPDEST PUSH0 DUP2 SWAP1 POP SWAP2 SWAP1 POP JUMP JUMPDEST PUSH2 0x1D3 DUP2 PUSH2 0x1C1 JUMP JUMPDEST DUP2 EQ PUSH2 0x1DD JUMPI PUSH0 DUP1 REVERT JUMPDEST POP JUMP JUMPDEST PUSH0 DUP2 CALLDATALOAD SWAP1 POP PUSH2 0x1EE DUP2 PUSH2 0x1CA JUMP JUMPDEST SWAP3 SWAP2 POP POP JUMP JUMPDEST PUSH0 PUSH1 0x20 DUP3 DUP5 SUB SLT ISZERO PUSH2 0x209 JUMPI PUSH2 0x208 PUSH2 0x1BD JUMP JUMPDEST JUMPDEST PUSH0 PUSH2 0x216 DUP5 DUP3 DUP6 ADD PUSH2 0x1E0 JUMP JUMPDEST SWAP2 POP POP SWAP3 SWAP2 POP POP JUMP JUMPDEST PUSH2 0x228 DUP2 PUSH2 0x1C1 JUMP JUMPDEST DUP3 MSTORE POP POP JUMP JUMPDEST PUSH0 PUSH1 0x20 DUP3 ADD SWAP1 POP PUSH2 0x241 PUSH0 DUP4 ADD DUP5 PUSH2 0x21F JUMP JUMPDEST SWAP3 SWAP2 POP POP JUMP JUMPDEST PUSH0 DUP1 PUSH1 0x40 DUP4 DUP6 SUB SLT ISZERO PUSH2 0x25D JUMPI PUSH2 0x25C PUSH2 0x1BD JUMP JUMPDEST JUMPDEST PUSH0 PUSH2 0x26A DUP6 DUP3 DUP7 ADD PUSH2 0x1E0 JUMP JUMPDEST SWAP3 POP POP PUSH1 0x20 PUSH2 0x27B DUP6 DUP3 DUP7 ADD PUSH2 0x1E0 JUMP JUMPDEST SWAP2 POP POP SWAP3 POP SWAP3 SWAP1 POP JUMP JUMPDEST PUSH0 PUSH1 0x40 DUP3 ADD SWAP1 POP PUSH2 0x298 PUSH0 DUP4 ADD DUP6 PUSH2 0x21F JUMP JUMPDEST PUSH2 0x2A5 PUSH1 0x20 DUP4 ADD DUP5 PUSH2 0x21F JUMP JUMPDEST SWAP4 SWAP3 POP POP POP JUMP JUMPDEST PUSH2 0x2B5 DUP2 PUSH2 0x1C1 JUMP JUMPDEST DUP3 MSTORE POP POP JUMP JUMPDEST PUSH0 PUSH1 0x20 DUP3 ADD SWAP1 POP PUSH2 0x2CE PUSH0 DUP4 ADD DUP5 PUSH2 0x2AC JUMP JUMPDEST SWAP3 SWAP2 POP POP JUMP JUMPDEST PUSH0 DUP2 MLOAD SWAP1 POP PUSH2 0x2E2 DUP2 PUSH2 0x1CA JUMP JUMPDEST SWAP3 SWAP2 POP POP JUMP JUMPDEST PUSH0 PUSH1 0x20 DUP3 DUP5 SUB SLT ISZERO PUSH2 0x2FD JUMPI PUSH2 0x2FC PUSH2 0x1BD JUMP JUMPDEST JUMPDEST PUSH0 PUSH2 0x30A DUP5 DUP3 DUP6 ADD PUSH2 0x2D4 JUMP JUMPDEST SWAP2 POP POP SWAP3 SWAP2 POP POP JUMP JUMPDEST PUSH0 PUSH1 0x40 DUP3 ADD SWAP1 POP PUSH2 0x326 PUSH0 DUP4 ADD DUP6 PUSH2 0x2AC JUMP JUMPDEST PUSH2 0x333 PUSH1 0x20 DUP4 ADD DUP5 PUSH2 0x2AC JUMP JUMPDEST SWAP4 SWAP3 POP POP POP JUMP JUMPDEST PUSH32 0x4E487B7100000000000000000000000000000000000000000000000000000000 PUSH0 MSTORE PUSH1 0x11 PUSH1 0x4 MSTORE PUSH1 0x24 PUSH0 REVERT JUMPDEST PUSH0 PUSH2 0x371 DUP3 PUSH2 0x1C1 JUMP JUMPDEST SWAP2 POP PUSH2 0x37C DUP4 PUSH2 0x1C1 JUMP JUMPDEST SWAP3 POP DUP3 DUP3 MUL PUSH2 0x38A DUP2 PUSH2 0x1C1 JUMP JUMPDEST SWAP2 POP DUP3 DUP3 DIV DUP5 EQ DUP4 ISZERO OR PUSH2 0x3A1 JUMPI PUSH2 0x3A0 PUSH2 0x33A JUMP JUMPDEST JUMPDEST POP SWAP3 SWAP2 POP POP JUMP INVALID LOG2 PUSH5 0x6970667358 0x22 SLT KECCAK256 SIGNEXTEND 0xE6 0xA6 CALLDATALOAD 0xC9 PUSH5 0x8D51B964F1 DUP8 0x4C DIV 0xB1 0x2B PUSH31 0xEB20BAD7F638F401C267669054923E64736F6C634300081900330000000000 "
		},
		"gasEstimates": {
			"creation": {
				"codeDepositCost": "198000",
				"executionCost": "236",
				"totalCost": "198236"
			},
			"external": {
				"resolveContador(uint256)": "infinite",
				"usaUintSoma(uint256,uint256)": "infinite"
			}
		},
		"methodIdentifiers": {
			"resolveContador(uint256)": "abeb6d3b",
			"usaUintSoma(uint256,uint256)": "d5afdc86"
		}
	},
	"abi": [
		{
			"inputs": [
				{
					"internalType": "uint256",
					"name": "_x",
					"type": "uint256"
				}
			],
			"name": "resolveContador",
			"outputs": [
				{
					"internalType": "uint256",
					"name": "",
					"type": "uint256"
				}
			],
			"stateMutability": "nonpayable",
			"type": "function"
		},
		{
			"inputs": [
				{
					"internalType": "uint256",
					"name": "_x",
					"type": "uint256"
				},
				{
					"internalType": "uint256",
					"name": "_y",
					"type": "uint256"
				}
			],
			"name": "usaUintSoma",
			"outputs": [
				{
					"internalType": "uint256",
					"name": "",
					"type": "uint256"
				},
				{
					"internalType": "uint256",
					"name": "",
					"type": "uint256"
				}
			],
			"stateMutability": "nonpayable",
			"type": "function"
		}
	]
}