{
	"data": {
		"bytecode": {
			"linkReferences": {},
			"object": "6080604052348015600e575f80fd5b50609380601a5f395ff3fe6080604052348015600e575f80fd5b50600436106026575f3560e01c8063442ce25f14602a575b5f80fd5b60306032565b005b5f6040518060800160405280600181526020016002815260200160038152602001600481525090505056fea2646970667358221220e2d12d4756eb2f6f986e2a1e40d13de433515813fea14b654f61f19b79f5bc3964736f6c63430008190033",
			"opcodes": "PUSH1 0x80 PUSH1 0x40 MSTORE CALLVALUE DUP1 ISZERO PUSH1 0xE JUMPI PUSH0 DUP1 REVERT JUMPDEST POP PUSH1 0x93 DUP1 PUSH1 0x1A PUSH0 CODECOPY PUSH0 RETURN INVALID PUSH1 0x80 PUSH1 0x40 MSTORE CALLVALUE DUP1 ISZERO PUSH1 0xE JUMPI PUSH0 DUP1 REVERT JUMPDEST POP PUSH1 0x4 CALLDATASIZE LT PUSH1 0x26 JUMPI PUSH0 CALLDATALOAD PUSH1 0xE0 SHR DUP1 PUSH4 0x442CE25F EQ PUSH1 0x2A JUMPI JUMPDEST PUSH0 DUP1 REVERT JUMPDEST PUSH1 0x30 PUSH1 0x32 JUMP JUMPDEST STOP JUMPDEST PUSH0 PUSH1 0x40 MLOAD DUP1 PUSH1 0x80 ADD PUSH1 0x40 MSTORE DUP1 PUSH1 0x1 DUP2 MSTORE PUSH1 0x20 ADD PUSH1 0x2 DUP2 MSTORE PUSH1 0x20 ADD PUSH1 0x3 DUP2 MSTORE PUSH1 0x20 ADD PUSH1 0x4 DUP2 MSTORE POP SWAP1 POP POP JUMP INVALID LOG2 PUSH5 0x6970667358 0x22 SLT KECCAK256 0xE2 0xD1 0x2D SELFBALANCE JUMP 0xEB 0x2F PUSH16 0x986E2A1E40D13DE433515813FEA14B65 0x4F PUSH2 0xF19B PUSH26 0xF5BC3964736F6C63430008190033000000000000000000000000 "
		},
		"gasEstimates": {
			"creation": {
				"codeDepositCost": "29400",
				"executionCost": "79",
				"totalCost": "29479"
			},
			"external": {
				"converte()": "225"
			}
		},
		"methodIdentifiers": {
			"converte()": "442ce25f"
		}
	},
	"abi": [
		{
			"inputs": [],
			"name": "converte",
			"outputs": [],
			"stateMutability": "pure",
			"type": "function"
		}
	]
}