{
	"data": {
		"bytecode": {
			"linkReferences": {},
			"object": "6080604052600a5f553480156012575f80fd5b50610366806100205f395ff3fe608060405234801561000f575f80fd5b506004361061004a575f3560e01c806313a814a91461004e5780631a85862d1461006a57806320eb8e5314610086578063ce6962be146100a4575b5f80fd5b610068600480360381019061006391906101d6565b6100c0565b005b610084600480360381019061007f91906101d6565b610107565b005b61008e610153565b60405161009b9190610210565b60405180910390f35b6100be60048036038101906100b991906101d6565b610158565b005b5f54811115610104576040517f08c379a00000000000000000000000000000000000000000000000000000000081526004016100fb90610283565b60405180910390fd5b50565b5f54811115610150575f54816040517fabe5c32f0000000000000000000000000000000000000000000000000000000081526004016101479291906102a1565b60405180910390fd5b50565b5f5481565b5f5481111561019c576040517f08c379a000000000000000000000000000000000000000000000000000000000815260040161019390610312565b60405180910390fd5b50565b5f80fd5b5f819050919050565b6101b5816101a3565b81146101bf575f80fd5b50565b5f813590506101d0816101ac565b92915050565b5f602082840312156101eb576101ea61019f565b5b5f6101f8848285016101c2565b91505092915050565b61020a816101a3565b82525050565b5f6020820190506102235f830184610201565b92915050565b5f82825260208201905092915050565b7f4f2076616c6f72206e616f206573746120636f6d6f2072657175657269646f005f82015250565b5f61026d601f83610229565b915061027882610239565b602082019050919050565b5f6020820190508181035f83015261029a81610261565b9050919050565b5f6040820190506102b45f830185610201565b6102c16020830184610201565b9392505050565b7f4f2076616c6f72206e616f2065737461206e6f7320706172616d6574726f73005f82015250565b5f6102fc601f83610229565b9150610307826102c8565b602082019050919050565b5f6020820190508181035f830152610329816102f0565b905091905056fea2646970667358221220eb3c561f525e096a3a2a52f5cce376bb99cf8d9d88b636d3afe06ff7812b921764736f6c63430008190033",
			"opcodes": "PUSH1 0x80 PUSH1 0x40 MSTORE PUSH1 0xA PUSH0 SSTORE CALLVALUE DUP1 ISZERO PUSH1 0x12 JUMPI PUSH0 DUP1 REVERT JUMPDEST POP PUSH2 0x366 DUP1 PUSH2 0x20 PUSH0 CODECOPY PUSH0 RETURN INVALID PUSH1 0x80 PUSH1 0x40 MSTORE CALLVALUE DUP1 ISZERO PUSH2 0xF JUMPI PUSH0 DUP1 REVERT JUMPDEST POP PUSH1 0x4 CALLDATASIZE LT PUSH2 0x4A JUMPI PUSH0 CALLDATALOAD PUSH1 0xE0 SHR DUP1 PUSH4 0x13A814A9 EQ PUSH2 0x4E JUMPI DUP1 PUSH4 0x1A85862D EQ PUSH2 0x6A JUMPI DUP1 PUSH4 0x20EB8E53 EQ PUSH2 0x86 JUMPI DUP1 PUSH4 0xCE6962BE EQ PUSH2 0xA4 JUMPI JUMPDEST PUSH0 DUP1 REVERT JUMPDEST PUSH2 0x68 PUSH1 0x4 DUP1 CALLDATASIZE SUB DUP2 ADD SWAP1 PUSH2 0x63 SWAP2 SWAP1 PUSH2 0x1D6 JUMP JUMPDEST PUSH2 0xC0 JUMP JUMPDEST STOP JUMPDEST PUSH2 0x84 PUSH1 0x4 DUP1 CALLDATASIZE SUB DUP2 ADD SWAP1 PUSH2 0x7F SWAP2 SWAP1 PUSH2 0x1D6 JUMP JUMPDEST PUSH2 0x107 JUMP JUMPDEST STOP JUMPDEST PUSH2 0x8E PUSH2 0x153 JUMP JUMPDEST PUSH1 0x40 MLOAD PUSH2 0x9B SWAP2 SWAP1 PUSH2 0x210 JUMP JUMPDEST PUSH1 0x40 MLOAD DUP1 SWAP2 SUB SWAP1 RETURN JUMPDEST PUSH2 0xBE PUSH1 0x4 DUP1 CALLDATASIZE SUB DUP2 ADD SWAP1 PUSH2 0xB9 SWAP2 SWAP1 PUSH2 0x1D6 JUMP JUMPDEST PUSH2 0x158 JUMP JUMPDEST STOP JUMPDEST PUSH0 SLOAD DUP2 GT ISZERO PUSH2 0x104 JUMPI PUSH1 0x40 MLOAD PUSH32 0x8C379A000000000000000000000000000000000000000000000000000000000 DUP2 MSTORE PUSH1 0x4 ADD PUSH2 0xFB SWAP1 PUSH2 0x283 JUMP JUMPDEST PUSH1 0x40 MLOAD DUP1 SWAP2 SUB SWAP1 REVERT JUMPDEST POP JUMP JUMPDEST PUSH0 SLOAD DUP2 GT ISZERO PUSH2 0x150 JUMPI PUSH0 SLOAD DUP2 PUSH1 0x40 MLOAD PUSH32 0xABE5C32F00000000000000000000000000000000000000000000000000000000 DUP2 MSTORE PUSH1 0x4 ADD PUSH2 0x147 SWAP3 SWAP2 SWAP1 PUSH2 0x2A1 JUMP JUMPDEST PUSH1 0x40 MLOAD DUP1 SWAP2 SUB SWAP1 REVERT JUMPDEST POP JUMP JUMPDEST PUSH0 SLOAD DUP2 JUMP JUMPDEST PUSH0 SLOAD DUP2 GT ISZERO PUSH2 0x19C JUMPI PUSH1 0x40 MLOAD PUSH32 0x8C379A000000000000000000000000000000000000000000000000000000000 DUP2 MSTORE PUSH1 0x4 ADD PUSH2 0x193 SWAP1 PUSH2 0x312 JUMP JUMPDEST PUSH1 0x40 MLOAD DUP1 SWAP2 SUB SWAP1 REVERT JUMPDEST POP JUMP JUMPDEST PUSH0 DUP1 REVERT JUMPDEST PUSH0 DUP2 SWAP1 POP SWAP2 SWAP1 POP JUMP JUMPDEST PUSH2 0x1B5 DUP2 PUSH2 0x1A3 JUMP JUMPDEST DUP2 EQ PUSH2 0x1BF JUMPI PUSH0 DUP1 REVERT JUMPDEST POP JUMP JUMPDEST PUSH0 DUP2 CALLDATALOAD SWAP1 POP PUSH2 0x1D0 DUP2 PUSH2 0x1AC JUMP JUMPDEST SWAP3 SWAP2 POP POP JUMP JUMPDEST PUSH0 PUSH1 0x20 DUP3 DUP5 SUB SLT ISZERO PUSH2 0x1EB JUMPI PUSH2 0x1EA PUSH2 0x19F JUMP JUMPDEST JUMPDEST PUSH0 PUSH2 0x1F8 DUP5 DUP3 DUP6 ADD PUSH2 0x1C2 JUMP JUMPDEST SWAP2 POP POP SWAP3 SWAP2 POP POP JUMP JUMPDEST PUSH2 0x20A DUP2 PUSH2 0x1A3 JUMP JUMPDEST DUP3 MSTORE POP POP JUMP JUMPDEST PUSH0 PUSH1 0x20 DUP3 ADD SWAP1 POP PUSH2 0x223 PUSH0 DUP4 ADD DUP5 PUSH2 0x201 JUMP JUMPDEST SWAP3 SWAP2 POP POP JUMP JUMPDEST PUSH0 DUP3 DUP3 MSTORE PUSH1 0x20 DUP3 ADD SWAP1 POP SWAP3 SWAP2 POP POP JUMP JUMPDEST PUSH32 0x4F2076616C6F72206E616F206573746120636F6D6F2072657175657269646F00 PUSH0 DUP3 ADD MSTORE POP JUMP JUMPDEST PUSH0 PUSH2 0x26D PUSH1 0x1F DUP4 PUSH2 0x229 JUMP JUMPDEST SWAP2 POP PUSH2 0x278 DUP3 PUSH2 0x239 JUMP JUMPDEST PUSH1 0x20 DUP3 ADD SWAP1 POP SWAP2 SWAP1 POP JUMP JUMPDEST PUSH0 PUSH1 0x20 DUP3 ADD SWAP1 POP DUP2 DUP2 SUB PUSH0 DUP4 ADD MSTORE PUSH2 0x29A DUP2 PUSH2 0x261 JUMP JUMPDEST SWAP1 POP SWAP2 SWAP1 POP JUMP JUMPDEST PUSH0 PUSH1 0x40 DUP3 ADD SWAP1 POP PUSH2 0x2B4 PUSH0 DUP4 ADD DUP6 PUSH2 0x201 JUMP JUMPDEST PUSH2 0x2C1 PUSH1 0x20 DUP4 ADD DUP5 PUSH2 0x201 JUMP JUMPDEST SWAP4 SWAP3 POP POP POP JUMP JUMPDEST PUSH32 0x4F2076616C6F72206E616F2065737461206E6F7320706172616D6574726F7300 PUSH0 DUP3 ADD MSTORE POP JUMP JUMPDEST PUSH0 PUSH2 0x2FC PUSH1 0x1F DUP4 PUSH2 0x229 JUMP JUMPDEST SWAP2 POP PUSH2 0x307 DUP3 PUSH2 0x2C8 JUMP JUMPDEST PUSH1 0x20 DUP3 ADD SWAP1 POP SWAP2 SWAP1 POP JUMP JUMPDEST PUSH0 PUSH1 0x20 DUP3 ADD SWAP1 POP DUP2 DUP2 SUB PUSH0 DUP4 ADD MSTORE PUSH2 0x329 DUP2 PUSH2 0x2F0 JUMP JUMPDEST SWAP1 POP SWAP2 SWAP1 POP JUMP INVALID LOG2 PUSH5 0x6970667358 0x22 SLT KECCAK256 0xEB EXTCODECOPY JUMP 0x1F MSTORE MCOPY MULMOD PUSH11 0x3A2A52F5CCE376BB99CF8D SWAP14 DUP9 0xB6 CALLDATASIZE 0xD3 0xAF 0xE0 PUSH16 0xF7812B921764736F6C63430008190033 "
		},
		"gasEstimates": {
			"creation": {
				"codeDepositCost": "174000",
				"executionCost": "22323",
				"totalCost": "196323"
			},
			"external": {
				"exemploA(uint256)": "2852",
				"exemploB(uint256)": "2786",
				"exemploC(uint256)": "infinite",
				"limite()": "2446"
			}
		},
		"methodIdentifiers": {
			"exemploA(uint256)": "ce6962be",
			"exemploB(uint256)": "13a814a9",
			"exemploC(uint256)": "1a85862d",
			"limite()": "20eb8e53"
		}
	},
	"abi": [
		{
			"inputs": [
				{
					"internalType": "uint256",
					"name": "limite",
					"type": "uint256"
				},
				{
					"internalType": "uint256",
					"name": "valorRecebido",
					"type": "uint256"
				}
			],
			"name": "OutOfRange",
			"type": "error"
		},
		{
			"inputs": [
				{
					"internalType": "uint256",
					"name": "_valorA",
					"type": "uint256"
				}
			],
			"name": "exemploA",
			"outputs": [],
			"stateMutability": "nonpayable",
			"type": "function"
		},
		{
			"inputs": [
				{
					"internalType": "uint256",
					"name": "_valorB",
					"type": "uint256"
				}
			],
			"name": "exemploB",
			"outputs": [],
			"stateMutability": "nonpayable",
			"type": "function"
		},
		{
			"inputs": [
				{
					"internalType": "uint256",
					"name": "_valorC",
					"type": "uint256"
				}
			],
			"name": "exemploC",
			"outputs": [],
			"stateMutability": "nonpayable",
			"type": "function"
		},
		{
			"inputs": [],
			"name": "limite",
			"outputs": [
				{
					"internalType": "uint256",
					"name": "",
					"type": "uint256"
				}
			],
			"stateMutability": "view",
			"type": "function"
		}
	]
}