{
	"contracts/Encode.sol": {
		"Encode": {
			"abi": [
				{
					"inputs": [
						{
							"internalType": "string",
							"name": "s1",
							"type": "string"
						},
						{
							"internalType": "string",
							"name": "s2",
							"type": "string"
						}
					],
					"name": "concatena",
					"outputs": [
						{
							"internalType": "string",
							"name": "",
							"type": "string"
						}
					],
					"stateMutability": "pure",
					"type": "function"
				},
				{
					"inputs": [
						{
							"internalType": "bytes",
							"name": "_valor",
							"type": "bytes"
						}
					],
					"name": "decode",
					"outputs": [
						{
							"internalType": "uint256",
							"name": "",
							"type": "uint256"
						},
						{
							"internalType": "uint256",
							"name": "",
							"type": "uint256"
						},
						{
							"internalType": "string",
							"name": "",
							"type": "string"
						},
						{
							"internalType": "bool",
							"name": "",
							"type": "bool"
						}
					],
					"stateMutability": "pure",
					"type": "function"
				},
				{
					"inputs": [],
					"name": "encode",
					"outputs": [
						{
							"internalType": "bytes",
							"name": "",
							"type": "bytes"
						}
					],
					"stateMutability": "pure",
					"type": "function"
				},
				{
					"inputs": [],
					"name": "encodePacote",
					"outputs": [
						{
							"internalType": "bytes",
							"name": "",
							"type": "bytes"
						}
					],
					"stateMutability": "pure",
					"type": "function"
				},
				{
					"inputs": [],
					"name": "encodeSignature",
					"outputs": [
						{
							"internalType": "bytes",
							"name": "",
							"type": "bytes"
						}
					],
					"stateMutability": "pure",
					"type": "function"
				}
			],
			"devdoc": {
				"kind": "dev",
				"methods": {},
				"version": 1
			},
			"evm": {
				"assembly": "    /* \"contracts/Encode.sol\":57:787  contract Encode {... */\n  mstore(0x40, 0x80)\n  callvalue\n  dup1\n  iszero\n  tag_1\n  jumpi\n  0x00\n  dup1\n  revert\ntag_1:\n  pop\n  dataSize(sub_0)\n  dup1\n  dataOffset(sub_0)\n  0x00\n  codecopy\n  0x00\n  return\nstop\n\nsub_0: assembly {\n        /* \"contracts/Encode.sol\":57:787  contract Encode {... */\n      mstore(0x40, 0x80)\n      callvalue\n      dup1\n      iszero\n      tag_1\n      jumpi\n      0x00\n      dup1\n      revert\n    tag_1:\n      pop\n      jumpi(tag_2, lt(calldatasize, 0x04))\n      shr(0xe0, calldataload(0x00))\n      dup1\n      0x1641deba\n      eq\n      tag_3\n      jumpi\n      dup1\n      0x434b405e\n      eq\n      tag_4\n      jumpi\n      dup1\n      0x7a7cbf93\n      eq\n      tag_5\n      jumpi\n      dup1\n      0xbd14598f\n      eq\n      tag_6\n      jumpi\n      dup1\n      0xe5c5e9a3\n      eq\n      tag_7\n      jumpi\n    tag_2:\n      0x00\n      dup1\n      revert\n        /* \"contracts/Encode.sol\":641:785  function concatena(string memory s1,string memory s2)public pure returns (string memory) {... */\n    tag_3:\n      tag_8\n      0x04\n      dup1\n      calldatasize\n      sub\n      dup2\n      add\n      swap1\n      tag_9\n      swap2\n      swap1\n      tag_10\n      jump\t// in\n    tag_9:\n      tag_11\n      jump\t// in\n    tag_8:\n      mload(0x40)\n      tag_12\n      swap2\n      swap1\n      tag_13\n      jump\t// in\n    tag_12:\n      mload(0x40)\n      dup1\n      swap2\n      sub\n      swap1\n      return\n        /* \"contracts/Encode.sol\":494:635  function encodePacote() public pure returns (bytes memory) {... */\n    tag_4:\n      tag_14\n      tag_15\n      jump\t// in\n    tag_14:\n      mload(0x40)\n      tag_16\n      swap2\n      swap1\n      tag_17\n      jump\t// in\n    tag_16:\n      mload(0x40)\n      dup1\n      swap2\n      sub\n      swap1\n      return\n        /* \"contracts/Encode.sol\":196:325  function encodeSignature()public pure returns (bytes memory) {... */\n    tag_5:\n      tag_18\n      tag_19\n      jump\t// in\n    tag_18:\n      mload(0x40)\n      tag_20\n      swap2\n      swap1\n      tag_17\n      jump\t// in\n    tag_20:\n      mload(0x40)\n      dup1\n      swap2\n      sub\n      swap1\n      return\n        /* \"contracts/Encode.sol\":79:190  function encode() public pure returns (bytes memory) {... */\n    tag_6:\n      tag_21\n      tag_22\n      jump\t// in\n    tag_21:\n      mload(0x40)\n      tag_23\n      swap2\n      swap1\n      tag_17\n      jump\t// in\n    tag_23:\n      mload(0x40)\n      dup1\n      swap2\n      sub\n      swap1\n      return\n        /* \"contracts/Encode.sol\":331:487  function decode(bytes calldata _valor) public pure returns (uint,uint,string memory,bool) {... */\n    tag_7:\n      tag_24\n      0x04\n      dup1\n      calldatasize\n      sub\n      dup2\n      add\n      swap1\n      tag_25\n      swap2\n      swap1\n      tag_26\n      jump\t// in\n    tag_25:\n      tag_27\n      jump\t// in\n    tag_24:\n      mload(0x40)\n      tag_28\n      swap5\n      swap4\n      swap3\n      swap2\n      swap1\n      tag_29\n      jump\t// in\n    tag_28:\n      mload(0x40)\n      dup1\n      swap2\n      sub\n      swap1\n      return\n        /* \"contracts/Encode.sol\":641:785  function concatena(string memory s1,string memory s2)public pure returns (string memory) {... */\n    tag_11:\n        /* \"contracts/Encode.sol\":715:728  string memory */\n      0x60\n        /* \"contracts/Encode.sol\":771:773  s1 */\n      dup3\n        /* \"contracts/Encode.sol\":774:776  s2 */\n      dup3\n        /* \"contracts/Encode.sol\":754:777  abi.encodePacked(s1,s2) */\n      add(0x20, mload(0x40))\n      tag_31\n      swap3\n      swap2\n      swap1\n      tag_32\n      jump\t// in\n    tag_31:\n      mload(0x40)\n      0x20\n      dup2\n      dup4\n      sub\n      sub\n      dup2\n      mstore\n      swap1\n      0x40\n      mstore\n        /* \"contracts/Encode.sol\":740:778  return string(abi.encodePacked(s1,s2)) */\n      swap1\n      pop\n        /* \"contracts/Encode.sol\":641:785  function concatena(string memory s1,string memory s2)public pure returns (string memory) {... */\n      swap3\n      swap2\n      pop\n      pop\n      jump\t// out\n        /* \"contracts/Encode.sol\":494:635  function encodePacote() public pure returns (bytes memory) {... */\n    tag_15:\n        /* \"contracts/Encode.sol\":539:551  bytes memory */\n      0x60\n        /* \"contracts/Encode.sol\":593:594  3 */\n      0x03\n        /* \"contracts/Encode.sol\":603:604  9 */\n      0x09\n        /* \"contracts/Encode.sol\":606:627  string(\"Hello World\") */\n      mload(0x40)\n      dup1\n      0x40\n      add\n      0x40\n      mstore\n      dup1\n      0x0b\n      dup2\n      mstore\n      0x20\n      add\n      0x48656c6c6f20576f726c64000000000000000000000000000000000000000000\n      dup2\n      mstore\n      pop\n        /* \"contracts/Encode.sol\":570:628  abi.encodePacked(uint8(3),uint16(9),string(\"Hello World\")) */\n      add(0x20, mload(0x40))\n      tag_34\n      swap4\n      swap3\n      swap2\n      swap1\n      tag_35\n      jump\t// in\n    tag_34:\n      mload(0x40)\n      0x20\n      dup2\n      dup4\n      sub\n      sub\n      dup2\n      mstore\n      swap1\n      0x40\n      mstore\n        /* \"contracts/Encode.sol\":563:628  return abi.encodePacked(uint8(3),uint16(9),string(\"Hello World\")) */\n      swap1\n      pop\n        /* \"contracts/Encode.sol\":494:635  function encodePacote() public pure returns (bytes memory) {... */\n      swap1\n      jump\t// out\n        /* \"contracts/Encode.sol\":196:325  function encodeSignature()public pure returns (bytes memory) {... */\n    tag_19:\n        /* \"contracts/Encode.sol\":243:255  bytes memory */\n      0x60\n        /* \"contracts/Encode.sol\":315:317  58 */\n      0x3a\n        /* \"contracts/Encode.sol\":274:318  abi.encodeWithSignature(\"valor(uint256)\",58) */\n      add(0x24, mload(0x40))\n      tag_37\n      swap2\n      swap1\n      tag_38\n      jump\t// in\n    tag_37:\n      mload(0x40)\n      0x20\n      dup2\n      dup4\n      sub\n      sub\n      dup2\n      mstore\n      swap1\n      0x40\n      mstore\n      and(not(0xffffffffffffffffffffffffffffffffffffffffffffffffffffffff), 0x6255091600000000000000000000000000000000000000000000000000000000)\n      0x20\n      dup3\n      add\n      dup1\n      mload\n      0xffffffffffffffffffffffffffffffffffffffffffffffffffffffff\n      dup4\n      dup2\n      dup4\n      and\n      or\n      dup4\n      mstore\n      pop\n      pop\n      pop\n      pop\n        /* \"contracts/Encode.sol\":267:318  return abi.encodeWithSignature(\"valor(uint256)\",58) */\n      swap1\n      pop\n        /* \"contracts/Encode.sol\":196:325  function encodeSignature()public pure returns (bytes memory) {... */\n      swap1\n      jump\t// out\n        /* \"contracts/Encode.sol\":79:190  function encode() public pure returns (bytes memory) {... */\n    tag_22:\n        /* \"contracts/Encode.sol\":118:130  bytes memory */\n      0x60\n        /* \"contracts/Encode.sol\":160:161  3 */\n      0x03\n        /* \"contracts/Encode.sol\":162:163  9 */\n      0x09\n        /* \"contracts/Encode.sol\":178:182  true */\n      0x01\n        /* \"contracts/Encode.sol\":149:183  abi.encode(3,9,\"Hello World\",true) */\n      add(0x20, mload(0x40))\n      tag_40\n      swap4\n      swap3\n      swap2\n      swap1\n      tag_41\n      jump\t// in\n    tag_40:\n      mload(0x40)\n      0x20\n      dup2\n      dup4\n      sub\n      sub\n      dup2\n      mstore\n      swap1\n      0x40\n      mstore\n        /* \"contracts/Encode.sol\":142:183  return abi.encode(3,9,\"Hello World\",true) */\n      swap1\n      pop\n        /* \"contracts/Encode.sol\":79:190  function encode() public pure returns (bytes memory) {... */\n      swap1\n      jump\t// out\n        /* \"contracts/Encode.sol\":331:487  function decode(bytes calldata _valor) public pure returns (uint,uint,string memory,bool) {... */\n    tag_27:\n        /* \"contracts/Encode.sol\":391:395  uint */\n      0x00\n        /* \"contracts/Encode.sol\":396:400  uint */\n      dup1\n        /* \"contracts/Encode.sol\":401:414  string memory */\n      0x60\n        /* \"contracts/Encode.sol\":415:419  bool */\n      0x00\n        /* \"contracts/Encode.sol\":449:455  _valor */\n      dup6\n      dup6\n        /* \"contracts/Encode.sol\":438:480  abi.decode(_valor,(uint,uint,string,bool)) */\n      dup2\n      add\n      swap1\n      tag_43\n      swap2\n      swap1\n      tag_44\n      jump\t// in\n    tag_43:\n        /* \"contracts/Encode.sol\":431:480  return abi.decode(_valor,(uint,uint,string,bool)) */\n      swap4\n      pop\n      swap4\n      pop\n      swap4\n      pop\n      swap4\n      pop\n        /* \"contracts/Encode.sol\":331:487  function decode(bytes calldata _valor) public pure returns (uint,uint,string memory,bool) {... */\n      swap3\n      swap6\n      swap2\n      swap5\n      pop\n      swap3\n      pop\n      jump\t// out\n        /* \"#utility.yul\":7:82   */\n    tag_45:\n        /* \"#utility.yul\":40:46   */\n      0x00\n        /* \"#utility.yul\":73:75   */\n      0x40\n        /* \"#utility.yul\":67:76   */\n      mload\n        /* \"#utility.yul\":57:76   */\n      swap1\n      pop\n        /* \"#utility.yul\":7:82   */\n      swap1\n      jump\t// out\n        /* \"#utility.yul\":88:205   */\n    tag_46:\n        /* \"#utility.yul\":197:198   */\n      0x00\n        /* \"#utility.yul\":194:195   */\n      dup1\n        /* \"#utility.yul\":187:199   */\n      revert\n        /* \"#utility.yul\":211:328   */\n    tag_47:\n        /* \"#utility.yul\":320:321   */\n      0x00\n        /* \"#utility.yul\":317:318   */\n      dup1\n        /* \"#utility.yul\":310:322   */\n      revert\n        /* \"#utility.yul\":334:451   */\n    tag_48:\n        /* \"#utility.yul\":443:444   */\n      0x00\n        /* \"#utility.yul\":440:441   */\n      dup1\n        /* \"#utility.yul\":433:445   */\n      revert\n        /* \"#utility.yul\":457:574   */\n    tag_49:\n        /* \"#utility.yul\":566:567   */\n      0x00\n        /* \"#utility.yul\":563:564   */\n      dup1\n        /* \"#utility.yul\":556:568   */\n      revert\n        /* \"#utility.yul\":580:682   */\n    tag_50:\n        /* \"#utility.yul\":621:627   */\n      0x00\n        /* \"#utility.yul\":672:674   */\n      0x1f\n        /* \"#utility.yul\":668:675   */\n      not\n        /* \"#utility.yul\":663:665   */\n      0x1f\n        /* \"#utility.yul\":656:661   */\n      dup4\n        /* \"#utility.yul\":652:666   */\n      add\n        /* \"#utility.yul\":648:676   */\n      and\n        /* \"#utility.yul\":638:676   */\n      swap1\n      pop\n        /* \"#utility.yul\":580:682   */\n      swap2\n      swap1\n      pop\n      jump\t// out\n        /* \"#utility.yul\":688:868   */\n    tag_51:\n        /* \"#utility.yul\":736:813   */\n      0x4e487b7100000000000000000000000000000000000000000000000000000000\n        /* \"#utility.yul\":733:734   */\n      0x00\n        /* \"#utility.yul\":726:814   */\n      mstore\n        /* \"#utility.yul\":833:837   */\n      0x41\n        /* \"#utility.yul\":830:831   */\n      0x04\n        /* \"#utility.yul\":823:838   */\n      mstore\n        /* \"#utility.yul\":857:861   */\n      0x24\n        /* \"#utility.yul\":854:855   */\n      0x00\n        /* \"#utility.yul\":847:862   */\n      revert\n        /* \"#utility.yul\":874:1155   */\n    tag_52:\n        /* \"#utility.yul\":957:984   */\n      tag_107\n        /* \"#utility.yul\":979:983   */\n      dup3\n        /* \"#utility.yul\":957:984   */\n      tag_50\n      jump\t// in\n    tag_107:\n        /* \"#utility.yul\":949:955   */\n      dup2\n        /* \"#utility.yul\":945:985   */\n      add\n        /* \"#utility.yul\":1087:1093   */\n      dup2\n        /* \"#utility.yul\":1075:1085   */\n      dup2\n        /* \"#utility.yul\":1072:1094   */\n      lt\n        /* \"#utility.yul\":1051:1069   */\n      0xffffffffffffffff\n        /* \"#utility.yul\":1039:1049   */\n      dup3\n        /* \"#utility.yul\":1036:1070   */\n      gt\n        /* \"#utility.yul\":1033:1095   */\n      or\n        /* \"#utility.yul\":1030:1118   */\n      iszero\n      tag_108\n      jumpi\n        /* \"#utility.yul\":1098:1116   */\n      tag_109\n      tag_51\n      jump\t// in\n    tag_109:\n        /* \"#utility.yul\":1030:1118   */\n    tag_108:\n        /* \"#utility.yul\":1138:1148   */\n      dup1\n        /* \"#utility.yul\":1134:1136   */\n      0x40\n        /* \"#utility.yul\":1127:1149   */\n      mstore\n        /* \"#utility.yul\":917:1155   */\n      pop\n        /* \"#utility.yul\":874:1155   */\n      pop\n      pop\n      jump\t// out\n        /* \"#utility.yul\":1161:1290   */\n    tag_53:\n        /* \"#utility.yul\":1195:1201   */\n      0x00\n        /* \"#utility.yul\":1222:1242   */\n      tag_111\n      tag_45\n      jump\t// in\n    tag_111:\n        /* \"#utility.yul\":1212:1242   */\n      swap1\n      pop\n        /* \"#utility.yul\":1251:1284   */\n      tag_112\n        /* \"#utility.yul\":1279:1283   */\n      dup3\n        /* \"#utility.yul\":1271:1277   */\n      dup3\n        /* \"#utility.yul\":1251:1284   */\n      tag_52\n      jump\t// in\n    tag_112:\n        /* \"#utility.yul\":1161:1290   */\n      swap2\n      swap1\n      pop\n      jump\t// out\n        /* \"#utility.yul\":1296:1604   */\n    tag_54:\n        /* \"#utility.yul\":1358:1362   */\n      0x00\n        /* \"#utility.yul\":1448:1466   */\n      0xffffffffffffffff\n        /* \"#utility.yul\":1440:1446   */\n      dup3\n        /* \"#utility.yul\":1437:1467   */\n      gt\n        /* \"#utility.yul\":1434:1490   */\n      iszero\n      tag_114\n      jumpi\n        /* \"#utility.yul\":1470:1488   */\n      tag_115\n      tag_51\n      jump\t// in\n    tag_115:\n        /* \"#utility.yul\":1434:1490   */\n    tag_114:\n        /* \"#utility.yul\":1508:1537   */\n      tag_116\n        /* \"#utility.yul\":1530:1536   */\n      dup3\n        /* \"#utility.yul\":1508:1537   */\n      tag_50\n      jump\t// in\n    tag_116:\n        /* \"#utility.yul\":1500:1537   */\n      swap1\n      pop\n        /* \"#utility.yul\":1592:1596   */\n      0x20\n        /* \"#utility.yul\":1586:1590   */\n      dup2\n        /* \"#utility.yul\":1582:1597   */\n      add\n        /* \"#utility.yul\":1574:1597   */\n      swap1\n      pop\n        /* \"#utility.yul\":1296:1604   */\n      swap2\n      swap1\n      pop\n      jump\t// out\n        /* \"#utility.yul\":1610:1758   */\n    tag_55:\n        /* \"#utility.yul\":1708:1714   */\n      dup3\n        /* \"#utility.yul\":1703:1706   */\n      dup2\n        /* \"#utility.yul\":1698:1701   */\n      dup4\n        /* \"#utility.yul\":1685:1715   */\n      calldatacopy\n        /* \"#utility.yul\":1749:1750   */\n      0x00\n        /* \"#utility.yul\":1740:1746   */\n      dup4\n        /* \"#utility.yul\":1735:1738   */\n      dup4\n        /* \"#utility.yul\":1731:1747   */\n      add\n        /* \"#utility.yul\":1724:1751   */\n      mstore\n        /* \"#utility.yul\":1610:1758   */\n      pop\n      pop\n      pop\n      jump\t// out\n        /* \"#utility.yul\":1764:2189   */\n    tag_56:\n        /* \"#utility.yul\":1842:1847   */\n      0x00\n        /* \"#utility.yul\":1867:1933   */\n      tag_119\n        /* \"#utility.yul\":1883:1932   */\n      tag_120\n        /* \"#utility.yul\":1925:1931   */\n      dup5\n        /* \"#utility.yul\":1883:1932   */\n      tag_54\n      jump\t// in\n    tag_120:\n        /* \"#utility.yul\":1867:1933   */\n      tag_53\n      jump\t// in\n    tag_119:\n        /* \"#utility.yul\":1858:1933   */\n      swap1\n      pop\n        /* \"#utility.yul\":1956:1962   */\n      dup3\n        /* \"#utility.yul\":1949:1954   */\n      dup2\n        /* \"#utility.yul\":1942:1963   */\n      mstore\n        /* \"#utility.yul\":1994:1998   */\n      0x20\n        /* \"#utility.yul\":1987:1992   */\n      dup2\n        /* \"#utility.yul\":1983:1999   */\n      add\n        /* \"#utility.yul\":2032:2035   */\n      dup5\n        /* \"#utility.yul\":2023:2029   */\n      dup5\n        /* \"#utility.yul\":2018:2021   */\n      dup5\n        /* \"#utility.yul\":2014:2030   */\n      add\n        /* \"#utility.yul\":2011:2036   */\n      gt\n        /* \"#utility.yul\":2008:2120   */\n      iszero\n      tag_121\n      jumpi\n        /* \"#utility.yul\":2039:2118   */\n      tag_122\n      tag_49\n      jump\t// in\n    tag_122:\n        /* \"#utility.yul\":2008:2120   */\n    tag_121:\n        /* \"#utility.yul\":2129:2183   */\n      tag_123\n        /* \"#utility.yul\":2176:2182   */\n      dup5\n        /* \"#utility.yul\":2171:2174   */\n      dup3\n        /* \"#utility.yul\":2166:2169   */\n      dup6\n        /* \"#utility.yul\":2129:2183   */\n      tag_55\n      jump\t// in\n    tag_123:\n        /* \"#utility.yul\":1848:2189   */\n      pop\n        /* \"#utility.yul\":1764:2189   */\n      swap4\n      swap3\n      pop\n      pop\n      pop\n      jump\t// out\n        /* \"#utility.yul\":2209:2549   */\n    tag_57:\n        /* \"#utility.yul\":2265:2270   */\n      0x00\n        /* \"#utility.yul\":2314:2317   */\n      dup3\n        /* \"#utility.yul\":2307:2311   */\n      0x1f\n        /* \"#utility.yul\":2299:2305   */\n      dup4\n        /* \"#utility.yul\":2295:2312   */\n      add\n        /* \"#utility.yul\":2291:2318   */\n      slt\n        /* \"#utility.yul\":2281:2403   */\n      tag_125\n      jumpi\n        /* \"#utility.yul\":2322:2401   */\n      tag_126\n      tag_48\n      jump\t// in\n    tag_126:\n        /* \"#utility.yul\":2281:2403   */\n    tag_125:\n        /* \"#utility.yul\":2439:2445   */\n      dup2\n        /* \"#utility.yul\":2426:2446   */\n      calldataload\n        /* \"#utility.yul\":2464:2543   */\n      tag_127\n        /* \"#utility.yul\":2539:2542   */\n      dup5\n        /* \"#utility.yul\":2531:2537   */\n      dup3\n        /* \"#utility.yul\":2524:2528   */\n      0x20\n        /* \"#utility.yul\":2516:2522   */\n      dup7\n        /* \"#utility.yul\":2512:2529   */\n      add\n        /* \"#utility.yul\":2464:2543   */\n      tag_56\n      jump\t// in\n    tag_127:\n        /* \"#utility.yul\":2455:2543   */\n      swap2\n      pop\n        /* \"#utility.yul\":2271:2549   */\n      pop\n        /* \"#utility.yul\":2209:2549   */\n      swap3\n      swap2\n      pop\n      pop\n      jump\t// out\n        /* \"#utility.yul\":2555:3389   */\n    tag_10:\n        /* \"#utility.yul\":2643:2649   */\n      0x00\n        /* \"#utility.yul\":2651:2657   */\n      dup1\n        /* \"#utility.yul\":2700:2702   */\n      0x40\n        /* \"#utility.yul\":2688:2697   */\n      dup4\n        /* \"#utility.yul\":2679:2686   */\n      dup6\n        /* \"#utility.yul\":2675:2698   */\n      sub\n        /* \"#utility.yul\":2671:2703   */\n      slt\n        /* \"#utility.yul\":2668:2787   */\n      iszero\n      tag_129\n      jumpi\n        /* \"#utility.yul\":2706:2785   */\n      tag_130\n      tag_46\n      jump\t// in\n    tag_130:\n        /* \"#utility.yul\":2668:2787   */\n    tag_129:\n        /* \"#utility.yul\":2854:2855   */\n      0x00\n        /* \"#utility.yul\":2843:2852   */\n      dup4\n        /* \"#utility.yul\":2839:2856   */\n      add\n        /* \"#utility.yul\":2826:2857   */\n      calldataload\n        /* \"#utility.yul\":2884:2902   */\n      0xffffffffffffffff\n        /* \"#utility.yul\":2876:2882   */\n      dup2\n        /* \"#utility.yul\":2873:2903   */\n      gt\n        /* \"#utility.yul\":2870:2987   */\n      iszero\n      tag_131\n      jumpi\n        /* \"#utility.yul\":2906:2985   */\n      tag_132\n      tag_47\n      jump\t// in\n    tag_132:\n        /* \"#utility.yul\":2870:2987   */\n    tag_131:\n        /* \"#utility.yul\":3011:3074   */\n      tag_133\n        /* \"#utility.yul\":3066:3073   */\n      dup6\n        /* \"#utility.yul\":3057:3063   */\n      dup3\n        /* \"#utility.yul\":3046:3055   */\n      dup7\n        /* \"#utility.yul\":3042:3064   */\n      add\n        /* \"#utility.yul\":3011:3074   */\n      tag_57\n      jump\t// in\n    tag_133:\n        /* \"#utility.yul\":3001:3074   */\n      swap3\n      pop\n        /* \"#utility.yul\":2797:3084   */\n      pop\n        /* \"#utility.yul\":3151:3153   */\n      0x20\n        /* \"#utility.yul\":3140:3149   */\n      dup4\n        /* \"#utility.yul\":3136:3154   */\n      add\n        /* \"#utility.yul\":3123:3155   */\n      calldataload\n        /* \"#utility.yul\":3182:3200   */\n      0xffffffffffffffff\n        /* \"#utility.yul\":3174:3180   */\n      dup2\n        /* \"#utility.yul\":3171:3201   */\n      gt\n        /* \"#utility.yul\":3168:3285   */\n      iszero\n      tag_134\n      jumpi\n        /* \"#utility.yul\":3204:3283   */\n      tag_135\n      tag_47\n      jump\t// in\n    tag_135:\n        /* \"#utility.yul\":3168:3285   */\n    tag_134:\n        /* \"#utility.yul\":3309:3372   */\n      tag_136\n        /* \"#utility.yul\":3364:3371   */\n      dup6\n        /* \"#utility.yul\":3355:3361   */\n      dup3\n        /* \"#utility.yul\":3344:3353   */\n      dup7\n        /* \"#utility.yul\":3340:3362   */\n      add\n        /* \"#utility.yul\":3309:3372   */\n      tag_57\n      jump\t// in\n    tag_136:\n        /* \"#utility.yul\":3299:3372   */\n      swap2\n      pop\n        /* \"#utility.yul\":3094:3382   */\n      pop\n        /* \"#utility.yul\":2555:3389   */\n      swap3\n      pop\n      swap3\n      swap1\n      pop\n      jump\t// out\n        /* \"#utility.yul\":3395:3494   */\n    tag_58:\n        /* \"#utility.yul\":3447:3453   */\n      0x00\n        /* \"#utility.yul\":3481:3486   */\n      dup2\n        /* \"#utility.yul\":3475:3487   */\n      mload\n        /* \"#utility.yul\":3465:3487   */\n      swap1\n      pop\n        /* \"#utility.yul\":3395:3494   */\n      swap2\n      swap1\n      pop\n      jump\t// out\n        /* \"#utility.yul\":3500:3669   */\n    tag_59:\n        /* \"#utility.yul\":3584:3595   */\n      0x00\n        /* \"#utility.yul\":3618:3624   */\n      dup3\n        /* \"#utility.yul\":3613:3616   */\n      dup3\n        /* \"#utility.yul\":3606:3625   */\n      mstore\n        /* \"#utility.yul\":3658:3662   */\n      0x20\n        /* \"#utility.yul\":3653:3656   */\n      dup3\n        /* \"#utility.yul\":3649:3663   */\n      add\n        /* \"#utility.yul\":3634:3663   */\n      swap1\n      pop\n        /* \"#utility.yul\":3500:3669   */\n      swap3\n      swap2\n      pop\n      pop\n      jump\t// out\n        /* \"#utility.yul\":3675:3814   */\n    tag_60:\n        /* \"#utility.yul\":3764:3770   */\n      dup3\n        /* \"#utility.yul\":3759:3762   */\n      dup2\n        /* \"#utility.yul\":3754:3757   */\n      dup4\n        /* \"#utility.yul\":3748:3771   */\n      mcopy\n        /* \"#utility.yul\":3805:3806   */\n      0x00\n        /* \"#utility.yul\":3796:3802   */\n      dup4\n        /* \"#utility.yul\":3791:3794   */\n      dup4\n        /* \"#utility.yul\":3787:3803   */\n      add\n        /* \"#utility.yul\":3780:3807   */\n      mstore\n        /* \"#utility.yul\":3675:3814   */\n      pop\n      pop\n      pop\n      jump\t// out\n        /* \"#utility.yul\":3820:4197   */\n    tag_61:\n        /* \"#utility.yul\":3908:3911   */\n      0x00\n        /* \"#utility.yul\":3936:3975   */\n      tag_141\n        /* \"#utility.yul\":3969:3974   */\n      dup3\n        /* \"#utility.yul\":3936:3975   */\n      tag_58\n      jump\t// in\n    tag_141:\n        /* \"#utility.yul\":3991:4062   */\n      tag_142\n        /* \"#utility.yul\":4055:4061   */\n      dup2\n        /* \"#utility.yul\":4050:4053   */\n      dup6\n        /* \"#utility.yul\":3991:4062   */\n      tag_59\n      jump\t// in\n    tag_142:\n        /* \"#utility.yul\":3984:4062   */\n      swap4\n      pop\n        /* \"#utility.yul\":4071:4136   */\n      tag_143\n        /* \"#utility.yul\":4129:4135   */\n      dup2\n        /* \"#utility.yul\":4124:4127   */\n      dup6\n        /* \"#utility.yul\":4117:4121   */\n      0x20\n        /* \"#utility.yul\":4110:4115   */\n      dup7\n        /* \"#utility.yul\":4106:4122   */\n      add\n        /* \"#utility.yul\":4071:4136   */\n      tag_60\n      jump\t// in\n    tag_143:\n        /* \"#utility.yul\":4161:4190   */\n      tag_144\n        /* \"#utility.yul\":4183:4189   */\n      dup2\n        /* \"#utility.yul\":4161:4190   */\n      tag_50\n      jump\t// in\n    tag_144:\n        /* \"#utility.yul\":4156:4159   */\n      dup5\n        /* \"#utility.yul\":4152:4191   */\n      add\n        /* \"#utility.yul\":4145:4191   */\n      swap2\n      pop\n        /* \"#utility.yul\":3912:4197   */\n      pop\n        /* \"#utility.yul\":3820:4197   */\n      swap3\n      swap2\n      pop\n      pop\n      jump\t// out\n        /* \"#utility.yul\":4203:4516   */\n    tag_13:\n        /* \"#utility.yul\":4316:4320   */\n      0x00\n        /* \"#utility.yul\":4354:4356   */\n      0x20\n        /* \"#utility.yul\":4343:4352   */\n      dup3\n        /* \"#utility.yul\":4339:4357   */\n      add\n        /* \"#utility.yul\":4331:4357   */\n      swap1\n      pop\n        /* \"#utility.yul\":4403:4412   */\n      dup2\n        /* \"#utility.yul\":4397:4401   */\n      dup2\n        /* \"#utility.yul\":4393:4413   */\n      sub\n        /* \"#utility.yul\":4389:4390   */\n      0x00\n        /* \"#utility.yul\":4378:4387   */\n      dup4\n        /* \"#utility.yul\":4374:4391   */\n      add\n        /* \"#utility.yul\":4367:4414   */\n      mstore\n        /* \"#utility.yul\":4431:4509   */\n      tag_146\n        /* \"#utility.yul\":4504:4508   */\n      dup2\n        /* \"#utility.yul\":4495:4501   */\n      dup5\n        /* \"#utility.yul\":4431:4509   */\n      tag_61\n      jump\t// in\n    tag_146:\n        /* \"#utility.yul\":4423:4509   */\n      swap1\n      pop\n        /* \"#utility.yul\":4203:4516   */\n      swap3\n      swap2\n      pop\n      pop\n      jump\t// out\n        /* \"#utility.yul\":4522:4620   */\n    tag_62:\n        /* \"#utility.yul\":4573:4579   */\n      0x00\n        /* \"#utility.yul\":4607:4612   */\n      dup2\n        /* \"#utility.yul\":4601:4613   */\n      mload\n        /* \"#utility.yul\":4591:4613   */\n      swap1\n      pop\n        /* \"#utility.yul\":4522:4620   */\n      swap2\n      swap1\n      pop\n      jump\t// out\n        /* \"#utility.yul\":4626:4794   */\n    tag_63:\n        /* \"#utility.yul\":4709:4720   */\n      0x00\n        /* \"#utility.yul\":4743:4749   */\n      dup3\n        /* \"#utility.yul\":4738:4741   */\n      dup3\n        /* \"#utility.yul\":4731:4750   */\n      mstore\n        /* \"#utility.yul\":4783:4787   */\n      0x20\n        /* \"#utility.yul\":4778:4781   */\n      dup3\n        /* \"#utility.yul\":4774:4788   */\n      add\n        /* \"#utility.yul\":4759:4788   */\n      swap1\n      pop\n        /* \"#utility.yul\":4626:4794   */\n      swap3\n      swap2\n      pop\n      pop\n      jump\t// out\n        /* \"#utility.yul\":4800:5173   */\n    tag_64:\n        /* \"#utility.yul\":4886:4889   */\n      0x00\n        /* \"#utility.yul\":4914:4952   */\n      tag_150\n        /* \"#utility.yul\":4946:4951   */\n      dup3\n        /* \"#utility.yul\":4914:4952   */\n      tag_62\n      jump\t// in\n    tag_150:\n        /* \"#utility.yul\":4968:5038   */\n      tag_151\n        /* \"#utility.yul\":5031:5037   */\n      dup2\n        /* \"#utility.yul\":5026:5029   */\n      dup6\n        /* \"#utility.yul\":4968:5038   */\n      tag_63\n      jump\t// in\n    tag_151:\n        /* \"#utility.yul\":4961:5038   */\n      swap4\n      pop\n        /* \"#utility.yul\":5047:5112   */\n      tag_152\n        /* \"#utility.yul\":5105:5111   */\n      dup2\n        /* \"#utility.yul\":5100:5103   */\n      dup6\n        /* \"#utility.yul\":5093:5097   */\n      0x20\n        /* \"#utility.yul\":5086:5091   */\n      dup7\n        /* \"#utility.yul\":5082:5098   */\n      add\n        /* \"#utility.yul\":5047:5112   */\n      tag_60\n      jump\t// in\n    tag_152:\n        /* \"#utility.yul\":5137:5166   */\n      tag_153\n        /* \"#utility.yul\":5159:5165   */\n      dup2\n        /* \"#utility.yul\":5137:5166   */\n      tag_50\n      jump\t// in\n    tag_153:\n        /* \"#utility.yul\":5132:5135   */\n      dup5\n        /* \"#utility.yul\":5128:5167   */\n      add\n        /* \"#utility.yul\":5121:5167   */\n      swap2\n      pop\n        /* \"#utility.yul\":4890:5173   */\n      pop\n        /* \"#utility.yul\":4800:5173   */\n      swap3\n      swap2\n      pop\n      pop\n      jump\t// out\n        /* \"#utility.yul\":5179:5488   */\n    tag_17:\n        /* \"#utility.yul\":5290:5294   */\n      0x00\n        /* \"#utility.yul\":5328:5330   */\n      0x20\n        /* \"#utility.yul\":5317:5326   */\n      dup3\n        /* \"#utility.yul\":5313:5331   */\n      add\n        /* \"#utility.yul\":5305:5331   */\n      swap1\n      pop\n        /* \"#utility.yul\":5377:5386   */\n      dup2\n        /* \"#utility.yul\":5371:5375   */\n      dup2\n        /* \"#utility.yul\":5367:5387   */\n      sub\n        /* \"#utility.yul\":5363:5364   */\n      0x00\n        /* \"#utility.yul\":5352:5361   */\n      dup4\n        /* \"#utility.yul\":5348:5365   */\n      add\n        /* \"#utility.yul\":5341:5388   */\n      mstore\n        /* \"#utility.yul\":5405:5481   */\n      tag_155\n        /* \"#utility.yul\":5476:5480   */\n      dup2\n        /* \"#utility.yul\":5467:5473   */\n      dup5\n        /* \"#utility.yul\":5405:5481   */\n      tag_64\n      jump\t// in\n    tag_155:\n        /* \"#utility.yul\":5397:5481   */\n      swap1\n      pop\n        /* \"#utility.yul\":5179:5488   */\n      swap3\n      swap2\n      pop\n      pop\n      jump\t// out\n        /* \"#utility.yul\":5494:5611   */\n    tag_65:\n        /* \"#utility.yul\":5603:5604   */\n      0x00\n        /* \"#utility.yul\":5600:5601   */\n      dup1\n        /* \"#utility.yul\":5593:5605   */\n      revert\n        /* \"#utility.yul\":5617:5734   */\n    tag_66:\n        /* \"#utility.yul\":5726:5727   */\n      0x00\n        /* \"#utility.yul\":5723:5724   */\n      dup1\n        /* \"#utility.yul\":5716:5728   */\n      revert\n        /* \"#utility.yul\":5753:6305   */\n    tag_67:\n        /* \"#utility.yul\":5810:5818   */\n      0x00\n        /* \"#utility.yul\":5820:5826   */\n      dup1\n        /* \"#utility.yul\":5870:5873   */\n      dup4\n        /* \"#utility.yul\":5863:5867   */\n      0x1f\n        /* \"#utility.yul\":5855:5861   */\n      dup5\n        /* \"#utility.yul\":5851:5868   */\n      add\n        /* \"#utility.yul\":5847:5874   */\n      slt\n        /* \"#utility.yul\":5837:5959   */\n      tag_159\n      jumpi\n        /* \"#utility.yul\":5878:5957   */\n      tag_160\n      tag_48\n      jump\t// in\n    tag_160:\n        /* \"#utility.yul\":5837:5959   */\n    tag_159:\n        /* \"#utility.yul\":5991:5997   */\n      dup3\n        /* \"#utility.yul\":5978:5998   */\n      calldataload\n        /* \"#utility.yul\":5968:5998   */\n      swap1\n      pop\n        /* \"#utility.yul\":6021:6039   */\n      0xffffffffffffffff\n        /* \"#utility.yul\":6013:6019   */\n      dup2\n        /* \"#utility.yul\":6010:6040   */\n      gt\n        /* \"#utility.yul\":6007:6124   */\n      iszero\n      tag_161\n      jumpi\n        /* \"#utility.yul\":6043:6122   */\n      tag_162\n      tag_65\n      jump\t// in\n    tag_162:\n        /* \"#utility.yul\":6007:6124   */\n    tag_161:\n        /* \"#utility.yul\":6157:6161   */\n      0x20\n        /* \"#utility.yul\":6149:6155   */\n      dup4\n        /* \"#utility.yul\":6145:6162   */\n      add\n        /* \"#utility.yul\":6133:6162   */\n      swap2\n      pop\n        /* \"#utility.yul\":6211:6214   */\n      dup4\n        /* \"#utility.yul\":6203:6207   */\n      0x01\n        /* \"#utility.yul\":6195:6201   */\n      dup3\n        /* \"#utility.yul\":6191:6208   */\n      mul\n        /* \"#utility.yul\":6181:6189   */\n      dup4\n        /* \"#utility.yul\":6177:6209   */\n      add\n        /* \"#utility.yul\":6174:6215   */\n      gt\n        /* \"#utility.yul\":6171:6299   */\n      iszero\n      tag_163\n      jumpi\n        /* \"#utility.yul\":6218:6297   */\n      tag_164\n      tag_66\n      jump\t// in\n    tag_164:\n        /* \"#utility.yul\":6171:6299   */\n    tag_163:\n        /* \"#utility.yul\":5753:6305   */\n      swap3\n      pop\n      swap3\n      swap1\n      pop\n      jump\t// out\n        /* \"#utility.yul\":6311:6838   */\n    tag_26:\n        /* \"#utility.yul\":6381:6387   */\n      0x00\n        /* \"#utility.yul\":6389:6395   */\n      dup1\n        /* \"#utility.yul\":6438:6440   */\n      0x20\n        /* \"#utility.yul\":6426:6435   */\n      dup4\n        /* \"#utility.yul\":6417:6424   */\n      dup6\n        /* \"#utility.yul\":6413:6436   */\n      sub\n        /* \"#utility.yul\":6409:6441   */\n      slt\n        /* \"#utility.yul\":6406:6525   */\n      iszero\n      tag_166\n      jumpi\n        /* \"#utility.yul\":6444:6523   */\n      tag_167\n      tag_46\n      jump\t// in\n    tag_167:\n        /* \"#utility.yul\":6406:6525   */\n    tag_166:\n        /* \"#utility.yul\":6592:6593   */\n      0x00\n        /* \"#utility.yul\":6581:6590   */\n      dup4\n        /* \"#utility.yul\":6577:6594   */\n      add\n        /* \"#utility.yul\":6564:6595   */\n      calldataload\n        /* \"#utility.yul\":6622:6640   */\n      0xffffffffffffffff\n        /* \"#utility.yul\":6614:6620   */\n      dup2\n        /* \"#utility.yul\":6611:6641   */\n      gt\n        /* \"#utility.yul\":6608:6725   */\n      iszero\n      tag_168\n      jumpi\n        /* \"#utility.yul\":6644:6723   */\n      tag_169\n      tag_47\n      jump\t// in\n    tag_169:\n        /* \"#utility.yul\":6608:6725   */\n    tag_168:\n        /* \"#utility.yul\":6757:6821   */\n      tag_170\n        /* \"#utility.yul\":6813:6820   */\n      dup6\n        /* \"#utility.yul\":6804:6810   */\n      dup3\n        /* \"#utility.yul\":6793:6802   */\n      dup7\n        /* \"#utility.yul\":6789:6811   */\n      add\n        /* \"#utility.yul\":6757:6821   */\n      tag_67\n      jump\t// in\n    tag_170:\n        /* \"#utility.yul\":6739:6821   */\n      swap3\n      pop\n      swap3\n      pop\n        /* \"#utility.yul\":6535:6831   */\n      pop\n        /* \"#utility.yul\":6311:6838   */\n      swap3\n      pop\n      swap3\n      swap1\n      pop\n      jump\t// out\n        /* \"#utility.yul\":6844:6921   */\n    tag_68:\n        /* \"#utility.yul\":6881:6888   */\n      0x00\n        /* \"#utility.yul\":6910:6915   */\n      dup2\n        /* \"#utility.yul\":6899:6915   */\n      swap1\n      pop\n        /* \"#utility.yul\":6844:6921   */\n      swap2\n      swap1\n      pop\n      jump\t// out\n        /* \"#utility.yul\":6927:7045   */\n    tag_69:\n        /* \"#utility.yul\":7014:7038   */\n      tag_173\n        /* \"#utility.yul\":7032:7037   */\n      dup2\n        /* \"#utility.yul\":7014:7038   */\n      tag_68\n      jump\t// in\n    tag_173:\n        /* \"#utility.yul\":7009:7012   */\n      dup3\n        /* \"#utility.yul\":7002:7039   */\n      mstore\n        /* \"#utility.yul\":6927:7045   */\n      pop\n      pop\n      jump\t// out\n        /* \"#utility.yul\":7051:7141   */\n    tag_70:\n        /* \"#utility.yul\":7085:7092   */\n      0x00\n        /* \"#utility.yul\":7128:7133   */\n      dup2\n        /* \"#utility.yul\":7121:7134   */\n      iszero\n        /* \"#utility.yul\":7114:7135   */\n      iszero\n        /* \"#utility.yul\":7103:7135   */\n      swap1\n      pop\n        /* \"#utility.yul\":7051:7141   */\n      swap2\n      swap1\n      pop\n      jump\t// out\n        /* \"#utility.yul\":7147:7256   */\n    tag_71:\n        /* \"#utility.yul\":7228:7249   */\n      tag_176\n        /* \"#utility.yul\":7243:7248   */\n      dup2\n        /* \"#utility.yul\":7228:7249   */\n      tag_70\n      jump\t// in\n    tag_176:\n        /* \"#utility.yul\":7223:7226   */\n      dup3\n        /* \"#utility.yul\":7216:7250   */\n      mstore\n        /* \"#utility.yul\":7147:7256   */\n      pop\n      pop\n      jump\t// out\n        /* \"#utility.yul\":7262:7894   */\n    tag_29:\n        /* \"#utility.yul\":7453:7457   */\n      0x00\n        /* \"#utility.yul\":7491:7494   */\n      0x80\n        /* \"#utility.yul\":7480:7489   */\n      dup3\n        /* \"#utility.yul\":7476:7495   */\n      add\n        /* \"#utility.yul\":7468:7495   */\n      swap1\n      pop\n        /* \"#utility.yul\":7505:7576   */\n      tag_178\n        /* \"#utility.yul\":7573:7574   */\n      0x00\n        /* \"#utility.yul\":7562:7571   */\n      dup4\n        /* \"#utility.yul\":7558:7575   */\n      add\n        /* \"#utility.yul\":7549:7555   */\n      dup8\n        /* \"#utility.yul\":7505:7576   */\n      tag_69\n      jump\t// in\n    tag_178:\n        /* \"#utility.yul\":7586:7658   */\n      tag_179\n        /* \"#utility.yul\":7654:7656   */\n      0x20\n        /* \"#utility.yul\":7643:7652   */\n      dup4\n        /* \"#utility.yul\":7639:7657   */\n      add\n        /* \"#utility.yul\":7630:7636   */\n      dup7\n        /* \"#utility.yul\":7586:7658   */\n      tag_69\n      jump\t// in\n    tag_179:\n        /* \"#utility.yul\":7705:7714   */\n      dup2\n        /* \"#utility.yul\":7699:7703   */\n      dup2\n        /* \"#utility.yul\":7695:7715   */\n      sub\n        /* \"#utility.yul\":7690:7692   */\n      0x40\n        /* \"#utility.yul\":7679:7688   */\n      dup4\n        /* \"#utility.yul\":7675:7693   */\n      add\n        /* \"#utility.yul\":7668:7716   */\n      mstore\n        /* \"#utility.yul\":7733:7811   */\n      tag_180\n        /* \"#utility.yul\":7806:7810   */\n      dup2\n        /* \"#utility.yul\":7797:7803   */\n      dup6\n        /* \"#utility.yul\":7733:7811   */\n      tag_61\n      jump\t// in\n    tag_180:\n        /* \"#utility.yul\":7725:7811   */\n      swap1\n      pop\n        /* \"#utility.yul\":7821:7887   */\n      tag_181\n        /* \"#utility.yul\":7883:7885   */\n      0x60\n        /* \"#utility.yul\":7872:7881   */\n      dup4\n        /* \"#utility.yul\":7868:7886   */\n      add\n        /* \"#utility.yul\":7859:7865   */\n      dup5\n        /* \"#utility.yul\":7821:7887   */\n      tag_71\n      jump\t// in\n    tag_181:\n        /* \"#utility.yul\":7262:7894   */\n      swap6\n      swap5\n      pop\n      pop\n      pop\n      pop\n      pop\n      jump\t// out\n        /* \"#utility.yul\":7900:8048   */\n    tag_72:\n        /* \"#utility.yul\":8002:8013   */\n      0x00\n        /* \"#utility.yul\":8039:8042   */\n      dup2\n        /* \"#utility.yul\":8024:8042   */\n      swap1\n      pop\n        /* \"#utility.yul\":7900:8048   */\n      swap3\n      swap2\n      pop\n      pop\n      jump\t// out\n        /* \"#utility.yul\":8054:8444   */\n    tag_73:\n        /* \"#utility.yul\":8160:8163   */\n      0x00\n        /* \"#utility.yul\":8188:8227   */\n      tag_184\n        /* \"#utility.yul\":8221:8226   */\n      dup3\n        /* \"#utility.yul\":8188:8227   */\n      tag_58\n      jump\t// in\n    tag_184:\n        /* \"#utility.yul\":8243:8332   */\n      tag_185\n        /* \"#utility.yul\":8325:8331   */\n      dup2\n        /* \"#utility.yul\":8320:8323   */\n      dup6\n        /* \"#utility.yul\":8243:8332   */\n      tag_72\n      jump\t// in\n    tag_185:\n        /* \"#utility.yul\":8236:8332   */\n      swap4\n      pop\n        /* \"#utility.yul\":8341:8406   */\n      tag_186\n        /* \"#utility.yul\":8399:8405   */\n      dup2\n        /* \"#utility.yul\":8394:8397   */\n      dup6\n        /* \"#utility.yul\":8387:8391   */\n      0x20\n        /* \"#utility.yul\":8380:8385   */\n      dup7\n        /* \"#utility.yul\":8376:8392   */\n      add\n        /* \"#utility.yul\":8341:8406   */\n      tag_60\n      jump\t// in\n    tag_186:\n        /* \"#utility.yul\":8431:8437   */\n      dup1\n        /* \"#utility.yul\":8426:8429   */\n      dup5\n        /* \"#utility.yul\":8422:8438   */\n      add\n        /* \"#utility.yul\":8415:8438   */\n      swap2\n      pop\n        /* \"#utility.yul\":8164:8444   */\n      pop\n        /* \"#utility.yul\":8054:8444   */\n      swap3\n      swap2\n      pop\n      pop\n      jump\t// out\n        /* \"#utility.yul\":8450:8885   */\n    tag_32:\n        /* \"#utility.yul\":8630:8633   */\n      0x00\n        /* \"#utility.yul\":8652:8747   */\n      tag_188\n        /* \"#utility.yul\":8743:8746   */\n      dup3\n        /* \"#utility.yul\":8734:8740   */\n      dup6\n        /* \"#utility.yul\":8652:8747   */\n      tag_73\n      jump\t// in\n    tag_188:\n        /* \"#utility.yul\":8645:8747   */\n      swap2\n      pop\n        /* \"#utility.yul\":8764:8859   */\n      tag_189\n        /* \"#utility.yul\":8855:8858   */\n      dup3\n        /* \"#utility.yul\":8846:8852   */\n      dup5\n        /* \"#utility.yul\":8764:8859   */\n      tag_73\n      jump\t// in\n    tag_189:\n        /* \"#utility.yul\":8757:8859   */\n      swap2\n      pop\n        /* \"#utility.yul\":8876:8879   */\n      dup2\n        /* \"#utility.yul\":8869:8879   */\n      swap1\n      pop\n        /* \"#utility.yul\":8450:8885   */\n      swap4\n      swap3\n      pop\n      pop\n      pop\n      jump\t// out\n        /* \"#utility.yul\":8891:8977   */\n    tag_74:\n        /* \"#utility.yul\":8926:8933   */\n      0x00\n        /* \"#utility.yul\":8966:8970   */\n      0xff\n        /* \"#utility.yul\":8959:8964   */\n      dup3\n        /* \"#utility.yul\":8955:8971   */\n      and\n        /* \"#utility.yul\":8944:8971   */\n      swap1\n      pop\n        /* \"#utility.yul\":8891:8977   */\n      swap2\n      swap1\n      pop\n      jump\t// out\n        /* \"#utility.yul\":8983:9079   */\n    tag_75:\n        /* \"#utility.yul\":9017:9025   */\n      0x00\n        /* \"#utility.yul\":9066:9071   */\n      dup2\n        /* \"#utility.yul\":9061:9064   */\n      0xf8\n        /* \"#utility.yul\":9057:9072   */\n      shl\n        /* \"#utility.yul\":9036:9072   */\n      swap1\n      pop\n        /* \"#utility.yul\":8983:9079   */\n      swap2\n      swap1\n      pop\n      jump\t// out\n        /* \"#utility.yul\":9085:9178   */\n    tag_76:\n        /* \"#utility.yul\":9122:9129   */\n      0x00\n        /* \"#utility.yul\":9151:9172   */\n      tag_193\n        /* \"#utility.yul\":9166:9171   */\n      dup3\n        /* \"#utility.yul\":9151:9172   */\n      tag_75\n      jump\t// in\n    tag_193:\n        /* \"#utility.yul\":9140:9172   */\n      swap1\n      pop\n        /* \"#utility.yul\":9085:9178   */\n      swap2\n      swap1\n      pop\n      jump\t// out\n        /* \"#utility.yul\":9184:9333   */\n    tag_77:\n        /* \"#utility.yul\":9285:9326   */\n      tag_195\n        /* \"#utility.yul\":9303:9325   */\n      tag_196\n        /* \"#utility.yul\":9319:9324   */\n      dup3\n        /* \"#utility.yul\":9303:9325   */\n      tag_74\n      jump\t// in\n    tag_196:\n        /* \"#utility.yul\":9285:9326   */\n      tag_76\n      jump\t// in\n    tag_195:\n        /* \"#utility.yul\":9280:9283   */\n      dup3\n        /* \"#utility.yul\":9273:9327   */\n      mstore\n        /* \"#utility.yul\":9184:9333   */\n      pop\n      pop\n      jump\t// out\n        /* \"#utility.yul\":9339:9428   */\n    tag_78:\n        /* \"#utility.yul\":9375:9382   */\n      0x00\n        /* \"#utility.yul\":9415:9421   */\n      0xffff\n        /* \"#utility.yul\":9408:9413   */\n      dup3\n        /* \"#utility.yul\":9404:9422   */\n      and\n        /* \"#utility.yul\":9393:9422   */\n      swap1\n      pop\n        /* \"#utility.yul\":9339:9428   */\n      swap2\n      swap1\n      pop\n      jump\t// out\n        /* \"#utility.yul\":9434:9530   */\n    tag_79:\n        /* \"#utility.yul\":9468:9476   */\n      0x00\n        /* \"#utility.yul\":9517:9522   */\n      dup2\n        /* \"#utility.yul\":9512:9515   */\n      0xf0\n        /* \"#utility.yul\":9508:9523   */\n      shl\n        /* \"#utility.yul\":9487:9523   */\n      swap1\n      pop\n        /* \"#utility.yul\":9434:9530   */\n      swap2\n      swap1\n      pop\n      jump\t// out\n        /* \"#utility.yul\":9536:9630   */\n    tag_80:\n        /* \"#utility.yul\":9574:9581   */\n      0x00\n        /* \"#utility.yul\":9603:9624   */\n      tag_200\n        /* \"#utility.yul\":9618:9623   */\n      dup3\n        /* \"#utility.yul\":9603:9624   */\n      tag_79\n      jump\t// in\n    tag_200:\n        /* \"#utility.yul\":9592:9624   */\n      swap1\n      pop\n        /* \"#utility.yul\":9536:9630   */\n      swap2\n      swap1\n      pop\n      jump\t// out\n        /* \"#utility.yul\":9636:9789   */\n    tag_81:\n        /* \"#utility.yul\":9739:9782   */\n      tag_202\n        /* \"#utility.yul\":9758:9781   */\n      tag_203\n        /* \"#utility.yul\":9775:9780   */\n      dup3\n        /* \"#utility.yul\":9758:9781   */\n      tag_78\n      jump\t// in\n    tag_203:\n        /* \"#utility.yul\":9739:9782   */\n      tag_80\n      jump\t// in\n    tag_202:\n        /* \"#utility.yul\":9734:9737   */\n      dup3\n        /* \"#utility.yul\":9727:9783   */\n      mstore\n        /* \"#utility.yul\":9636:9789   */\n      pop\n      pop\n      jump\t// out\n        /* \"#utility.yul\":9795:10338   */\n    tag_35:\n        /* \"#utility.yul\":9977:9980   */\n      0x00\n        /* \"#utility.yul\":9992:10063   */\n      tag_205\n        /* \"#utility.yul\":10059:10062   */\n      dup3\n        /* \"#utility.yul\":10050:10056   */\n      dup7\n        /* \"#utility.yul\":9992:10063   */\n      tag_77\n      jump\t// in\n    tag_205:\n        /* \"#utility.yul\":10088:10089   */\n      0x01\n        /* \"#utility.yul\":10083:10086   */\n      dup3\n        /* \"#utility.yul\":10079:10090   */\n      add\n        /* \"#utility.yul\":10072:10090   */\n      swap2\n      pop\n        /* \"#utility.yul\":10100:10173   */\n      tag_206\n        /* \"#utility.yul\":10169:10172   */\n      dup3\n        /* \"#utility.yul\":10160:10166   */\n      dup6\n        /* \"#utility.yul\":10100:10173   */\n      tag_81\n      jump\t// in\n    tag_206:\n        /* \"#utility.yul\":10198:10199   */\n      0x02\n        /* \"#utility.yul\":10193:10196   */\n      dup3\n        /* \"#utility.yul\":10189:10200   */\n      add\n        /* \"#utility.yul\":10182:10200   */\n      swap2\n      pop\n        /* \"#utility.yul\":10217:10312   */\n      tag_207\n        /* \"#utility.yul\":10308:10311   */\n      dup3\n        /* \"#utility.yul\":10299:10305   */\n      dup5\n        /* \"#utility.yul\":10217:10312   */\n      tag_73\n      jump\t// in\n    tag_207:\n        /* \"#utility.yul\":10210:10312   */\n      swap2\n      pop\n        /* \"#utility.yul\":10329:10332   */\n      dup2\n        /* \"#utility.yul\":10322:10332   */\n      swap1\n      pop\n        /* \"#utility.yul\":9795:10338   */\n      swap5\n      swap4\n      pop\n      pop\n      pop\n      pop\n      jump\t// out\n        /* \"#utility.yul\":10344:10430   */\n    tag_82:\n        /* \"#utility.yul\":10390:10397   */\n      0x00\n        /* \"#utility.yul\":10419:10424   */\n      dup2\n        /* \"#utility.yul\":10408:10424   */\n      swap1\n      pop\n        /* \"#utility.yul\":10344:10430   */\n      swap2\n      swap1\n      pop\n      jump\t// out\n        /* \"#utility.yul\":10436:10496   */\n    tag_83:\n        /* \"#utility.yul\":10464:10467   */\n      0x00\n        /* \"#utility.yul\":10485:10490   */\n      dup2\n        /* \"#utility.yul\":10478:10490   */\n      swap1\n      pop\n        /* \"#utility.yul\":10436:10496   */\n      swap2\n      swap1\n      pop\n      jump\t// out\n        /* \"#utility.yul\":10502:10658   */\n    tag_84:\n        /* \"#utility.yul\":10559:10568   */\n      0x00\n        /* \"#utility.yul\":10592:10652   */\n      tag_211\n        /* \"#utility.yul\":10608:10651   */\n      tag_212\n        /* \"#utility.yul\":10617:10650   */\n      tag_213\n        /* \"#utility.yul\":10644:10649   */\n      dup5\n        /* \"#utility.yul\":10617:10650   */\n      tag_82\n      jump\t// in\n    tag_213:\n        /* \"#utility.yul\":10608:10651   */\n      tag_83\n      jump\t// in\n    tag_212:\n        /* \"#utility.yul\":10592:10652   */\n      tag_74\n      jump\t// in\n    tag_211:\n        /* \"#utility.yul\":10579:10652   */\n      swap1\n      pop\n        /* \"#utility.yul\":10502:10658   */\n      swap2\n      swap1\n      pop\n      jump\t// out\n        /* \"#utility.yul\":10664:10809   */\n    tag_85:\n        /* \"#utility.yul\":10758:10802   */\n      tag_215\n        /* \"#utility.yul\":10796:10801   */\n      dup2\n        /* \"#utility.yul\":10758:10802   */\n      tag_84\n      jump\t// in\n    tag_215:\n        /* \"#utility.yul\":10753:10756   */\n      dup3\n        /* \"#utility.yul\":10746:10803   */\n      mstore\n        /* \"#utility.yul\":10664:10809   */\n      pop\n      pop\n      jump\t// out\n        /* \"#utility.yul\":10815:11051   */\n    tag_38:\n        /* \"#utility.yul\":10915:10919   */\n      0x00\n        /* \"#utility.yul\":10953:10955   */\n      0x20\n        /* \"#utility.yul\":10942:10951   */\n      dup3\n        /* \"#utility.yul\":10938:10956   */\n      add\n        /* \"#utility.yul\":10930:10956   */\n      swap1\n      pop\n        /* \"#utility.yul\":10966:11044   */\n      tag_217\n        /* \"#utility.yul\":11041:11042   */\n      0x00\n        /* \"#utility.yul\":11030:11039   */\n      dup4\n        /* \"#utility.yul\":11026:11043   */\n      add\n        /* \"#utility.yul\":11017:11023   */\n      dup5\n        /* \"#utility.yul\":10966:11044   */\n      tag_85\n      jump\t// in\n    tag_217:\n        /* \"#utility.yul\":10815:11051   */\n      swap3\n      swap2\n      pop\n      pop\n      jump\t// out\n        /* \"#utility.yul\":11057:11142   */\n    tag_86:\n        /* \"#utility.yul\":11102:11109   */\n      0x00\n        /* \"#utility.yul\":11131:11136   */\n      dup2\n        /* \"#utility.yul\":11120:11136   */\n      swap1\n      pop\n        /* \"#utility.yul\":11057:11142   */\n      swap2\n      swap1\n      pop\n      jump\t// out\n        /* \"#utility.yul\":11148:11302   */\n    tag_87:\n        /* \"#utility.yul\":11204:11213   */\n      0x00\n        /* \"#utility.yul\":11237:11296   */\n      tag_220\n        /* \"#utility.yul\":11253:11295   */\n      tag_221\n        /* \"#utility.yul\":11262:11294   */\n      tag_222\n        /* \"#utility.yul\":11288:11293   */\n      dup5\n        /* \"#utility.yul\":11262:11294   */\n      tag_86\n      jump\t// in\n    tag_222:\n        /* \"#utility.yul\":11253:11295   */\n      tag_83\n      jump\t// in\n    tag_221:\n        /* \"#utility.yul\":11237:11296   */\n      tag_74\n      jump\t// in\n    tag_220:\n        /* \"#utility.yul\":11224:11296   */\n      swap1\n      pop\n        /* \"#utility.yul\":11148:11302   */\n      swap2\n      swap1\n      pop\n      jump\t// out\n        /* \"#utility.yul\":11308:11451   */\n    tag_88:\n        /* \"#utility.yul\":11401:11444   */\n      tag_224\n        /* \"#utility.yul\":11438:11443   */\n      dup2\n        /* \"#utility.yul\":11401:11444   */\n      tag_87\n      jump\t// in\n    tag_224:\n        /* \"#utility.yul\":11396:11399   */\n      dup3\n        /* \"#utility.yul\":11389:11445   */\n      mstore\n        /* \"#utility.yul\":11308:11451   */\n      pop\n      pop\n      jump\t// out\n        /* \"#utility.yul\":11457:11542   */\n    tag_89:\n        /* \"#utility.yul\":11502:11509   */\n      0x00\n        /* \"#utility.yul\":11531:11536   */\n      dup2\n        /* \"#utility.yul\":11520:11536   */\n      swap1\n      pop\n        /* \"#utility.yul\":11457:11542   */\n      swap2\n      swap1\n      pop\n      jump\t// out\n        /* \"#utility.yul\":11548:11702   */\n    tag_90:\n        /* \"#utility.yul\":11604:11613   */\n      0x00\n        /* \"#utility.yul\":11637:11696   */\n      tag_227\n        /* \"#utility.yul\":11653:11695   */\n      tag_228\n        /* \"#utility.yul\":11662:11694   */\n      tag_229\n        /* \"#utility.yul\":11688:11693   */\n      dup5\n        /* \"#utility.yul\":11662:11694   */\n      tag_89\n      jump\t// in\n    tag_229:\n        /* \"#utility.yul\":11653:11695   */\n      tag_83\n      jump\t// in\n    tag_228:\n        /* \"#utility.yul\":11637:11696   */\n      tag_74\n      jump\t// in\n    tag_227:\n        /* \"#utility.yul\":11624:11696   */\n      swap1\n      pop\n        /* \"#utility.yul\":11548:11702   */\n      swap2\n      swap1\n      pop\n      jump\t// out\n        /* \"#utility.yul\":11708:11851   */\n    tag_91:\n        /* \"#utility.yul\":11801:11844   */\n      tag_231\n        /* \"#utility.yul\":11838:11843   */\n      dup2\n        /* \"#utility.yul\":11801:11844   */\n      tag_90\n      jump\t// in\n    tag_231:\n        /* \"#utility.yul\":11796:11799   */\n      dup3\n        /* \"#utility.yul\":11789:11845   */\n      mstore\n        /* \"#utility.yul\":11708:11851   */\n      pop\n      pop\n      jump\t// out\n        /* \"#utility.yul\":11857:12018   */\n    tag_92:\n        /* \"#utility.yul\":11997:12010   */\n      0x48656c6c6f20576f726c64000000000000000000000000000000000000000000\n        /* \"#utility.yul\":11993:11994   */\n      0x00\n        /* \"#utility.yul\":11985:11991   */\n      dup3\n        /* \"#utility.yul\":11981:11995   */\n      add\n        /* \"#utility.yul\":11974:12011   */\n      mstore\n        /* \"#utility.yul\":11857:12018   */\n      pop\n      jump\t// out\n        /* \"#utility.yul\":12024:12390   */\n    tag_93:\n        /* \"#utility.yul\":12166:12169   */\n      0x00\n        /* \"#utility.yul\":12187:12254   */\n      tag_234\n        /* \"#utility.yul\":12251:12253   */\n      0x0b\n        /* \"#utility.yul\":12246:12249   */\n      dup4\n        /* \"#utility.yul\":12187:12254   */\n      tag_59\n      jump\t// in\n    tag_234:\n        /* \"#utility.yul\":12180:12254   */\n      swap2\n      pop\n        /* \"#utility.yul\":12263:12356   */\n      tag_235\n        /* \"#utility.yul\":12352:12355   */\n      dup3\n        /* \"#utility.yul\":12263:12356   */\n      tag_92\n      jump\t// in\n    tag_235:\n        /* \"#utility.yul\":12381:12383   */\n      0x20\n        /* \"#utility.yul\":12376:12379   */\n      dup3\n        /* \"#utility.yul\":12372:12384   */\n      add\n        /* \"#utility.yul\":12365:12384   */\n      swap1\n      pop\n        /* \"#utility.yul\":12024:12390   */\n      swap2\n      swap1\n      pop\n      jump\t// out\n        /* \"#utility.yul\":12396:13158   */\n    tag_41:\n        /* \"#utility.yul\":12652:12656   */\n      0x00\n        /* \"#utility.yul\":12690:12693   */\n      0x80\n        /* \"#utility.yul\":12679:12688   */\n      dup3\n        /* \"#utility.yul\":12675:12694   */\n      add\n        /* \"#utility.yul\":12667:12694   */\n      swap1\n      pop\n        /* \"#utility.yul\":12704:12781   */\n      tag_237\n        /* \"#utility.yul\":12778:12779   */\n      0x00\n        /* \"#utility.yul\":12767:12776   */\n      dup4\n        /* \"#utility.yul\":12763:12780   */\n      add\n        /* \"#utility.yul\":12754:12760   */\n      dup7\n        /* \"#utility.yul\":12704:12781   */\n      tag_88\n      jump\t// in\n    tag_237:\n        /* \"#utility.yul\":12791:12869   */\n      tag_238\n        /* \"#utility.yul\":12865:12867   */\n      0x20\n        /* \"#utility.yul\":12854:12863   */\n      dup4\n        /* \"#utility.yul\":12850:12868   */\n      add\n        /* \"#utility.yul\":12841:12847   */\n      dup6\n        /* \"#utility.yul\":12791:12869   */\n      tag_91\n      jump\t// in\n    tag_238:\n        /* \"#utility.yul\":12916:12925   */\n      dup2\n        /* \"#utility.yul\":12910:12914   */\n      dup2\n        /* \"#utility.yul\":12906:12926   */\n      sub\n        /* \"#utility.yul\":12901:12903   */\n      0x40\n        /* \"#utility.yul\":12890:12899   */\n      dup4\n        /* \"#utility.yul\":12886:12904   */\n      add\n        /* \"#utility.yul\":12879:12927   */\n      mstore\n        /* \"#utility.yul\":12944:13075   */\n      tag_239\n        /* \"#utility.yul\":13070:13074   */\n      dup2\n        /* \"#utility.yul\":12944:13075   */\n      tag_93\n      jump\t// in\n    tag_239:\n        /* \"#utility.yul\":12936:13075   */\n      swap1\n      pop\n        /* \"#utility.yul\":13085:13151   */\n      tag_240\n        /* \"#utility.yul\":13147:13149   */\n      0x60\n        /* \"#utility.yul\":13136:13145   */\n      dup4\n        /* \"#utility.yul\":13132:13150   */\n      add\n        /* \"#utility.yul\":13123:13129   */\n      dup5\n        /* \"#utility.yul\":13085:13151   */\n      tag_71\n      jump\t// in\n    tag_240:\n        /* \"#utility.yul\":12396:13158   */\n      swap5\n      swap4\n      pop\n      pop\n      pop\n      pop\n      jump\t// out\n        /* \"#utility.yul\":13164:13286   */\n    tag_94:\n        /* \"#utility.yul\":13237:13261   */\n      tag_242\n        /* \"#utility.yul\":13255:13260   */\n      dup2\n        /* \"#utility.yul\":13237:13261   */\n      tag_68\n      jump\t// in\n    tag_242:\n        /* \"#utility.yul\":13230:13235   */\n      dup2\n        /* \"#utility.yul\":13227:13262   */\n      eq\n        /* \"#utility.yul\":13217:13280   */\n      tag_243\n      jumpi\n        /* \"#utility.yul\":13276:13277   */\n      0x00\n        /* \"#utility.yul\":13273:13274   */\n      dup1\n        /* \"#utility.yul\":13266:13278   */\n      revert\n        /* \"#utility.yul\":13217:13280   */\n    tag_243:\n        /* \"#utility.yul\":13164:13286   */\n      pop\n      jump\t// out\n        /* \"#utility.yul\":13292:13431   */\n    tag_95:\n        /* \"#utility.yul\":13338:13343   */\n      0x00\n        /* \"#utility.yul\":13376:13382   */\n      dup2\n        /* \"#utility.yul\":13363:13383   */\n      calldataload\n        /* \"#utility.yul\":13354:13383   */\n      swap1\n      pop\n        /* \"#utility.yul\":13392:13425   */\n      tag_245\n        /* \"#utility.yul\":13419:13424   */\n      dup2\n        /* \"#utility.yul\":13392:13425   */\n      tag_94\n      jump\t// in\n    tag_245:\n        /* \"#utility.yul\":13292:13431   */\n      swap3\n      swap2\n      pop\n      pop\n      jump\t// out\n        /* \"#utility.yul\":13437:13553   */\n    tag_96:\n        /* \"#utility.yul\":13507:13528   */\n      tag_247\n        /* \"#utility.yul\":13522:13527   */\n      dup2\n        /* \"#utility.yul\":13507:13528   */\n      tag_70\n      jump\t// in\n    tag_247:\n        /* \"#utility.yul\":13500:13505   */\n      dup2\n        /* \"#utility.yul\":13497:13529   */\n      eq\n        /* \"#utility.yul\":13487:13547   */\n      tag_248\n      jumpi\n        /* \"#utility.yul\":13543:13544   */\n      0x00\n        /* \"#utility.yul\":13540:13541   */\n      dup1\n        /* \"#utility.yul\":13533:13545   */\n      revert\n        /* \"#utility.yul\":13487:13547   */\n    tag_248:\n        /* \"#utility.yul\":13437:13553   */\n      pop\n      jump\t// out\n        /* \"#utility.yul\":13559:13692   */\n    tag_97:\n        /* \"#utility.yul\":13602:13607   */\n      0x00\n        /* \"#utility.yul\":13640:13646   */\n      dup2\n        /* \"#utility.yul\":13627:13647   */\n      calldataload\n        /* \"#utility.yul\":13618:13647   */\n      swap1\n      pop\n        /* \"#utility.yul\":13656:13686   */\n      tag_250\n        /* \"#utility.yul\":13680:13685   */\n      dup2\n        /* \"#utility.yul\":13656:13686   */\n      tag_96\n      jump\t// in\n    tag_250:\n        /* \"#utility.yul\":13559:13692   */\n      swap3\n      swap2\n      pop\n      pop\n      jump\t// out\n        /* \"#utility.yul\":13698:14637   */\n    tag_44:\n        /* \"#utility.yul\":13791:13797   */\n      0x00\n        /* \"#utility.yul\":13799:13805   */\n      dup1\n        /* \"#utility.yul\":13807:13813   */\n      0x00\n        /* \"#utility.yul\":13815:13821   */\n      dup1\n        /* \"#utility.yul\":13864:13867   */\n      0x80\n        /* \"#utility.yul\":13852:13861   */\n      dup6\n        /* \"#utility.yul\":13843:13850   */\n      dup8\n        /* \"#utility.yul\":13839:13862   */\n      sub\n        /* \"#utility.yul\":13835:13868   */\n      slt\n        /* \"#utility.yul\":13832:13952   */\n      iszero\n      tag_252\n      jumpi\n        /* \"#utility.yul\":13871:13950   */\n      tag_253\n      tag_46\n      jump\t// in\n    tag_253:\n        /* \"#utility.yul\":13832:13952   */\n    tag_252:\n        /* \"#utility.yul\":13991:13992   */\n      0x00\n        /* \"#utility.yul\":14016:14069   */\n      tag_254\n        /* \"#utility.yul\":14061:14068   */\n      dup8\n        /* \"#utility.yul\":14052:14058   */\n      dup3\n        /* \"#utility.yul\":14041:14050   */\n      dup9\n        /* \"#utility.yul\":14037:14059   */\n      add\n        /* \"#utility.yul\":14016:14069   */\n      tag_95\n      jump\t// in\n    tag_254:\n        /* \"#utility.yul\":14006:14069   */\n      swap5\n      pop\n        /* \"#utility.yul\":13962:14079   */\n      pop\n        /* \"#utility.yul\":14118:14120   */\n      0x20\n        /* \"#utility.yul\":14144:14197   */\n      tag_255\n        /* \"#utility.yul\":14189:14196   */\n      dup8\n        /* \"#utility.yul\":14180:14186   */\n      dup3\n        /* \"#utility.yul\":14169:14178   */\n      dup9\n        /* \"#utility.yul\":14165:14187   */\n      add\n        /* \"#utility.yul\":14144:14197   */\n      tag_95\n      jump\t// in\n    tag_255:\n        /* \"#utility.yul\":14134:14197   */\n      swap4\n      pop\n        /* \"#utility.yul\":14089:14207   */\n      pop\n        /* \"#utility.yul\":14274:14276   */\n      0x40\n        /* \"#utility.yul\":14263:14272   */\n      dup6\n        /* \"#utility.yul\":14259:14277   */\n      add\n        /* \"#utility.yul\":14246:14278   */\n      calldataload\n        /* \"#utility.yul\":14305:14323   */\n      0xffffffffffffffff\n        /* \"#utility.yul\":14297:14303   */\n      dup2\n        /* \"#utility.yul\":14294:14324   */\n      gt\n        /* \"#utility.yul\":14291:14408   */\n      iszero\n      tag_256\n      jumpi\n        /* \"#utility.yul\":14327:14406   */\n      tag_257\n      tag_47\n      jump\t// in\n    tag_257:\n        /* \"#utility.yul\":14291:14408   */\n    tag_256:\n        /* \"#utility.yul\":14432:14495   */\n      tag_258\n        /* \"#utility.yul\":14487:14494   */\n      dup8\n        /* \"#utility.yul\":14478:14484   */\n      dup3\n        /* \"#utility.yul\":14467:14476   */\n      dup9\n        /* \"#utility.yul\":14463:14485   */\n      add\n        /* \"#utility.yul\":14432:14495   */\n      tag_57\n      jump\t// in\n    tag_258:\n        /* \"#utility.yul\":14422:14495   */\n      swap3\n      pop\n        /* \"#utility.yul\":14217:14505   */\n      pop\n        /* \"#utility.yul\":14544:14546   */\n      0x60\n        /* \"#utility.yul\":14570:14620   */\n      tag_259\n        /* \"#utility.yul\":14612:14619   */\n      dup8\n        /* \"#utility.yul\":14603:14609   */\n      dup3\n        /* \"#utility.yul\":14592:14601   */\n      dup9\n        /* \"#utility.yul\":14588:14610   */\n      add\n        /* \"#utility.yul\":14570:14620   */\n      tag_97\n      jump\t// in\n    tag_259:\n        /* \"#utility.yul\":14560:14620   */\n      swap2\n      pop\n        /* \"#utility.yul\":14515:14630   */\n      pop\n        /* \"#utility.yul\":13698:14637   */\n      swap3\n      swap6\n      swap2\n      swap5\n      pop\n      swap3\n      pop\n      jump\t// out\n\n    auxdata: 0xa26469706673582212202fe30ae8e95539902ff7b49c546f1da73ea2115df4c25e8ce7421364511901b964736f6c63430008190033\n}\n",
				"bytecode": {
					"linkReferences": {},
					"object": "6080604052348015600e575f80fd5b506109e58061001c5f395ff3fe608060405234801561000f575f80fd5b5060043610610055575f3560e01c80631641deba14610059578063434b405e146100895780637a7cbf93146100a7578063bd14598f146100c5578063e5c5e9a3146100e3575b5f80fd5b610073600480360381019061006e91906103da565b610116565b60405161008091906104b0565b60405180910390f35b610091610142565b60405161009e9190610522565b60405180910390f35b6100af6101a4565b6040516100bc9190610522565b60405180910390f35b6100cd61023a565b6040516100da9190610522565b60405180910390f35b6100fd60048036038101906100f8919061059f565b610268565b60405161010d949392919061061c565b60405180910390f35b6060828260405160200161012b9291906106a0565b604051602081830303815290604052905092915050565b6060600360096040518060400160405280600b81526020017f48656c6c6f20576f726c6400000000000000000000000000000000000000000081525060405160200161019093929190610744565b604051602081830303815290604052905090565b6060603a6040516024016101b891906107be565b6040516020818303038152906040527f62550916000000000000000000000000000000000000000000000000000000007bffffffffffffffffffffffffffffffffffffffffffffffffffffffff19166020820180517bffffffffffffffffffffffffffffffffffffffffffffffffffffffff8381831617835250505050905090565b606060036009600160405160200161025493929190610893565b604051602081830303815290604052905090565b5f8060605f858581019061027c919061092f565b935093509350935092959194509250565b5f604051905090565b5f80fd5b5f80fd5b5f80fd5b5f80fd5b5f601f19601f8301169050919050565b7f4e487b71000000000000000000000000000000000000000000000000000000005f52604160045260245ffd5b6102ec826102a6565b810181811067ffffffffffffffff8211171561030b5761030a6102b6565b5b80604052505050565b5f61031d61028d565b905061032982826102e3565b919050565b5f67ffffffffffffffff821115610348576103476102b6565b5b610351826102a6565b9050602081019050919050565b828183375f83830152505050565b5f61037e6103798461032e565b610314565b90508281526020810184848401111561039a576103996102a2565b5b6103a584828561035e565b509392505050565b5f82601f8301126103c1576103c061029e565b5b81356103d184826020860161036c565b91505092915050565b5f80604083850312156103f0576103ef610296565b5b5f83013567ffffffffffffffff81111561040d5761040c61029a565b5b610419858286016103ad565b925050602083013567ffffffffffffffff81111561043a5761043961029a565b5b610446858286016103ad565b9150509250929050565b5f81519050919050565b5f82825260208201905092915050565b8281835e5f83830152505050565b5f61048282610450565b61048c818561045a565b935061049c81856020860161046a565b6104a5816102a6565b840191505092915050565b5f6020820190508181035f8301526104c88184610478565b905092915050565b5f81519050919050565b5f82825260208201905092915050565b5f6104f4826104d0565b6104fe81856104da565b935061050e81856020860161046a565b610517816102a6565b840191505092915050565b5f6020820190508181035f83015261053a81846104ea565b905092915050565b5f80fd5b5f80fd5b5f8083601f84011261055f5761055e61029e565b5b8235905067ffffffffffffffff81111561057c5761057b610542565b5b60208301915083600182028301111561059857610597610546565b5b9250929050565b5f80602083850312156105b5576105b4610296565b5b5f83013567ffffffffffffffff8111156105d2576105d161029a565b5b6105de8582860161054a565b92509250509250929050565b5f819050919050565b6105fc816105ea565b82525050565b5f8115159050919050565b61061681610602565b82525050565b5f60808201905061062f5f8301876105f3565b61063c60208301866105f3565b818103604083015261064e8185610478565b905061065d606083018461060d565b95945050505050565b5f81905092915050565b5f61067a82610450565b6106848185610666565b935061069481856020860161046a565b80840191505092915050565b5f6106ab8285610670565b91506106b78284610670565b91508190509392505050565b5f60ff82169050919050565b5f8160f81b9050919050565b5f6106e5826106cf565b9050919050565b6106fd6106f8826106c3565b6106db565b82525050565b5f61ffff82169050919050565b5f8160f01b9050919050565b5f61072682610710565b9050919050565b61073e61073982610703565b61071c565b82525050565b5f61074f82866106ec565b60018201915061075f828561072d565b60028201915061076f8284610670565b9150819050949350505050565b5f819050919050565b5f819050919050565b5f6107a86107a361079e8461077c565b610785565b6106c3565b9050919050565b6107b88161078e565b82525050565b5f6020820190506107d15f8301846107af565b92915050565b5f819050919050565b5f6107fa6107f56107f0846107d7565b610785565b6106c3565b9050919050565b61080a816107e0565b82525050565b5f819050919050565b5f61083361082e61082984610810565b610785565b6106c3565b9050919050565b61084381610819565b82525050565b7f48656c6c6f20576f726c640000000000000000000000000000000000000000005f82015250565b5f61087d600b8361045a565b915061088882610849565b602082019050919050565b5f6080820190506108a65f830186610801565b6108b3602083018561083a565b81810360408301526108c481610871565b90506108d3606083018461060d565b949350505050565b6108e4816105ea565b81146108ee575f80fd5b50565b5f813590506108ff816108db565b92915050565b61090e81610602565b8114610918575f80fd5b50565b5f8135905061092981610905565b92915050565b5f805f806080858703121561094757610946610296565b5b5f610954878288016108f1565b9450506020610965878288016108f1565b935050604085013567ffffffffffffffff8111156109865761098561029a565b5b610992878288016103ad565b92505060606109a38782880161091b565b9150509295919450925056fea26469706673582212202fe30ae8e95539902ff7b49c546f1da73ea2115df4c25e8ce7421364511901b964736f6c63430008190033",
					"opcodes": "PUSH1 0x80 PUSH1 0x40 MSTORE CALLVALUE DUP1 ISZERO PUSH1 0xE JUMPI PUSH0 DUP1 REVERT JUMPDEST POP PUSH2 0x9E5 DUP1 PUSH2 0x1C PUSH0 CODECOPY PUSH0 RETURN INVALID PUSH1 0x80 PUSH1 0x40 MSTORE CALLVALUE DUP1 ISZERO PUSH2 0xF JUMPI PUSH0 DUP1 REVERT JUMPDEST POP PUSH1 0x4 CALLDATASIZE LT PUSH2 0x55 JUMPI PUSH0 CALLDATALOAD PUSH1 0xE0 SHR DUP1 PUSH4 0x1641DEBA EQ PUSH2 0x59 JUMPI DUP1 PUSH4 0x434B405E EQ PUSH2 0x89 JUMPI DUP1 PUSH4 0x7A7CBF93 EQ PUSH2 0xA7 JUMPI DUP1 PUSH4 0xBD14598F EQ PUSH2 0xC5 JUMPI DUP1 PUSH4 0xE5C5E9A3 EQ PUSH2 0xE3 JUMPI JUMPDEST PUSH0 DUP1 REVERT JUMPDEST PUSH2 0x73 PUSH1 0x4 DUP1 CALLDATASIZE SUB DUP2 ADD SWAP1 PUSH2 0x6E SWAP2 SWAP1 PUSH2 0x3DA JUMP JUMPDEST PUSH2 0x116 JUMP JUMPDEST PUSH1 0x40 MLOAD PUSH2 0x80 SWAP2 SWAP1 PUSH2 0x4B0 JUMP JUMPDEST PUSH1 0x40 MLOAD DUP1 SWAP2 SUB SWAP1 RETURN JUMPDEST PUSH2 0x91 PUSH2 0x142 JUMP JUMPDEST PUSH1 0x40 MLOAD PUSH2 0x9E SWAP2 SWAP1 PUSH2 0x522 JUMP JUMPDEST PUSH1 0x40 MLOAD DUP1 SWAP2 SUB SWAP1 RETURN JUMPDEST PUSH2 0xAF PUSH2 0x1A4 JUMP JUMPDEST PUSH1 0x40 MLOAD PUSH2 0xBC SWAP2 SWAP1 PUSH2 0x522 JUMP JUMPDEST PUSH1 0x40 MLOAD DUP1 SWAP2 SUB SWAP1 RETURN JUMPDEST PUSH2 0xCD PUSH2 0x23A JUMP JUMPDEST PUSH1 0x40 MLOAD PUSH2 0xDA SWAP2 SWAP1 PUSH2 0x522 JUMP JUMPDEST PUSH1 0x40 MLOAD DUP1 SWAP2 SUB SWAP1 RETURN JUMPDEST PUSH2 0xFD PUSH1 0x4 DUP1 CALLDATASIZE SUB DUP2 ADD SWAP1 PUSH2 0xF8 SWAP2 SWAP1 PUSH2 0x59F JUMP JUMPDEST PUSH2 0x268 JUMP JUMPDEST PUSH1 0x40 MLOAD PUSH2 0x10D SWAP5 SWAP4 SWAP3 SWAP2 SWAP1 PUSH2 0x61C JUMP JUMPDEST PUSH1 0x40 MLOAD DUP1 SWAP2 SUB SWAP1 RETURN JUMPDEST PUSH1 0x60 DUP3 DUP3 PUSH1 0x40 MLOAD PUSH1 0x20 ADD PUSH2 0x12B SWAP3 SWAP2 SWAP1 PUSH2 0x6A0 JUMP JUMPDEST PUSH1 0x40 MLOAD PUSH1 0x20 DUP2 DUP4 SUB SUB DUP2 MSTORE SWAP1 PUSH1 0x40 MSTORE SWAP1 POP SWAP3 SWAP2 POP POP JUMP JUMPDEST PUSH1 0x60 PUSH1 0x3 PUSH1 0x9 PUSH1 0x40 MLOAD DUP1 PUSH1 0x40 ADD PUSH1 0x40 MSTORE DUP1 PUSH1 0xB DUP2 MSTORE PUSH1 0x20 ADD PUSH32 0x48656C6C6F20576F726C64000000000000000000000000000000000000000000 DUP2 MSTORE POP PUSH1 0x40 MLOAD PUSH1 0x20 ADD PUSH2 0x190 SWAP4 SWAP3 SWAP2 SWAP1 PUSH2 0x744 JUMP JUMPDEST PUSH1 0x40 MLOAD PUSH1 0x20 DUP2 DUP4 SUB SUB DUP2 MSTORE SWAP1 PUSH1 0x40 MSTORE SWAP1 POP SWAP1 JUMP JUMPDEST PUSH1 0x60 PUSH1 0x3A PUSH1 0x40 MLOAD PUSH1 0x24 ADD PUSH2 0x1B8 SWAP2 SWAP1 PUSH2 0x7BE JUMP JUMPDEST PUSH1 0x40 MLOAD PUSH1 0x20 DUP2 DUP4 SUB SUB DUP2 MSTORE SWAP1 PUSH1 0x40 MSTORE PUSH32 0x6255091600000000000000000000000000000000000000000000000000000000 PUSH28 0xFFFFFFFFFFFFFFFFFFFFFFFFFFFFFFFFFFFFFFFFFFFFFFFFFFFFFFFF NOT AND PUSH1 0x20 DUP3 ADD DUP1 MLOAD PUSH28 0xFFFFFFFFFFFFFFFFFFFFFFFFFFFFFFFFFFFFFFFFFFFFFFFFFFFFFFFF DUP4 DUP2 DUP4 AND OR DUP4 MSTORE POP POP POP POP SWAP1 POP SWAP1 JUMP JUMPDEST PUSH1 0x60 PUSH1 0x3 PUSH1 0x9 PUSH1 0x1 PUSH1 0x40 MLOAD PUSH1 0x20 ADD PUSH2 0x254 SWAP4 SWAP3 SWAP2 SWAP1 PUSH2 0x893 JUMP JUMPDEST PUSH1 0x40 MLOAD PUSH1 0x20 DUP2 DUP4 SUB SUB DUP2 MSTORE SWAP1 PUSH1 0x40 MSTORE SWAP1 POP SWAP1 JUMP JUMPDEST PUSH0 DUP1 PUSH1 0x60 PUSH0 DUP6 DUP6 DUP2 ADD SWAP1 PUSH2 0x27C SWAP2 SWAP1 PUSH2 0x92F JUMP JUMPDEST SWAP4 POP SWAP4 POP SWAP4 POP SWAP4 POP SWAP3 SWAP6 SWAP2 SWAP5 POP SWAP3 POP JUMP JUMPDEST PUSH0 PUSH1 0x40 MLOAD SWAP1 POP SWAP1 JUMP JUMPDEST PUSH0 DUP1 REVERT JUMPDEST PUSH0 DUP1 REVERT JUMPDEST PUSH0 DUP1 REVERT JUMPDEST PUSH0 DUP1 REVERT JUMPDEST PUSH0 PUSH1 0x1F NOT PUSH1 0x1F DUP4 ADD AND SWAP1 POP SWAP2 SWAP1 POP JUMP JUMPDEST PUSH32 0x4E487B7100000000000000000000000000000000000000000000000000000000 PUSH0 MSTORE PUSH1 0x41 PUSH1 0x4 MSTORE PUSH1 0x24 PUSH0 REVERT JUMPDEST PUSH2 0x2EC DUP3 PUSH2 0x2A6 JUMP JUMPDEST DUP2 ADD DUP2 DUP2 LT PUSH8 0xFFFFFFFFFFFFFFFF DUP3 GT OR ISZERO PUSH2 0x30B JUMPI PUSH2 0x30A PUSH2 0x2B6 JUMP JUMPDEST JUMPDEST DUP1 PUSH1 0x40 MSTORE POP POP POP JUMP JUMPDEST PUSH0 PUSH2 0x31D PUSH2 0x28D JUMP JUMPDEST SWAP1 POP PUSH2 0x329 DUP3 DUP3 PUSH2 0x2E3 JUMP JUMPDEST SWAP2 SWAP1 POP JUMP JUMPDEST PUSH0 PUSH8 0xFFFFFFFFFFFFFFFF DUP3 GT ISZERO PUSH2 0x348 JUMPI PUSH2 0x347 PUSH2 0x2B6 JUMP JUMPDEST JUMPDEST PUSH2 0x351 DUP3 PUSH2 0x2A6 JUMP JUMPDEST SWAP1 POP PUSH1 0x20 DUP2 ADD SWAP1 POP SWAP2 SWAP1 POP JUMP JUMPDEST DUP3 DUP2 DUP4 CALLDATACOPY PUSH0 DUP4 DUP4 ADD MSTORE POP POP POP JUMP JUMPDEST PUSH0 PUSH2 0x37E PUSH2 0x379 DUP5 PUSH2 0x32E JUMP JUMPDEST PUSH2 0x314 JUMP JUMPDEST SWAP1 POP DUP3 DUP2 MSTORE PUSH1 0x20 DUP2 ADD DUP5 DUP5 DUP5 ADD GT ISZERO PUSH2 0x39A JUMPI PUSH2 0x399 PUSH2 0x2A2 JUMP JUMPDEST JUMPDEST PUSH2 0x3A5 DUP5 DUP3 DUP6 PUSH2 0x35E JUMP JUMPDEST POP SWAP4 SWAP3 POP POP POP JUMP JUMPDEST PUSH0 DUP3 PUSH1 0x1F DUP4 ADD SLT PUSH2 0x3C1 JUMPI PUSH2 0x3C0 PUSH2 0x29E JUMP JUMPDEST JUMPDEST DUP2 CALLDATALOAD PUSH2 0x3D1 DUP5 DUP3 PUSH1 0x20 DUP7 ADD PUSH2 0x36C JUMP JUMPDEST SWAP2 POP POP SWAP3 SWAP2 POP POP JUMP JUMPDEST PUSH0 DUP1 PUSH1 0x40 DUP4 DUP6 SUB SLT ISZERO PUSH2 0x3F0 JUMPI PUSH2 0x3EF PUSH2 0x296 JUMP JUMPDEST JUMPDEST PUSH0 DUP4 ADD CALLDATALOAD PUSH8 0xFFFFFFFFFFFFFFFF DUP2 GT ISZERO PUSH2 0x40D JUMPI PUSH2 0x40C PUSH2 0x29A JUMP JUMPDEST JUMPDEST PUSH2 0x419 DUP6 DUP3 DUP7 ADD PUSH2 0x3AD JUMP JUMPDEST SWAP3 POP POP PUSH1 0x20 DUP4 ADD CALLDATALOAD PUSH8 0xFFFFFFFFFFFFFFFF DUP2 GT ISZERO PUSH2 0x43A JUMPI PUSH2 0x439 PUSH2 0x29A JUMP JUMPDEST JUMPDEST PUSH2 0x446 DUP6 DUP3 DUP7 ADD PUSH2 0x3AD JUMP JUMPDEST SWAP2 POP POP SWAP3 POP SWAP3 SWAP1 POP JUMP JUMPDEST PUSH0 DUP2 MLOAD SWAP1 POP SWAP2 SWAP1 POP JUMP JUMPDEST PUSH0 DUP3 DUP3 MSTORE PUSH1 0x20 DUP3 ADD SWAP1 POP SWAP3 SWAP2 POP POP JUMP JUMPDEST DUP3 DUP2 DUP4 MCOPY PUSH0 DUP4 DUP4 ADD MSTORE POP POP POP JUMP JUMPDEST PUSH0 PUSH2 0x482 DUP3 PUSH2 0x450 JUMP JUMPDEST PUSH2 0x48C DUP2 DUP6 PUSH2 0x45A JUMP JUMPDEST SWAP4 POP PUSH2 0x49C DUP2 DUP6 PUSH1 0x20 DUP7 ADD PUSH2 0x46A JUMP JUMPDEST PUSH2 0x4A5 DUP2 PUSH2 0x2A6 JUMP JUMPDEST DUP5 ADD SWAP2 POP POP SWAP3 SWAP2 POP POP JUMP JUMPDEST PUSH0 PUSH1 0x20 DUP3 ADD SWAP1 POP DUP2 DUP2 SUB PUSH0 DUP4 ADD MSTORE PUSH2 0x4C8 DUP2 DUP5 PUSH2 0x478 JUMP JUMPDEST SWAP1 POP SWAP3 SWAP2 POP POP JUMP JUMPDEST PUSH0 DUP2 MLOAD SWAP1 POP SWAP2 SWAP1 POP JUMP JUMPDEST PUSH0 DUP3 DUP3 MSTORE PUSH1 0x20 DUP3 ADD SWAP1 POP SWAP3 SWAP2 POP POP JUMP JUMPDEST PUSH0 PUSH2 0x4F4 DUP3 PUSH2 0x4D0 JUMP JUMPDEST PUSH2 0x4FE DUP2 DUP6 PUSH2 0x4DA JUMP JUMPDEST SWAP4 POP PUSH2 0x50E DUP2 DUP6 PUSH1 0x20 DUP7 ADD PUSH2 0x46A JUMP JUMPDEST PUSH2 0x517 DUP2 PUSH2 0x2A6 JUMP JUMPDEST DUP5 ADD SWAP2 POP POP SWAP3 SWAP2 POP POP JUMP JUMPDEST PUSH0 PUSH1 0x20 DUP3 ADD SWAP1 POP DUP2 DUP2 SUB PUSH0 DUP4 ADD MSTORE PUSH2 0x53A DUP2 DUP5 PUSH2 0x4EA JUMP JUMPDEST SWAP1 POP SWAP3 SWAP2 POP POP JUMP JUMPDEST PUSH0 DUP1 REVERT JUMPDEST PUSH0 DUP1 REVERT JUMPDEST PUSH0 DUP1 DUP4 PUSH1 0x1F DUP5 ADD SLT PUSH2 0x55F JUMPI PUSH2 0x55E PUSH2 0x29E JUMP JUMPDEST JUMPDEST DUP3 CALLDATALOAD SWAP1 POP PUSH8 0xFFFFFFFFFFFFFFFF DUP2 GT ISZERO PUSH2 0x57C JUMPI PUSH2 0x57B PUSH2 0x542 JUMP JUMPDEST JUMPDEST PUSH1 0x20 DUP4 ADD SWAP2 POP DUP4 PUSH1 0x1 DUP3 MUL DUP4 ADD GT ISZERO PUSH2 0x598 JUMPI PUSH2 0x597 PUSH2 0x546 JUMP JUMPDEST JUMPDEST SWAP3 POP SWAP3 SWAP1 POP JUMP JUMPDEST PUSH0 DUP1 PUSH1 0x20 DUP4 DUP6 SUB SLT ISZERO PUSH2 0x5B5 JUMPI PUSH2 0x5B4 PUSH2 0x296 JUMP JUMPDEST JUMPDEST PUSH0 DUP4 ADD CALLDATALOAD PUSH8 0xFFFFFFFFFFFFFFFF DUP2 GT ISZERO PUSH2 0x5D2 JUMPI PUSH2 0x5D1 PUSH2 0x29A JUMP JUMPDEST JUMPDEST PUSH2 0x5DE DUP6 DUP3 DUP7 ADD PUSH2 0x54A JUMP JUMPDEST SWAP3 POP SWAP3 POP POP SWAP3 POP SWAP3 SWAP1 POP JUMP JUMPDEST PUSH0 DUP2 SWAP1 POP SWAP2 SWAP1 POP JUMP JUMPDEST PUSH2 0x5FC DUP2 PUSH2 0x5EA JUMP JUMPDEST DUP3 MSTORE POP POP JUMP JUMPDEST PUSH0 DUP2 ISZERO ISZERO SWAP1 POP SWAP2 SWAP1 POP JUMP JUMPDEST PUSH2 0x616 DUP2 PUSH2 0x602 JUMP JUMPDEST DUP3 MSTORE POP POP JUMP JUMPDEST PUSH0 PUSH1 0x80 DUP3 ADD SWAP1 POP PUSH2 0x62F PUSH0 DUP4 ADD DUP8 PUSH2 0x5F3 JUMP JUMPDEST PUSH2 0x63C PUSH1 0x20 DUP4 ADD DUP7 PUSH2 0x5F3 JUMP JUMPDEST DUP2 DUP2 SUB PUSH1 0x40 DUP4 ADD MSTORE PUSH2 0x64E DUP2 DUP6 PUSH2 0x478 JUMP JUMPDEST SWAP1 POP PUSH2 0x65D PUSH1 0x60 DUP4 ADD DUP5 PUSH2 0x60D JUMP JUMPDEST SWAP6 SWAP5 POP POP POP POP POP JUMP JUMPDEST PUSH0 DUP2 SWAP1 POP SWAP3 SWAP2 POP POP JUMP JUMPDEST PUSH0 PUSH2 0x67A DUP3 PUSH2 0x450 JUMP JUMPDEST PUSH2 0x684 DUP2 DUP6 PUSH2 0x666 JUMP JUMPDEST SWAP4 POP PUSH2 0x694 DUP2 DUP6 PUSH1 0x20 DUP7 ADD PUSH2 0x46A JUMP JUMPDEST DUP1 DUP5 ADD SWAP2 POP POP SWAP3 SWAP2 POP POP JUMP JUMPDEST PUSH0 PUSH2 0x6AB DUP3 DUP6 PUSH2 0x670 JUMP JUMPDEST SWAP2 POP PUSH2 0x6B7 DUP3 DUP5 PUSH2 0x670 JUMP JUMPDEST SWAP2 POP DUP2 SWAP1 POP SWAP4 SWAP3 POP POP POP JUMP JUMPDEST PUSH0 PUSH1 0xFF DUP3 AND SWAP1 POP SWAP2 SWAP1 POP JUMP JUMPDEST PUSH0 DUP2 PUSH1 0xF8 SHL SWAP1 POP SWAP2 SWAP1 POP JUMP JUMPDEST PUSH0 PUSH2 0x6E5 DUP3 PUSH2 0x6CF JUMP JUMPDEST SWAP1 POP SWAP2 SWAP1 POP JUMP JUMPDEST PUSH2 0x6FD PUSH2 0x6F8 DUP3 PUSH2 0x6C3 JUMP JUMPDEST PUSH2 0x6DB JUMP JUMPDEST DUP3 MSTORE POP POP JUMP JUMPDEST PUSH0 PUSH2 0xFFFF DUP3 AND SWAP1 POP SWAP2 SWAP1 POP JUMP JUMPDEST PUSH0 DUP2 PUSH1 0xF0 SHL SWAP1 POP SWAP2 SWAP1 POP JUMP JUMPDEST PUSH0 PUSH2 0x726 DUP3 PUSH2 0x710 JUMP JUMPDEST SWAP1 POP SWAP2 SWAP1 POP JUMP JUMPDEST PUSH2 0x73E PUSH2 0x739 DUP3 PUSH2 0x703 JUMP JUMPDEST PUSH2 0x71C JUMP JUMPDEST DUP3 MSTORE POP POP JUMP JUMPDEST PUSH0 PUSH2 0x74F DUP3 DUP7 PUSH2 0x6EC JUMP JUMPDEST PUSH1 0x1 DUP3 ADD SWAP2 POP PUSH2 0x75F DUP3 DUP6 PUSH2 0x72D JUMP JUMPDEST PUSH1 0x2 DUP3 ADD SWAP2 POP PUSH2 0x76F DUP3 DUP5 PUSH2 0x670 JUMP JUMPDEST SWAP2 POP DUP2 SWAP1 POP SWAP5 SWAP4 POP POP POP POP JUMP JUMPDEST PUSH0 DUP2 SWAP1 POP SWAP2 SWAP1 POP JUMP JUMPDEST PUSH0 DUP2 SWAP1 POP SWAP2 SWAP1 POP JUMP JUMPDEST PUSH0 PUSH2 0x7A8 PUSH2 0x7A3 PUSH2 0x79E DUP5 PUSH2 0x77C JUMP JUMPDEST PUSH2 0x785 JUMP JUMPDEST PUSH2 0x6C3 JUMP JUMPDEST SWAP1 POP SWAP2 SWAP1 POP JUMP JUMPDEST PUSH2 0x7B8 DUP2 PUSH2 0x78E JUMP JUMPDEST DUP3 MSTORE POP POP JUMP JUMPDEST PUSH0 PUSH1 0x20 DUP3 ADD SWAP1 POP PUSH2 0x7D1 PUSH0 DUP4 ADD DUP5 PUSH2 0x7AF JUMP JUMPDEST SWAP3 SWAP2 POP POP JUMP JUMPDEST PUSH0 DUP2 SWAP1 POP SWAP2 SWAP1 POP JUMP JUMPDEST PUSH0 PUSH2 0x7FA PUSH2 0x7F5 PUSH2 0x7F0 DUP5 PUSH2 0x7D7 JUMP JUMPDEST PUSH2 0x785 JUMP JUMPDEST PUSH2 0x6C3 JUMP JUMPDEST SWAP1 POP SWAP2 SWAP1 POP JUMP JUMPDEST PUSH2 0x80A DUP2 PUSH2 0x7E0 JUMP JUMPDEST DUP3 MSTORE POP POP JUMP JUMPDEST PUSH0 DUP2 SWAP1 POP SWAP2 SWAP1 POP JUMP JUMPDEST PUSH0 PUSH2 0x833 PUSH2 0x82E PUSH2 0x829 DUP5 PUSH2 0x810 JUMP JUMPDEST PUSH2 0x785 JUMP JUMPDEST PUSH2 0x6C3 JUMP JUMPDEST SWAP1 POP SWAP2 SWAP1 POP JUMP JUMPDEST PUSH2 0x843 DUP2 PUSH2 0x819 JUMP JUMPDEST DUP3 MSTORE POP POP JUMP JUMPDEST PUSH32 0x48656C6C6F20576F726C64000000000000000000000000000000000000000000 PUSH0 DUP3 ADD MSTORE POP JUMP JUMPDEST PUSH0 PUSH2 0x87D PUSH1 0xB DUP4 PUSH2 0x45A JUMP JUMPDEST SWAP2 POP PUSH2 0x888 DUP3 PUSH2 0x849 JUMP JUMPDEST PUSH1 0x20 DUP3 ADD SWAP1 POP SWAP2 SWAP1 POP JUMP JUMPDEST PUSH0 PUSH1 0x80 DUP3 ADD SWAP1 POP PUSH2 0x8A6 PUSH0 DUP4 ADD DUP7 PUSH2 0x801 JUMP JUMPDEST PUSH2 0x8B3 PUSH1 0x20 DUP4 ADD DUP6 PUSH2 0x83A JUMP JUMPDEST DUP2 DUP2 SUB PUSH1 0x40 DUP4 ADD MSTORE PUSH2 0x8C4 DUP2 PUSH2 0x871 JUMP JUMPDEST SWAP1 POP PUSH2 0x8D3 PUSH1 0x60 DUP4 ADD DUP5 PUSH2 0x60D JUMP JUMPDEST SWAP5 SWAP4 POP POP POP POP JUMP JUMPDEST PUSH2 0x8E4 DUP2 PUSH2 0x5EA JUMP JUMPDEST DUP2 EQ PUSH2 0x8EE JUMPI PUSH0 DUP1 REVERT JUMPDEST POP JUMP JUMPDEST PUSH0 DUP2 CALLDATALOAD SWAP1 POP PUSH2 0x8FF DUP2 PUSH2 0x8DB JUMP JUMPDEST SWAP3 SWAP2 POP POP JUMP JUMPDEST PUSH2 0x90E DUP2 PUSH2 0x602 JUMP JUMPDEST DUP2 EQ PUSH2 0x918 JUMPI PUSH0 DUP1 REVERT JUMPDEST POP JUMP JUMPDEST PUSH0 DUP2 CALLDATALOAD SWAP1 POP PUSH2 0x929 DUP2 PUSH2 0x905 JUMP JUMPDEST SWAP3 SWAP2 POP POP JUMP JUMPDEST PUSH0 DUP1 PUSH0 DUP1 PUSH1 0x80 DUP6 DUP8 SUB SLT ISZERO PUSH2 0x947 JUMPI PUSH2 0x946 PUSH2 0x296 JUMP JUMPDEST JUMPDEST PUSH0 PUSH2 0x954 DUP8 DUP3 DUP9 ADD PUSH2 0x8F1 JUMP JUMPDEST SWAP5 POP POP PUSH1 0x20 PUSH2 0x965 DUP8 DUP3 DUP9 ADD PUSH2 0x8F1 JUMP JUMPDEST SWAP4 POP POP PUSH1 0x40 DUP6 ADD CALLDATALOAD PUSH8 0xFFFFFFFFFFFFFFFF DUP2 GT ISZERO PUSH2 0x986 JUMPI PUSH2 0x985 PUSH2 0x29A JUMP JUMPDEST JUMPDEST PUSH2 0x992 DUP8 DUP3 DUP9 ADD PUSH2 0x3AD JUMP JUMPDEST SWAP3 POP POP PUSH1 0x60 PUSH2 0x9A3 DUP8 DUP3 DUP9 ADD PUSH2 0x91B JUMP JUMPDEST SWAP2 POP POP SWAP3 SWAP6 SWAP2 SWAP5 POP SWAP3 POP JUMP INVALID LOG2 PUSH5 0x6970667358 0x22 SLT KECCAK256 0x2F 0xE3 EXP 0xE8 0xE9 SSTORE CODECOPY SWAP1 0x2F 0xF7 0xB4 SWAP13 SLOAD PUSH16 0x1DA73EA2115DF4C25E8CE74213645119 ADD 0xB9 PUSH5 0x736F6C6343 STOP ADDMOD NOT STOP CALLER "
				},
				"gasEstimates": {
					"creation": {
						"codeDepositCost": "506600",
						"executionCost": "541",
						"totalCost": "507141"
					},
					"external": {
						"concatena(string,string)": "infinite",
						"decode(bytes)": "infinite",
						"encode()": "infinite",
						"encodePacote()": "infinite",
						"encodeSignature()": "infinite"
					}
				},
				"methodIdentifiers": {
					"concatena(string,string)": "1641deba",
					"decode(bytes)": "e5c5e9a3",
					"encode()": "bd14598f",
					"encodePacote()": "434b405e",
					"encodeSignature()": "7a7cbf93"
				}
			},
			"storageLayout": {
				"storage": [],
				"types": null
			},
			"userdoc": {
				"kind": "user",
				"methods": {},
				"version": 1
			}
		}
	}
}