{
	"data": {
		"bytecode": {
			"linkReferences": {},
			"object": "6080604052600a67ffffffffffffffff81111561001f5761001e610293565b5b60405190808252806020026020018201604052801561004d5781602001602082028036833780820191505090505b505f908051906020019061006292919061013c565b506040518060600160405280600360ff168152602001600560ff168152602001600860ff16815250600190600361009a929190610187565b5060405180604001604052806040518060400160405280600581526020017f76617a696f00000000000000000000000000000000000000000000000000000081525081526020016040518060400160405280600481526020017f6e61646100000000000000000000000000000000000000000000000000000000815250815250600590600261012a9291906101cc565b50348015610136575f80fd5b5061059c565b828054828255905f5260205f20908101928215610176579160200282015b8281111561017557825182559160200191906001019061015a565b5b5090506101839190610218565b5090565b82600481019282156101bb579160200282015b828111156101ba578251829060ff1690559160200191906001019061019a565b5b5090506101c89190610218565b5090565b8260028101928215610207579160200282015b828111156102065782518290816101f691906104cd565b50916020019190600101906101df565b5b5090506102149190610233565b5090565b5b8082111561022f575f815f905550600101610219565b5090565b5b80821115610252575f81816102499190610256565b50600101610234565b5090565b508054610262906102f7565b5f825580601f106102735750610290565b601f0160209004905f5260205f209081019061028f9190610218565b5b50565b7f4e487b71000000000000000000000000000000000000000000000000000000005f52604160045260245ffd5b5f81519050919050565b7f4e487b71000000000000000000000000000000000000000000000000000000005f52602260045260245ffd5b5f600282049050600182168061030e57607f821691505b602082108103610321576103206102ca565b5b50919050565b5f819050815f5260205f209050919050565b5f6020601f8301049050919050565b5f82821b905092915050565b5f600883026103837fffffffffffffffffffffffffffffffffffffffffffffffffffffffffffffffff82610348565b61038d8683610348565b95508019841693508086168417925050509392505050565b5f819050919050565b5f819050919050565b5f6103d16103cc6103c7846103a5565b6103ae565b6103a5565b9050919050565b5f819050919050565b6103ea836103b7565b6103fe6103f6826103d8565b848454610354565b825550505050565b5f90565b610412610406565b61041d8184846103e1565b505050565b5b81811015610440576104355f8261040a565b600181019050610423565b5050565b601f8211156104855761045681610327565b61045f84610339565b8101602085101561046e578190505b61048261047a85610339565b830182610422565b50505b505050565b5f82821c905092915050565b5f6104a55f198460080261048a565b1980831691505092915050565b5f6104bd8383610496565b9150826002028217905092915050565b6104d6826102c0565b67ffffffffffffffff8111156104ef576104ee610293565b5b6104f982546102f7565b610504828285610444565b5f60209050601f831160018114610535575f8415610523578287015190505b61052d85826104b2565b865550610594565b601f19841661054386610327565b5f5b8281101561056a57848901518255600182019150602085019450602081019050610545565b868310156105875784890151610583601f891682610496565b8355505b6001600288020188555050505b505050505050565b610a63806105a95f395ff3fe608060405234801561000f575f80fd5b506004361061007b575f3560e01c8063afc7740811610059578063afc77408146100d7578063e73a69e0146100f3578063e833587414610111578063e8c455e01461012d5761007b565b806376ea66f01461007f578063840fa7ce146100895780639490e961146100b9575b5f80fd5b61008761015d565b005b6100a3600480360381019061009e91906103b8565b61018c565b6040516100b091906103f2565b60405180910390f35b6100c16101aa565b6040516100ce91906104b0565b60405180910390f35b6100f160048036038101906100ec91906104c9565b6101f5565b005b6100fb610213565b60405161010891906103f2565b60405180910390f35b61012b60048036038101906101269190610643565b61021f565b005b610147600480360381019061014291906103b8565b610254565b60405161015491906106ea565b60405180910390f35b600780548061016f5761016e61070a565b5b600190038181905f5260205f20015f61018891906102fa565b9055565b5f600182600481106101a1576101a0610737565b5b01549050919050565b6101b2610337565b60016004806020026040519081016040528092919082600480156101eb576020028201915b8154815260200190600101908083116101d7575b5050505050905090565b806001836004811061020a57610209610737565b5b01819055505050565b5f600780549050905090565b600781908060018154018082558091505060019003905f5260205f20015f909190919091509081610250919061095e565b5050565b60078181548110610263575f80fd5b905f5260205f20015f91509050805461027b90610791565b80601f01602080910402602001604051908101604052809291908181526020018280546102a790610791565b80156102f25780601f106102c9576101008083540402835291602001916102f2565b820191905f5260205f20905b8154815290600101906020018083116102d557829003601f168201915b505050505081565b50805461030690610791565b5f825580601f106103175750610334565b601f0160209004905f5260205f20908101906103339190610359565b5b50565b6040518060800160405280600490602082028036833780820191505090505090565b5b80821115610370575f815f90555060010161035a565b5090565b5f604051905090565b5f80fd5b5f80fd5b5f819050919050565b61039781610385565b81146103a1575f80fd5b50565b5f813590506103b28161038e565b92915050565b5f602082840312156103cd576103cc61037d565b5b5f6103da848285016103a4565b91505092915050565b6103ec81610385565b82525050565b5f6020820190506104055f8301846103e3565b92915050565b5f60049050919050565b5f81905092915050565b5f819050919050565b61043181610385565b82525050565b5f6104428383610428565b60208301905092915050565b5f602082019050919050565b6104638161040b565b61046d8184610415565b92506104788261041f565b805f5b838110156104a857815161048f8782610437565b965061049a8361044e565b92505060018101905061047b565b505050505050565b5f6080820190506104c35f83018461045a565b92915050565b5f80604083850312156104df576104de61037d565b5b5f6104ec858286016103a4565b92505060206104fd858286016103a4565b9150509250929050565b5f80fd5b5f80fd5b5f601f19601f8301169050919050565b7f4e487b71000000000000000000000000000000000000000000000000000000005f52604160045260245ffd5b6105558261050f565b810181811067ffffffffffffffff821117156105745761057361051f565b5b80604052505050565b5f610586610374565b9050610592828261054c565b919050565b5f67ffffffffffffffff8211156105b1576105b061051f565b5b6105ba8261050f565b9050602081019050919050565b828183375f83830152505050565b5f6105e76105e284610597565b61057d565b9050828152602081018484840111156106035761060261050b565b5b61060e8482856105c7565b509392505050565b5f82601f83011261062a57610629610507565b5b813561063a8482602086016105d5565b91505092915050565b5f602082840312156106585761065761037d565b5b5f82013567ffffffffffffffff81111561067557610674610381565b5b61068184828501610616565b91505092915050565b5f81519050919050565b5f82825260208201905092915050565b8281835e5f83830152505050565b5f6106bc8261068a565b6106c68185610694565b93506106d68185602086016106a4565b6106df8161050f565b840191505092915050565b5f6020820190508181035f83015261070281846106b2565b905092915050565b7f4e487b71000000000000000000000000000000000000000000000000000000005f52603160045260245ffd5b7f4e487b71000000000000000000000000000000000000000000000000000000005f52603260045260245ffd5b7f4e487b71000000000000000000000000000000000000000000000000000000005f52602260045260245ffd5b5f60028204905060018216806107a857607f821691505b6020821081036107bb576107ba610764565b5b50919050565b5f819050815f5260205f209050919050565b5f6020601f8301049050919050565b5f82821b905092915050565b5f6008830261081d7fffffffffffffffffffffffffffffffffffffffffffffffffffffffffffffffff826107e2565b61082786836107e2565b95508019841693508086168417925050509392505050565b5f819050919050565b5f61086261085d61085884610385565b61083f565b610385565b9050919050565b5f819050919050565b61087b83610848565b61088f61088782610869565b8484546107ee565b825550505050565b5f90565b6108a3610897565b6108ae818484610872565b505050565b5b818110156108d1576108c65f8261089b565b6001810190506108b4565b5050565b601f821115610916576108e7816107c1565b6108f0846107d3565b810160208510156108ff578190505b61091361090b856107d3565b8301826108b3565b50505b505050565b5f82821c905092915050565b5f6109365f198460080261091b565b1980831691505092915050565b5f61094e8383610927565b9150826002028217905092915050565b6109678261068a565b67ffffffffffffffff8111156109805761097f61051f565b5b61098a8254610791565b6109958282856108d5565b5f60209050601f8311600181146109c6575f84156109b4578287015190505b6109be8582610943565b865550610a25565b601f1984166109d4866107c1565b5f5b828110156109fb578489015182556001820191506020850194506020810190506109d6565b86831015610a185784890151610a14601f891682610927565b8355505b6001600288020188555050505b50505050505056fea26469706673582212205c4730150b5385c7880adbce66ba0b6c7ab90dcd1b5083784c2bc95003932c6864736f6c63430008190033",
			"opcodes": "PUSH1 0x80 PUSH1 0x40 MSTORE PUSH1 0xA PUSH8 0xFFFFFFFFFFFFFFFF DUP2 GT ISZERO PUSH2 0x1F JUMPI PUSH2 0x1E PUSH2 0x293 JUMP JUMPDEST JUMPDEST PUSH1 0x40 MLOAD SWAP1 DUP1 DUP3 MSTORE DUP1 PUSH1 0x20 MUL PUSH1 0x20 ADD DUP3 ADD PUSH1 0x40 MSTORE DUP1 ISZERO PUSH2 0x4D JUMPI DUP2 PUSH1 0x20 ADD PUSH1 0x20 DUP3 MUL DUP1 CALLDATASIZE DUP4 CALLDATACOPY DUP1 DUP3 ADD SWAP2 POP POP SWAP1 POP JUMPDEST POP PUSH0 SWAP1 DUP1 MLOAD SWAP1 PUSH1 0x20 ADD SWAP1 PUSH2 0x62 SWAP3 SWAP2 SWAP1 PUSH2 0x13C JUMP JUMPDEST POP PUSH1 0x40 MLOAD DUP1 PUSH1 0x60 ADD PUSH1 0x40 MSTORE DUP1 PUSH1 0x3 PUSH1 0xFF AND DUP2 MSTORE PUSH1 0x20 ADD PUSH1 0x5 PUSH1 0xFF AND DUP2 MSTORE PUSH1 0x20 ADD PUSH1 0x8 PUSH1 0xFF AND DUP2 MSTORE POP PUSH1 0x1 SWAP1 PUSH1 0x3 PUSH2 0x9A SWAP3 SWAP2 SWAP1 PUSH2 0x187 JUMP JUMPDEST POP PUSH1 0x40 MLOAD DUP1 PUSH1 0x40 ADD PUSH1 0x40 MSTORE DUP1 PUSH1 0x40 MLOAD DUP1 PUSH1 0x40 ADD PUSH1 0x40 MSTORE DUP1 PUSH1 0x5 DUP2 MSTORE PUSH1 0x20 ADD PUSH32 0x76617A696F000000000000000000000000000000000000000000000000000000 DUP2 MSTORE POP DUP2 MSTORE PUSH1 0x20 ADD PUSH1 0x40 MLOAD DUP1 PUSH1 0x40 ADD PUSH1 0x40 MSTORE DUP1 PUSH1 0x4 DUP2 MSTORE PUSH1 0x20 ADD PUSH32 0x6E61646100000000000000000000000000000000000000000000000000000000 DUP2 MSTORE POP DUP2 MSTORE POP PUSH1 0x5 SWAP1 PUSH1 0x2 PUSH2 0x12A SWAP3 SWAP2 SWAP1 PUSH2 0x1CC JUMP JUMPDEST POP CALLVALUE DUP1 ISZERO PUSH2 0x136 JUMPI PUSH0 DUP1 REVERT JUMPDEST POP PUSH2 0x59C JUMP JUMPDEST DUP3 DUP1 SLOAD DUP3 DUP3 SSTORE SWAP1 PUSH0 MSTORE PUSH1 0x20 PUSH0 KECCAK256 SWAP1 DUP2 ADD SWAP3 DUP3 ISZERO PUSH2 0x176 JUMPI SWAP2 PUSH1 0x20 MUL DUP3 ADD JUMPDEST DUP3 DUP2 GT ISZERO PUSH2 0x175 JUMPI DUP3 MLOAD DUP3 SSTORE SWAP2 PUSH1 0x20 ADD SWAP2 SWAP1 PUSH1 0x1 ADD SWAP1 PUSH2 0x15A JUMP JUMPDEST JUMPDEST POP SWAP1 POP PUSH2 0x183 SWAP2 SWAP1 PUSH2 0x218 JUMP JUMPDEST POP SWAP1 JUMP JUMPDEST DUP3 PUSH1 0x4 DUP2 ADD SWAP3 DUP3 ISZERO PUSH2 0x1BB JUMPI SWAP2 PUSH1 0x20 MUL DUP3 ADD JUMPDEST DUP3 DUP2 GT ISZERO PUSH2 0x1BA JUMPI DUP3 MLOAD DUP3 SWAP1 PUSH1 0xFF AND SWAP1 SSTORE SWAP2 PUSH1 0x20 ADD SWAP2 SWAP1 PUSH1 0x1 ADD SWAP1 PUSH2 0x19A JUMP JUMPDEST JUMPDEST POP SWAP1 POP PUSH2 0x1C8 SWAP2 SWAP1 PUSH2 0x218 JUMP JUMPDEST POP SWAP1 JUMP JUMPDEST DUP3 PUSH1 0x2 DUP2 ADD SWAP3 DUP3 ISZERO PUSH2 0x207 JUMPI SWAP2 PUSH1 0x20 MUL DUP3 ADD JUMPDEST DUP3 DUP2 GT ISZERO PUSH2 0x206 JUMPI DUP3 MLOAD DUP3 SWAP1 DUP2 PUSH2 0x1F6 SWAP2 SWAP1 PUSH2 0x4CD JUMP JUMPDEST POP SWAP2 PUSH1 0x20 ADD SWAP2 SWAP1 PUSH1 0x1 ADD SWAP1 PUSH2 0x1DF JUMP JUMPDEST JUMPDEST POP SWAP1 POP PUSH2 0x214 SWAP2 SWAP1 PUSH2 0x233 JUMP JUMPDEST POP SWAP1 JUMP JUMPDEST JUMPDEST DUP1 DUP3 GT ISZERO PUSH2 0x22F JUMPI PUSH0 DUP2 PUSH0 SWAP1 SSTORE POP PUSH1 0x1 ADD PUSH2 0x219 JUMP JUMPDEST POP SWAP1 JUMP JUMPDEST JUMPDEST DUP1 DUP3 GT ISZERO PUSH2 0x252 JUMPI PUSH0 DUP2 DUP2 PUSH2 0x249 SWAP2 SWAP1 PUSH2 0x256 JUMP JUMPDEST POP PUSH1 0x1 ADD PUSH2 0x234 JUMP JUMPDEST POP SWAP1 JUMP JUMPDEST POP DUP1 SLOAD PUSH2 0x262 SWAP1 PUSH2 0x2F7 JUMP JUMPDEST PUSH0 DUP3 SSTORE DUP1 PUSH1 0x1F LT PUSH2 0x273 JUMPI POP PUSH2 0x290 JUMP JUMPDEST PUSH1 0x1F ADD PUSH1 0x20 SWAP1 DIV SWAP1 PUSH0 MSTORE PUSH1 0x20 PUSH0 KECCAK256 SWAP1 DUP2 ADD SWAP1 PUSH2 0x28F SWAP2 SWAP1 PUSH2 0x218 JUMP JUMPDEST JUMPDEST POP JUMP JUMPDEST PUSH32 0x4E487B7100000000000000000000000000000000000000000000000000000000 PUSH0 MSTORE PUSH1 0x41 PUSH1 0x4 MSTORE PUSH1 0x24 PUSH0 REVERT JUMPDEST PUSH0 DUP2 MLOAD SWAP1 POP SWAP2 SWAP1 POP JUMP JUMPDEST PUSH32 0x4E487B7100000000000000000000000000000000000000000000000000000000 PUSH0 MSTORE PUSH1 0x22 PUSH1 0x4 MSTORE PUSH1 0x24 PUSH0 REVERT JUMPDEST PUSH0 PUSH1 0x2 DUP3 DIV SWAP1 POP PUSH1 0x1 DUP3 AND DUP1 PUSH2 0x30E JUMPI PUSH1 0x7F DUP3 AND SWAP2 POP JUMPDEST PUSH1 0x20 DUP3 LT DUP2 SUB PUSH2 0x321 JUMPI PUSH2 0x320 PUSH2 0x2CA JUMP JUMPDEST JUMPDEST POP SWAP2 SWAP1 POP JUMP JUMPDEST PUSH0 DUP2 SWAP1 POP DUP2 PUSH0 MSTORE PUSH1 0x20 PUSH0 KECCAK256 SWAP1 POP SWAP2 SWAP1 POP JUMP JUMPDEST PUSH0 PUSH1 0x20 PUSH1 0x1F DUP4 ADD DIV SWAP1 POP SWAP2 SWAP1 POP JUMP JUMPDEST PUSH0 DUP3 DUP3 SHL SWAP1 POP SWAP3 SWAP2 POP POP JUMP JUMPDEST PUSH0 PUSH1 0x8 DUP4 MUL PUSH2 0x383 PUSH32 0xFFFFFFFFFFFFFFFFFFFFFFFFFFFFFFFFFFFFFFFFFFFFFFFFFFFFFFFFFFFFFFFF DUP3 PUSH2 0x348 JUMP JUMPDEST PUSH2 0x38D DUP7 DUP4 PUSH2 0x348 JUMP JUMPDEST SWAP6 POP DUP1 NOT DUP5 AND SWAP4 POP DUP1 DUP7 AND DUP5 OR SWAP3 POP POP POP SWAP4 SWAP3 POP POP POP JUMP JUMPDEST PUSH0 DUP2 SWAP1 POP SWAP2 SWAP1 POP JUMP JUMPDEST PUSH0 DUP2 SWAP1 POP SWAP2 SWAP1 POP JUMP JUMPDEST PUSH0 PUSH2 0x3D1 PUSH2 0x3CC PUSH2 0x3C7 DUP5 PUSH2 0x3A5 JUMP JUMPDEST PUSH2 0x3AE JUMP JUMPDEST PUSH2 0x3A5 JUMP JUMPDEST SWAP1 POP SWAP2 SWAP1 POP JUMP JUMPDEST PUSH0 DUP2 SWAP1 POP SWAP2 SWAP1 POP JUMP JUMPDEST PUSH2 0x3EA DUP4 PUSH2 0x3B7 JUMP JUMPDEST PUSH2 0x3FE PUSH2 0x3F6 DUP3 PUSH2 0x3D8 JUMP JUMPDEST DUP5 DUP5 SLOAD PUSH2 0x354 JUMP JUMPDEST DUP3 SSTORE POP POP POP POP JUMP JUMPDEST PUSH0 SWAP1 JUMP JUMPDEST PUSH2 0x412 PUSH2 0x406 JUMP JUMPDEST PUSH2 0x41D DUP2 DUP5 DUP5 PUSH2 0x3E1 JUMP JUMPDEST POP POP POP JUMP JUMPDEST JUMPDEST DUP2 DUP2 LT ISZERO PUSH2 0x440 JUMPI PUSH2 0x435 PUSH0 DUP3 PUSH2 0x40A JUMP JUMPDEST PUSH1 0x1 DUP2 ADD SWAP1 POP PUSH2 0x423 JUMP JUMPDEST POP POP JUMP JUMPDEST PUSH1 0x1F DUP3 GT ISZERO PUSH2 0x485 JUMPI PUSH2 0x456 DUP2 PUSH2 0x327 JUMP JUMPDEST PUSH2 0x45F DUP5 PUSH2 0x339 JUMP JUMPDEST DUP2 ADD PUSH1 0x20 DUP6 LT ISZERO PUSH2 0x46E JUMPI DUP2 SWAP1 POP JUMPDEST PUSH2 0x482 PUSH2 0x47A DUP6 PUSH2 0x339 JUMP JUMPDEST DUP4 ADD DUP3 PUSH2 0x422 JUMP JUMPDEST POP POP JUMPDEST POP POP POP JUMP JUMPDEST PUSH0 DUP3 DUP3 SHR SWAP1 POP SWAP3 SWAP2 POP POP JUMP JUMPDEST PUSH0 PUSH2 0x4A5 PUSH0 NOT DUP5 PUSH1 0x8 MUL PUSH2 0x48A JUMP JUMPDEST NOT DUP1 DUP4 AND SWAP2 POP POP SWAP3 SWAP2 POP POP JUMP JUMPDEST PUSH0 PUSH2 0x4BD DUP4 DUP4 PUSH2 0x496 JUMP JUMPDEST SWAP2 POP DUP3 PUSH1 0x2 MUL DUP3 OR SWAP1 POP SWAP3 SWAP2 POP POP JUMP JUMPDEST PUSH2 0x4D6 DUP3 PUSH2 0x2C0 JUMP JUMPDEST PUSH8 0xFFFFFFFFFFFFFFFF DUP2 GT ISZERO PUSH2 0x4EF JUMPI PUSH2 0x4EE PUSH2 0x293 JUMP JUMPDEST JUMPDEST PUSH2 0x4F9 DUP3 SLOAD PUSH2 0x2F7 JUMP JUMPDEST PUSH2 0x504 DUP3 DUP3 DUP6 PUSH2 0x444 JUMP JUMPDEST PUSH0 PUSH1 0x20 SWAP1 POP PUSH1 0x1F DUP4 GT PUSH1 0x1 DUP2 EQ PUSH2 0x535 JUMPI PUSH0 DUP5 ISZERO PUSH2 0x523 JUMPI DUP3 DUP8 ADD MLOAD SWAP1 POP JUMPDEST PUSH2 0x52D DUP6 DUP3 PUSH2 0x4B2 JUMP JUMPDEST DUP7 SSTORE POP PUSH2 0x594 JUMP JUMPDEST PUSH1 0x1F NOT DUP5 AND PUSH2 0x543 DUP7 PUSH2 0x327 JUMP JUMPDEST PUSH0 JUMPDEST DUP3 DUP2 LT ISZERO PUSH2 0x56A JUMPI DUP5 DUP10 ADD MLOAD DUP3 SSTORE PUSH1 0x1 DUP3 ADD SWAP2 POP PUSH1 0x20 DUP6 ADD SWAP5 POP PUSH1 0x20 DUP2 ADD SWAP1 POP PUSH2 0x545 JUMP JUMPDEST DUP7 DUP4 LT ISZERO PUSH2 0x587 JUMPI DUP5 DUP10 ADD MLOAD PUSH2 0x583 PUSH1 0x1F DUP10 AND DUP3 PUSH2 0x496 JUMP JUMPDEST DUP4 SSTORE POP JUMPDEST PUSH1 0x1 PUSH1 0x2 DUP9 MUL ADD DUP9 SSTORE POP POP POP JUMPDEST POP POP POP POP POP POP JUMP JUMPDEST PUSH2 0xA63 DUP1 PUSH2 0x5A9 PUSH0 CODECOPY PUSH0 RETURN INVALID PUSH1 0x80 PUSH1 0x40 MSTORE CALLVALUE DUP1 ISZERO PUSH2 0xF JUMPI PUSH0 DUP1 REVERT JUMPDEST POP PUSH1 0x4 CALLDATASIZE LT PUSH2 0x7B JUMPI PUSH0 CALLDATALOAD PUSH1 0xE0 SHR DUP1 PUSH4 0xAFC77408 GT PUSH2 0x59 JUMPI DUP1 PUSH4 0xAFC77408 EQ PUSH2 0xD7 JUMPI DUP1 PUSH4 0xE73A69E0 EQ PUSH2 0xF3 JUMPI DUP1 PUSH4 0xE8335874 EQ PUSH2 0x111 JUMPI DUP1 PUSH4 0xE8C455E0 EQ PUSH2 0x12D JUMPI PUSH2 0x7B JUMP JUMPDEST DUP1 PUSH4 0x76EA66F0 EQ PUSH2 0x7F JUMPI DUP1 PUSH4 0x840FA7CE EQ PUSH2 0x89 JUMPI DUP1 PUSH4 0x9490E961 EQ PUSH2 0xB9 JUMPI JUMPDEST PUSH0 DUP1 REVERT JUMPDEST PUSH2 0x87 PUSH2 0x15D JUMP JUMPDEST STOP JUMPDEST PUSH2 0xA3 PUSH1 0x4 DUP1 CALLDATASIZE SUB DUP2 ADD SWAP1 PUSH2 0x9E SWAP2 SWAP1 PUSH2 0x3B8 JUMP JUMPDEST PUSH2 0x18C JUMP JUMPDEST PUSH1 0x40 MLOAD PUSH2 0xB0 SWAP2 SWAP1 PUSH2 0x3F2 JUMP JUMPDEST PUSH1 0x40 MLOAD DUP1 SWAP2 SUB SWAP1 RETURN JUMPDEST PUSH2 0xC1 PUSH2 0x1AA JUMP JUMPDEST PUSH1 0x40 MLOAD PUSH2 0xCE SWAP2 SWAP1 PUSH2 0x4B0 JUMP JUMPDEST PUSH1 0x40 MLOAD DUP1 SWAP2 SUB SWAP1 RETURN JUMPDEST PUSH2 0xF1 PUSH1 0x4 DUP1 CALLDATASIZE SUB DUP2 ADD SWAP1 PUSH2 0xEC SWAP2 SWAP1 PUSH2 0x4C9 JUMP JUMPDEST PUSH2 0x1F5 JUMP JUMPDEST STOP JUMPDEST PUSH2 0xFB PUSH2 0x213 JUMP JUMPDEST PUSH1 0x40 MLOAD PUSH2 0x108 SWAP2 SWAP1 PUSH2 0x3F2 JUMP JUMPDEST PUSH1 0x40 MLOAD DUP1 SWAP2 SUB SWAP1 RETURN JUMPDEST PUSH2 0x12B PUSH1 0x4 DUP1 CALLDATASIZE SUB DUP2 ADD SWAP1 PUSH2 0x126 SWAP2 SWAP1 PUSH2 0x643 JUMP JUMPDEST PUSH2 0x21F JUMP JUMPDEST STOP JUMPDEST PUSH2 0x147 PUSH1 0x4 DUP1 CALLDATASIZE SUB DUP2 ADD SWAP1 PUSH2 0x142 SWAP2 SWAP1 PUSH2 0x3B8 JUMP JUMPDEST PUSH2 0x254 JUMP JUMPDEST PUSH1 0x40 MLOAD PUSH2 0x154 SWAP2 SWAP1 PUSH2 0x6EA JUMP JUMPDEST PUSH1 0x40 MLOAD DUP1 SWAP2 SUB SWAP1 RETURN JUMPDEST PUSH1 0x7 DUP1 SLOAD DUP1 PUSH2 0x16F JUMPI PUSH2 0x16E PUSH2 0x70A JUMP JUMPDEST JUMPDEST PUSH1 0x1 SWAP1 SUB DUP2 DUP2 SWAP1 PUSH0 MSTORE PUSH1 0x20 PUSH0 KECCAK256 ADD PUSH0 PUSH2 0x188 SWAP2 SWAP1 PUSH2 0x2FA JUMP JUMPDEST SWAP1 SSTORE JUMP JUMPDEST PUSH0 PUSH1 0x1 DUP3 PUSH1 0x4 DUP2 LT PUSH2 0x1A1 JUMPI PUSH2 0x1A0 PUSH2 0x737 JUMP JUMPDEST JUMPDEST ADD SLOAD SWAP1 POP SWAP2 SWAP1 POP JUMP JUMPDEST PUSH2 0x1B2 PUSH2 0x337 JUMP JUMPDEST PUSH1 0x1 PUSH1 0x4 DUP1 PUSH1 0x20 MUL PUSH1 0x40 MLOAD SWAP1 DUP2 ADD PUSH1 0x40 MSTORE DUP1 SWAP3 SWAP2 SWAP1 DUP3 PUSH1 0x4 DUP1 ISZERO PUSH2 0x1EB JUMPI PUSH1 0x20 MUL DUP3 ADD SWAP2 JUMPDEST DUP2 SLOAD DUP2 MSTORE PUSH1 0x20 ADD SWAP1 PUSH1 0x1 ADD SWAP1 DUP1 DUP4 GT PUSH2 0x1D7 JUMPI JUMPDEST POP POP POP POP POP SWAP1 POP SWAP1 JUMP JUMPDEST DUP1 PUSH1 0x1 DUP4 PUSH1 0x4 DUP2 LT PUSH2 0x20A JUMPI PUSH2 0x209 PUSH2 0x737 JUMP JUMPDEST JUMPDEST ADD DUP2 SWAP1 SSTORE POP POP POP JUMP JUMPDEST PUSH0 PUSH1 0x7 DUP1 SLOAD SWAP1 POP SWAP1 POP SWAP1 JUMP JUMPDEST PUSH1 0x7 DUP2 SWAP1 DUP1 PUSH1 0x1 DUP2 SLOAD ADD DUP1 DUP3 SSTORE DUP1 SWAP2 POP POP PUSH1 0x1 SWAP1 SUB SWAP1 PUSH0 MSTORE PUSH1 0x20 PUSH0 KECCAK256 ADD PUSH0 SWAP1 SWAP2 SWAP1 SWAP2 SWAP1 SWAP2 POP SWAP1 DUP2 PUSH2 0x250 SWAP2 SWAP1 PUSH2 0x95E JUMP JUMPDEST POP POP JUMP JUMPDEST PUSH1 0x7 DUP2 DUP2 SLOAD DUP2 LT PUSH2 0x263 JUMPI PUSH0 DUP1 REVERT JUMPDEST SWAP1 PUSH0 MSTORE PUSH1 0x20 PUSH0 KECCAK256 ADD PUSH0 SWAP2 POP SWAP1 POP DUP1 SLOAD PUSH2 0x27B SWAP1 PUSH2 0x791 JUMP JUMPDEST DUP1 PUSH1 0x1F ADD PUSH1 0x20 DUP1 SWAP2 DIV MUL PUSH1 0x20 ADD PUSH1 0x40 MLOAD SWAP1 DUP2 ADD PUSH1 0x40 MSTORE DUP1 SWAP3 SWAP2 SWAP1 DUP2 DUP2 MSTORE PUSH1 0x20 ADD DUP3 DUP1 SLOAD PUSH2 0x2A7 SWAP1 PUSH2 0x791 JUMP JUMPDEST DUP1 ISZERO PUSH2 0x2F2 JUMPI DUP1 PUSH1 0x1F LT PUSH2 0x2C9 JUMPI PUSH2 0x100 DUP1 DUP4 SLOAD DIV MUL DUP4 MSTORE SWAP2 PUSH1 0x20 ADD SWAP2 PUSH2 0x2F2 JUMP JUMPDEST DUP3 ADD SWAP2 SWAP1 PUSH0 MSTORE PUSH1 0x20 PUSH0 KECCAK256 SWAP1 JUMPDEST DUP2 SLOAD DUP2 MSTORE SWAP1 PUSH1 0x1 ADD SWAP1 PUSH1 0x20 ADD DUP1 DUP4 GT PUSH2 0x2D5 JUMPI DUP3 SWAP1 SUB PUSH1 0x1F AND DUP3 ADD SWAP2 JUMPDEST POP POP POP POP POP DUP2 JUMP JUMPDEST POP DUP1 SLOAD PUSH2 0x306 SWAP1 PUSH2 0x791 JUMP JUMPDEST PUSH0 DUP3 SSTORE DUP1 PUSH1 0x1F LT PUSH2 0x317 JUMPI POP PUSH2 0x334 JUMP JUMPDEST PUSH1 0x1F ADD PUSH1 0x20 SWAP1 DIV SWAP1 PUSH0 MSTORE PUSH1 0x20 PUSH0 KECCAK256 SWAP1 DUP2 ADD SWAP1 PUSH2 0x333 SWAP2 SWAP1 PUSH2 0x359 JUMP JUMPDEST JUMPDEST POP JUMP JUMPDEST PUSH1 0x40 MLOAD DUP1 PUSH1 0x80 ADD PUSH1 0x40 MSTORE DUP1 PUSH1 0x4 SWAP1 PUSH1 0x20 DUP3 MUL DUP1 CALLDATASIZE DUP4 CALLDATACOPY DUP1 DUP3 ADD SWAP2 POP POP SWAP1 POP POP SWAP1 JUMP JUMPDEST JUMPDEST DUP1 DUP3 GT ISZERO PUSH2 0x370 JUMPI PUSH0 DUP2 PUSH0 SWAP1 SSTORE POP PUSH1 0x1 ADD PUSH2 0x35A JUMP JUMPDEST POP SWAP1 JUMP JUMPDEST PUSH0 PUSH1 0x40 MLOAD SWAP1 POP SWAP1 JUMP JUMPDEST PUSH0 DUP1 REVERT JUMPDEST PUSH0 DUP1 REVERT JUMPDEST PUSH0 DUP2 SWAP1 POP SWAP2 SWAP1 POP JUMP JUMPDEST PUSH2 0x397 DUP2 PUSH2 0x385 JUMP JUMPDEST DUP2 EQ PUSH2 0x3A1 JUMPI PUSH0 DUP1 REVERT JUMPDEST POP JUMP JUMPDEST PUSH0 DUP2 CALLDATALOAD SWAP1 POP PUSH2 0x3B2 DUP2 PUSH2 0x38E JUMP JUMPDEST SWAP3 SWAP2 POP POP JUMP JUMPDEST PUSH0 PUSH1 0x20 DUP3 DUP5 SUB SLT ISZERO PUSH2 0x3CD JUMPI PUSH2 0x3CC PUSH2 0x37D JUMP JUMPDEST JUMPDEST PUSH0 PUSH2 0x3DA DUP5 DUP3 DUP6 ADD PUSH2 0x3A4 JUMP JUMPDEST SWAP2 POP POP SWAP3 SWAP2 POP POP JUMP JUMPDEST PUSH2 0x3EC DUP2 PUSH2 0x385 JUMP JUMPDEST DUP3 MSTORE POP POP JUMP JUMPDEST PUSH0 PUSH1 0x20 DUP3 ADD SWAP1 POP PUSH2 0x405 PUSH0 DUP4 ADD DUP5 PUSH2 0x3E3 JUMP JUMPDEST SWAP3 SWAP2 POP POP JUMP JUMPDEST PUSH0 PUSH1 0x4 SWAP1 POP SWAP2 SWAP1 POP JUMP JUMPDEST PUSH0 DUP2 SWAP1 POP SWAP3 SWAP2 POP POP JUMP JUMPDEST PUSH0 DUP2 SWAP1 POP SWAP2 SWAP1 POP JUMP JUMPDEST PUSH2 0x431 DUP2 PUSH2 0x385 JUMP JUMPDEST DUP3 MSTORE POP POP JUMP JUMPDEST PUSH0 PUSH2 0x442 DUP4 DUP4 PUSH2 0x428 JUMP JUMPDEST PUSH1 0x20 DUP4 ADD SWAP1 POP SWAP3 SWAP2 POP POP JUMP JUMPDEST PUSH0 PUSH1 0x20 DUP3 ADD SWAP1 POP SWAP2 SWAP1 POP JUMP JUMPDEST PUSH2 0x463 DUP2 PUSH2 0x40B JUMP JUMPDEST PUSH2 0x46D DUP2 DUP5 PUSH2 0x415 JUMP JUMPDEST SWAP3 POP PUSH2 0x478 DUP3 PUSH2 0x41F JUMP JUMPDEST DUP1 PUSH0 JUMPDEST DUP4 DUP2 LT ISZERO PUSH2 0x4A8 JUMPI DUP2 MLOAD PUSH2 0x48F DUP8 DUP3 PUSH2 0x437 JUMP JUMPDEST SWAP7 POP PUSH2 0x49A DUP4 PUSH2 0x44E JUMP JUMPDEST SWAP3 POP POP PUSH1 0x1 DUP2 ADD SWAP1 POP PUSH2 0x47B JUMP JUMPDEST POP POP POP POP POP POP JUMP JUMPDEST PUSH0 PUSH1 0x80 DUP3 ADD SWAP1 POP PUSH2 0x4C3 PUSH0 DUP4 ADD DUP5 PUSH2 0x45A JUMP JUMPDEST SWAP3 SWAP2 POP POP JUMP JUMPDEST PUSH0 DUP1 PUSH1 0x40 DUP4 DUP6 SUB SLT ISZERO PUSH2 0x4DF JUMPI PUSH2 0x4DE PUSH2 0x37D JUMP JUMPDEST JUMPDEST PUSH0 PUSH2 0x4EC DUP6 DUP3 DUP7 ADD PUSH2 0x3A4 JUMP JUMPDEST SWAP3 POP POP PUSH1 0x20 PUSH2 0x4FD DUP6 DUP3 DUP7 ADD PUSH2 0x3A4 JUMP JUMPDEST SWAP2 POP POP SWAP3 POP SWAP3 SWAP1 POP JUMP JUMPDEST PUSH0 DUP1 REVERT JUMPDEST PUSH0 DUP1 REVERT JUMPDEST PUSH0 PUSH1 0x1F NOT PUSH1 0x1F DUP4 ADD AND SWAP1 POP SWAP2 SWAP1 POP JUMP JUMPDEST PUSH32 0x4E487B7100000000000000000000000000000000000000000000000000000000 PUSH0 MSTORE PUSH1 0x41 PUSH1 0x4 MSTORE PUSH1 0x24 PUSH0 REVERT JUMPDEST PUSH2 0x555 DUP3 PUSH2 0x50F JUMP JUMPDEST DUP2 ADD DUP2 DUP2 LT PUSH8 0xFFFFFFFFFFFFFFFF DUP3 GT OR ISZERO PUSH2 0x574 JUMPI PUSH2 0x573 PUSH2 0x51F JUMP JUMPDEST JUMPDEST DUP1 PUSH1 0x40 MSTORE POP POP POP JUMP JUMPDEST PUSH0 PUSH2 0x586 PUSH2 0x374 JUMP JUMPDEST SWAP1 POP PUSH2 0x592 DUP3 DUP3 PUSH2 0x54C JUMP JUMPDEST SWAP2 SWAP1 POP JUMP JUMPDEST PUSH0 PUSH8 0xFFFFFFFFFFFFFFFF DUP3 GT ISZERO PUSH2 0x5B1 JUMPI PUSH2 0x5B0 PUSH2 0x51F JUMP JUMPDEST JUMPDEST PUSH2 0x5BA DUP3 PUSH2 0x50F JUMP JUMPDEST SWAP1 POP PUSH1 0x20 DUP2 ADD SWAP1 POP SWAP2 SWAP1 POP JUMP JUMPDEST DUP3 DUP2 DUP4 CALLDATACOPY PUSH0 DUP4 DUP4 ADD MSTORE POP POP POP JUMP JUMPDEST PUSH0 PUSH2 0x5E7 PUSH2 0x5E2 DUP5 PUSH2 0x597 JUMP JUMPDEST PUSH2 0x57D JUMP JUMPDEST SWAP1 POP DUP3 DUP2 MSTORE PUSH1 0x20 DUP2 ADD DUP5 DUP5 DUP5 ADD GT ISZERO PUSH2 0x603 JUMPI PUSH2 0x602 PUSH2 0x50B JUMP JUMPDEST JUMPDEST PUSH2 0x60E DUP5 DUP3 DUP6 PUSH2 0x5C7 JUMP JUMPDEST POP SWAP4 SWAP3 POP POP POP JUMP JUMPDEST PUSH0 DUP3 PUSH1 0x1F DUP4 ADD SLT PUSH2 0x62A JUMPI PUSH2 0x629 PUSH2 0x507 JUMP JUMPDEST JUMPDEST DUP2 CALLDATALOAD PUSH2 0x63A DUP5 DUP3 PUSH1 0x20 DUP7 ADD PUSH2 0x5D5 JUMP JUMPDEST SWAP2 POP POP SWAP3 SWAP2 POP POP JUMP JUMPDEST PUSH0 PUSH1 0x20 DUP3 DUP5 SUB SLT ISZERO PUSH2 0x658 JUMPI PUSH2 0x657 PUSH2 0x37D JUMP JUMPDEST JUMPDEST PUSH0 DUP3 ADD CALLDATALOAD PUSH8 0xFFFFFFFFFFFFFFFF DUP2 GT ISZERO PUSH2 0x675 JUMPI PUSH2 0x674 PUSH2 0x381 JUMP JUMPDEST JUMPDEST PUSH2 0x681 DUP5 DUP3 DUP6 ADD PUSH2 0x616 JUMP JUMPDEST SWAP2 POP POP SWAP3 SWAP2 POP POP JUMP JUMPDEST PUSH0 DUP2 MLOAD SWAP1 POP SWAP2 SWAP1 POP JUMP JUMPDEST PUSH0 DUP3 DUP3 MSTORE PUSH1 0x20 DUP3 ADD SWAP1 POP SWAP3 SWAP2 POP POP JUMP JUMPDEST DUP3 DUP2 DUP4 MCOPY PUSH0 DUP4 DUP4 ADD MSTORE POP POP POP JUMP JUMPDEST PUSH0 PUSH2 0x6BC DUP3 PUSH2 0x68A JUMP JUMPDEST PUSH2 0x6C6 DUP2 DUP6 PUSH2 0x694 JUMP JUMPDEST SWAP4 POP PUSH2 0x6D6 DUP2 DUP6 PUSH1 0x20 DUP7 ADD PUSH2 0x6A4 JUMP JUMPDEST PUSH2 0x6DF DUP2 PUSH2 0x50F JUMP JUMPDEST DUP5 ADD SWAP2 POP POP SWAP3 SWAP2 POP POP JUMP JUMPDEST PUSH0 PUSH1 0x20 DUP3 ADD SWAP1 POP DUP2 DUP2 SUB PUSH0 DUP4 ADD MSTORE PUSH2 0x702 DUP2 DUP5 PUSH2 0x6B2 JUMP JUMPDEST SWAP1 POP SWAP3 SWAP2 POP POP JUMP JUMPDEST PUSH32 0x4E487B7100000000000000000000000000000000000000000000000000000000 PUSH0 MSTORE PUSH1 0x31 PUSH1 0x4 MSTORE PUSH1 0x24 PUSH0 REVERT JUMPDEST PUSH32 0x4E487B7100000000000000000000000000000000000000000000000000000000 PUSH0 MSTORE PUSH1 0x32 PUSH1 0x4 MSTORE PUSH1 0x24 PUSH0 REVERT JUMPDEST PUSH32 0x4E487B7100000000000000000000000000000000000000000000000000000000 PUSH0 MSTORE PUSH1 0x22 PUSH1 0x4 MSTORE PUSH1 0x24 PUSH0 REVERT JUMPDEST PUSH0 PUSH1 0x2 DUP3 DIV SWAP1 POP PUSH1 0x1 DUP3 AND DUP1 PUSH2 0x7A8 JUMPI PUSH1 0x7F DUP3 AND SWAP2 POP JUMPDEST PUSH1 0x20 DUP3 LT DUP2 SUB PUSH2 0x7BB JUMPI PUSH2 0x7BA PUSH2 0x764 JUMP JUMPDEST JUMPDEST POP SWAP2 SWAP1 POP JUMP JUMPDEST PUSH0 DUP2 SWAP1 POP DUP2 PUSH0 MSTORE PUSH1 0x20 PUSH0 KECCAK256 SWAP1 POP SWAP2 SWAP1 POP JUMP JUMPDEST PUSH0 PUSH1 0x20 PUSH1 0x1F DUP4 ADD DIV SWAP1 POP SWAP2 SWAP1 POP JUMP JUMPDEST PUSH0 DUP3 DUP3 SHL SWAP1 POP SWAP3 SWAP2 POP POP JUMP JUMPDEST PUSH0 PUSH1 0x8 DUP4 MUL PUSH2 0x81D PUSH32 0xFFFFFFFFFFFFFFFFFFFFFFFFFFFFFFFFFFFFFFFFFFFFFFFFFFFFFFFFFFFFFFFF DUP3 PUSH2 0x7E2 JUMP JUMPDEST PUSH2 0x827 DUP7 DUP4 PUSH2 0x7E2 JUMP JUMPDEST SWAP6 POP DUP1 NOT DUP5 AND SWAP4 POP DUP1 DUP7 AND DUP5 OR SWAP3 POP POP POP SWAP4 SWAP3 POP POP POP JUMP JUMPDEST PUSH0 DUP2 SWAP1 POP SWAP2 SWAP1 POP JUMP JUMPDEST PUSH0 PUSH2 0x862 PUSH2 0x85D PUSH2 0x858 DUP5 PUSH2 0x385 JUMP JUMPDEST PUSH2 0x83F JUMP JUMPDEST PUSH2 0x385 JUMP JUMPDEST SWAP1 POP SWAP2 SWAP1 POP JUMP JUMPDEST PUSH0 DUP2 SWAP1 POP SWAP2 SWAP1 POP JUMP JUMPDEST PUSH2 0x87B DUP4 PUSH2 0x848 JUMP JUMPDEST PUSH2 0x88F PUSH2 0x887 DUP3 PUSH2 0x869 JUMP JUMPDEST DUP5 DUP5 SLOAD PUSH2 0x7EE JUMP JUMPDEST DUP3 SSTORE POP POP POP POP JUMP JUMPDEST PUSH0 SWAP1 JUMP JUMPDEST PUSH2 0x8A3 PUSH2 0x897 JUMP JUMPDEST PUSH2 0x8AE DUP2 DUP5 DUP5 PUSH2 0x872 JUMP JUMPDEST POP POP POP JUMP JUMPDEST JUMPDEST DUP2 DUP2 LT ISZERO PUSH2 0x8D1 JUMPI PUSH2 0x8C6 PUSH0 DUP3 PUSH2 0x89B JUMP JUMPDEST PUSH1 0x1 DUP2 ADD SWAP1 POP PUSH2 0x8B4 JUMP JUMPDEST POP POP JUMP JUMPDEST PUSH1 0x1F DUP3 GT ISZERO PUSH2 0x916 JUMPI PUSH2 0x8E7 DUP2 PUSH2 0x7C1 JUMP JUMPDEST PUSH2 0x8F0 DUP5 PUSH2 0x7D3 JUMP JUMPDEST DUP2 ADD PUSH1 0x20 DUP6 LT ISZERO PUSH2 0x8FF JUMPI DUP2 SWAP1 POP JUMPDEST PUSH2 0x913 PUSH2 0x90B DUP6 PUSH2 0x7D3 JUMP JUMPDEST DUP4 ADD DUP3 PUSH2 0x8B3 JUMP JUMPDEST POP POP JUMPDEST POP POP POP JUMP JUMPDEST PUSH0 DUP3 DUP3 SHR SWAP1 POP SWAP3 SWAP2 POP POP JUMP JUMPDEST PUSH0 PUSH2 0x936 PUSH0 NOT DUP5 PUSH1 0x8 MUL PUSH2 0x91B JUMP JUMPDEST NOT DUP1 DUP4 AND SWAP2 POP POP SWAP3 SWAP2 POP POP JUMP JUMPDEST PUSH0 PUSH2 0x94E DUP4 DUP4 PUSH2 0x927 JUMP JUMPDEST SWAP2 POP DUP3 PUSH1 0x2 MUL DUP3 OR SWAP1 POP SWAP3 SWAP2 POP POP JUMP JUMPDEST PUSH2 0x967 DUP3 PUSH2 0x68A JUMP JUMPDEST PUSH8 0xFFFFFFFFFFFFFFFF DUP2 GT ISZERO PUSH2 0x980 JUMPI PUSH2 0x97F PUSH2 0x51F JUMP JUMPDEST JUMPDEST PUSH2 0x98A DUP3 SLOAD PUSH2 0x791 JUMP JUMPDEST PUSH2 0x995 DUP3 DUP3 DUP6 PUSH2 0x8D5 JUMP JUMPDEST PUSH0 PUSH1 0x20 SWAP1 POP PUSH1 0x1F DUP4 GT PUSH1 0x1 DUP2 EQ PUSH2 0x9C6 JUMPI PUSH0 DUP5 ISZERO PUSH2 0x9B4 JUMPI DUP3 DUP8 ADD MLOAD SWAP1 POP JUMPDEST PUSH2 0x9BE DUP6 DUP3 PUSH2 0x943 JUMP JUMPDEST DUP7 SSTORE POP PUSH2 0xA25 JUMP JUMPDEST PUSH1 0x1F NOT DUP5 AND PUSH2 0x9D4 DUP7 PUSH2 0x7C1 JUMP JUMPDEST PUSH0 JUMPDEST DUP3 DUP2 LT ISZERO PUSH2 0x9FB JUMPI DUP5 DUP10 ADD MLOAD DUP3 SSTORE PUSH1 0x1 DUP3 ADD SWAP2 POP PUSH1 0x20 DUP6 ADD SWAP5 POP PUSH1 0x20 DUP2 ADD SWAP1 POP PUSH2 0x9D6 JUMP JUMPDEST DUP7 DUP4 LT ISZERO PUSH2 0xA18 JUMPI DUP5 DUP10 ADD MLOAD PUSH2 0xA14 PUSH1 0x1F DUP10 AND DUP3 PUSH2 0x927 JUMP JUMPDEST DUP4 SSTORE POP JUMPDEST PUSH1 0x1 PUSH1 0x2 DUP9 MUL ADD DUP9 SSTORE POP POP POP JUMPDEST POP POP POP POP POP POP JUMP INVALID LOG2 PUSH5 0x6970667358 0x22 SLT KECCAK256 TLOAD SELFBALANCE ADDRESS ISZERO SIGNEXTEND MSTORE8 DUP6 0xC7 DUP9 EXP 0xDB 0xCE PUSH7 0xBA0B6C7AB90DCD SHL POP DUP4 PUSH25 0x4C2BC95003932C6864736F6C63430008190033000000000000 "
		},
		"gasEstimates": {
			"creation": {
				"codeDepositCost": "531800",
				"executionCost": "infinite",
				"totalCost": "infinite"
			},
			"external": {
				"alteraArray(uint256,uint256)": "infinite",
				"lerArray(uint256)": "infinite",
				"novoElemento(string)": "infinite",
				"removeElemento()": "infinite",
				"retornaArray()": "infinite",
				"tamanhoArray()": "2462",
				"textos(uint256)": "infinite"
			}
		},
		"methodIdentifiers": {
			"alteraArray(uint256,uint256)": "afc77408",
			"lerArray(uint256)": "840fa7ce",
			"novoElemento(string)": "e8335874",
			"removeElemento()": "76ea66f0",
			"retornaArray()": "9490e961",
			"tamanhoArray()": "e73a69e0",
			"textos(uint256)": "e8c455e0"
		}
	},
	"abi": [
		{
			"inputs": [
				{
					"internalType": "uint256",
					"name": "indice",
					"type": "uint256"
				},
				{
					"internalType": "uint256",
					"name": "valor",
					"type": "uint256"
				}
			],
			"name": "alteraArray",
			"outputs": [],
			"stateMutability": "nonpayable",
			"type": "function"
		},
		{
			"inputs": [
				{
					"internalType": "uint256",
					"name": "indice",
					"type": "uint256"
				}
			],
			"name": "lerArray",
			"outputs": [
				{
					"internalType": "uint256",
					"name": "",
					"type": "uint256"
				}
			],
			"stateMutability": "view",
			"type": "function"
		},
		{
			"inputs": [
				{
					"internalType": "string",
					"name": "element",
					"type": "string"
				}
			],
			"name": "novoElemento",
			"outputs": [],
			"stateMutability": "nonpayable",
			"type": "function"
		},
		{
			"inputs": [],
			"name": "removeElemento",
			"outputs": [],
			"stateMutability": "nonpayable",
			"type": "function"
		},
		{
			"inputs": [],
			"name": "retornaArray",
			"outputs": [
				{
					"internalType": "uint256[4]",
					"name": "",
					"type": "uint256[4]"
				}
			],
			"stateMutability": "view",
			"type": "function"
		},
		{
			"inputs": [],
			"name": "tamanhoArray",
			"outputs": [
				{
					"internalType": "uint256",
					"name": "",
					"type": "uint256"
				}
			],
			"stateMutability": "view",
			"type": "function"
		},
		{
			"inputs": [
				{
					"internalType": "uint256",
					"name": "",
					"type": "uint256"
				}
			],
			"name": "textos",
			"outputs": [
				{
					"internalType": "string",
					"name": "",
					"type": "string"
				}
			],
			"stateMutability": "view",
			"type": "function"
		}
	]
}