{
	"contracts/Heranca.sol": {
		"Foo": {
			"abi": [
				{
					"inputs": [],
					"stateMutability": "nonpayable",
					"type": "constructor"
				},
				{
					"inputs": [
						{
							"internalType": "uint256",
							"name": "_key",
							"type": "uint256"
						},
						{
							"internalType": "uint256",
							"name": "_value",
							"type": "uint256"
						}
					],
					"name": "alteraVariavel",
					"outputs": [],
					"stateMutability": "nonpayable",
					"type": "function"
				},
				{
					"inputs": [
						{
							"internalType": "uint256",
							"name": "_x",
							"type": "uint256"
						},
						{
							"internalType": "uint256",
							"name": "_y",
							"type": "uint256"
						}
					],
					"name": "calculate",
					"outputs": [
						{
							"internalType": "uint256",
							"name": "",
							"type": "uint256"
						}
					],
					"stateMutability": "pure",
					"type": "function"
				},
				{
					"inputs": [
						{
							"internalType": "uint256",
							"name": "_x",
							"type": "uint256"
						},
						{
							"internalType": "uint256",
							"name": "_y",
							"type": "uint256"
						}
					],
					"name": "callFooCalculate",
					"outputs": [
						{
							"internalType": "uint256",
							"name": "",
							"type": "uint256"
						}
					],
					"stateMutability": "pure",
					"type": "function"
				},
				{
					"inputs": [
						{
							"internalType": "uint256",
							"name": "_key",
							"type": "uint256"
						}
					],
					"name": "retornaVar2",
					"outputs": [
						{
							"internalType": "uint256",
							"name": "",
							"type": "uint256"
						}
					],
					"stateMutability": "view",
					"type": "function"
				},
				{
					"inputs": [],
					"name": "var1",
					"outputs": [
						{
							"internalType": "uint256",
							"name": "",
							"type": "uint256"
						}
					],
					"stateMutability": "view",
					"type": "function"
				}
			],
			"devdoc": {
				"kind": "dev",
				"methods": {},
				"version": 1
			},
			"evm": {
				"assembly": "    /* \"contracts/Heranca.sol\":555:1149  contract Foo is Bar {... */\n  mstore(0x40, 0x80)\n    /* \"contracts/Heranca.sol\":95:97  10 */\n  0x0a\n    /* \"contracts/Heranca.sol\":76:97  uint public var1 = 10 */\n  0x00\n  sstore\n    /* \"contracts/Heranca.sol\":124:126  11 */\n  0x0b\n    /* \"contracts/Heranca.sol\":103:126  uint internal var2 = 11 */\n  0x01\n  sstore\n    /* \"contracts/Heranca.sol\":623:647  constructor() Bar(10) {} */\n  callvalue\n  dup1\n  iszero\n  tag_1\n  jumpi\n  0x00\n  dup1\n  revert\ntag_1:\n  pop\n    /* \"contracts/Heranca.sol\":641:643  10 */\n  0x0a\n    /* \"contracts/Heranca.sol\":189:195  _valor */\n  dup1\n    /* \"contracts/Heranca.sol\":182:186  var2 */\n  0x01\n    /* \"contracts/Heranca.sol\":182:195  var2 = _valor */\n  dup2\n  swap1\n  sstore\n  pop\n    /* \"contracts/Heranca.sol\":156:197  constructor(uint _valor) {var2 = _valor;} */\n  pop\n    /* \"contracts/Heranca.sol\":555:1149  contract Foo is Bar {... */\n  dataSize(sub_0)\n  dup1\n  dataOffset(sub_0)\n  0x00\n  codecopy\n  0x00\n  return\nstop\n\nsub_0: assembly {\n        /* \"contracts/Heranca.sol\":555:1149  contract Foo is Bar {... */\n      mstore(0x40, 0x80)\n      callvalue\n      dup1\n      iszero\n      tag_1\n      jumpi\n      0x00\n      dup1\n      revert\n    tag_1:\n      pop\n      jumpi(tag_2, lt(calldatasize, 0x04))\n      shr(0xe0, calldataload(0x00))\n      dup1\n      0x059b4975\n      eq\n      tag_3\n      jumpi\n      dup1\n      0x67e919b6\n      eq\n      tag_4\n      jumpi\n      dup1\n      0x74285006\n      eq\n      tag_5\n      jumpi\n      dup1\n      0x8dfa4363\n      eq\n      tag_6\n      jumpi\n      dup1\n      0xcc7353d1\n      eq\n      tag_7\n      jumpi\n    tag_2:\n      0x00\n      dup1\n      revert\n        /* \"contracts/Heranca.sol\":653:833  function alteraVariavel(uint _key,uint _value)public {... */\n    tag_3:\n      tag_8\n      0x04\n      dup1\n      calldatasize\n      sub\n      dup2\n      add\n      swap1\n      tag_9\n      swap2\n      swap1\n      tag_10\n      jump\t// in\n    tag_9:\n      tag_11\n      jump\t// in\n    tag_8:\n      stop\n        /* \"contracts/Heranca.sol\":76:97  uint public var1 = 10 */\n    tag_4:\n      tag_12\n      tag_13\n      jump\t// in\n    tag_12:\n      mload(0x40)\n      tag_14\n      swap2\n      swap1\n      tag_15\n      jump\t// in\n    tag_14:\n      mload(0x40)\n      dup1\n      swap2\n      sub\n      swap1\n      return\n        /* \"contracts/Heranca.sol\":203:445  function retornaVar2(uint _key) public view returns (uint) {... */\n    tag_5:\n      tag_16\n      0x04\n      dup1\n      calldatasize\n      sub\n      dup2\n      add\n      swap1\n      tag_17\n      swap2\n      swap1\n      tag_18\n      jump\t// in\n    tag_17:\n      tag_19\n      jump\t// in\n    tag_16:\n      mload(0x40)\n      tag_20\n      swap2\n      swap1\n      tag_15\n      jump\t// in\n    tag_20:\n      mload(0x40)\n      dup1\n      swap2\n      sub\n      swap1\n      return\n        /* \"contracts/Heranca.sol\":884:984  function calculate(uint _x,uint _y) public override pure returns (uint){... */\n    tag_6:\n      tag_21\n      0x04\n      dup1\n      calldatasize\n      sub\n      dup2\n      add\n      swap1\n      tag_22\n      swap2\n      swap1\n      tag_10\n      jump\t// in\n    tag_22:\n      tag_23\n      jump\t// in\n    tag_21:\n      mload(0x40)\n      tag_24\n      swap2\n      swap1\n      tag_15\n      jump\t// in\n    tag_24:\n      mload(0x40)\n      dup1\n      swap2\n      sub\n      swap1\n      return\n        /* \"contracts/Heranca.sol\":1033:1147  function callFooCalculate(uint _x,uint _y)public pure returns (uint) {... */\n    tag_7:\n      tag_25\n      0x04\n      dup1\n      calldatasize\n      sub\n      dup2\n      add\n      swap1\n      tag_26\n      swap2\n      swap1\n      tag_10\n      jump\t// in\n    tag_26:\n      tag_27\n      jump\t// in\n    tag_25:\n      mload(0x40)\n      tag_28\n      swap2\n      swap1\n      tag_15\n      jump\t// in\n    tag_28:\n      mload(0x40)\n      dup1\n      swap2\n      sub\n      swap1\n      return\n        /* \"contracts/Heranca.sol\":653:833  function alteraVariavel(uint _key,uint _value)public {... */\n    tag_11:\n        /* \"contracts/Heranca.sol\":728:729  1 */\n      0x01\n        /* \"contracts/Heranca.sol\":720:724  _key */\n      dup3\n        /* \"contracts/Heranca.sol\":720:729  _key == 1 */\n      sub\n        /* \"contracts/Heranca.sol\":716:777  if (_key == 1) {var1 = _value;... */\n      tag_30\n      jumpi\n        /* \"contracts/Heranca.sol\":739:745  _value */\n      dup1\n        /* \"contracts/Heranca.sol\":732:736  var1 */\n      0x00\n        /* \"contracts/Heranca.sol\":732:745  var1 = _value */\n      dup2\n      swap1\n      sstore\n      pop\n        /* \"contracts/Heranca.sol\":716:777  if (_key == 1) {var1 = _value;... */\n      jump(tag_31)\n    tag_30:\n        /* \"contracts/Heranca.sol\":769:775  _value */\n      dup1\n        /* \"contracts/Heranca.sol\":762:766  var2 */\n      0x01\n        /* \"contracts/Heranca.sol\":762:775  var2 = _value */\n      dup2\n      swap1\n      sstore\n      pop\n        /* \"contracts/Heranca.sol\":716:777  if (_key == 1) {var1 = _value;... */\n    tag_31:\n        /* \"contracts/Heranca.sol\":653:833  function alteraVariavel(uint _key,uint _value)public {... */\n      pop\n      pop\n      jump\t// out\n        /* \"contracts/Heranca.sol\":76:97  uint public var1 = 10 */\n    tag_13:\n      sload(0x00)\n      dup2\n      jump\t// out\n        /* \"contracts/Heranca.sol\":203:445  function retornaVar2(uint _key) public view returns (uint) {... */\n    tag_19:\n        /* \"contracts/Heranca.sol\":256:260  uint */\n      0x00\n        /* \"contracts/Heranca.sol\":284:285  0 */\n      dup1\n        /* \"contracts/Heranca.sol\":276:280  _key */\n      dup3\n        /* \"contracts/Heranca.sol\":276:285  _key == 0 */\n      sub\n        /* \"contracts/Heranca.sol\":272:439  if (_key == 0){... */\n      tag_33\n      jumpi\n        /* \"contracts/Heranca.sol\":300:313  uint retornoA */\n      0x00\n        /* \"contracts/Heranca.sol\":316:320  var2 */\n      sload(0x01)\n        /* \"contracts/Heranca.sol\":300:320  uint retornoA = var2 */\n      swap1\n      pop\n        /* \"contracts/Heranca.sol\":341:349  retornoA */\n      dup1\n        /* \"contracts/Heranca.sol\":334:349  return retornoA */\n      swap2\n      pop\n      pop\n      jump(tag_32)\n        /* \"contracts/Heranca.sol\":272:439  if (_key == 0){... */\n    tag_33:\n        /* \"contracts/Heranca.sol\":379:392  uint retornoB */\n      0x00\n        /* \"contracts/Heranca.sol\":395:399  var4 */\n      sload(0x02)\n        /* \"contracts/Heranca.sol\":379:399  uint retornoB = var4 */\n      swap1\n      pop\n        /* \"contracts/Heranca.sol\":420:428  retornoB */\n      dup1\n        /* \"contracts/Heranca.sol\":413:428  return retornoB */\n      swap2\n      pop\n      pop\n        /* \"contracts/Heranca.sol\":203:445  function retornaVar2(uint _key) public view returns (uint) {... */\n    tag_32:\n      swap2\n      swap1\n      pop\n      jump\t// out\n        /* \"contracts/Heranca.sol\":884:984  function calculate(uint _x,uint _y) public override pure returns (uint){... */\n    tag_23:\n        /* \"contracts/Heranca.sol\":950:954  uint */\n      0x00\n        /* \"contracts/Heranca.sol\":975:977  _y */\n      dup2\n        /* \"contracts/Heranca.sol\":972:974  _x */\n      dup4\n        /* \"contracts/Heranca.sol\":972:977  _x*_y */\n      tag_36\n      swap2\n      swap1\n      tag_37\n      jump\t// in\n    tag_36:\n        /* \"contracts/Heranca.sol\":965:977  return _x*_y */\n      swap1\n      pop\n        /* \"contracts/Heranca.sol\":884:984  function calculate(uint _x,uint _y) public override pure returns (uint){... */\n      swap3\n      swap2\n      pop\n      pop\n      jump\t// out\n        /* \"contracts/Heranca.sol\":1033:1147  function callFooCalculate(uint _x,uint _y)public pure returns (uint) {... */\n    tag_27:\n        /* \"contracts/Heranca.sol\":1096:1100  uint */\n      0x00\n        /* \"contracts/Heranca.sol\":1119:1140  Foo.calculate(_x, _y) */\n      tag_39\n        /* \"contracts/Heranca.sol\":1133:1135  _x */\n      dup4\n        /* \"contracts/Heranca.sol\":1137:1139  _y */\n      dup4\n        /* \"contracts/Heranca.sol\":1119:1132  Foo.calculate */\n      tag_23\n        /* \"contracts/Heranca.sol\":1119:1140  Foo.calculate(_x, _y) */\n      jump\t// in\n    tag_39:\n        /* \"contracts/Heranca.sol\":1112:1140  return Foo.calculate(_x, _y) */\n      swap1\n      pop\n        /* \"contracts/Heranca.sol\":1033:1147  function callFooCalculate(uint _x,uint _y)public pure returns (uint) {... */\n      swap3\n      swap2\n      pop\n      pop\n      jump\t// out\n        /* \"#utility.yul\":88:205   */\n    tag_41:\n        /* \"#utility.yul\":197:198   */\n      0x00\n        /* \"#utility.yul\":194:195   */\n      dup1\n        /* \"#utility.yul\":187:199   */\n      revert\n        /* \"#utility.yul\":334:411   */\n    tag_43:\n        /* \"#utility.yul\":371:378   */\n      0x00\n        /* \"#utility.yul\":400:405   */\n      dup2\n        /* \"#utility.yul\":389:405   */\n      swap1\n      pop\n        /* \"#utility.yul\":334:411   */\n      swap2\n      swap1\n      pop\n      jump\t// out\n        /* \"#utility.yul\":417:539   */\n    tag_44:\n        /* \"#utility.yul\":490:514   */\n      tag_54\n        /* \"#utility.yul\":508:513   */\n      dup2\n        /* \"#utility.yul\":490:514   */\n      tag_43\n      jump\t// in\n    tag_54:\n        /* \"#utility.yul\":483:488   */\n      dup2\n        /* \"#utility.yul\":480:515   */\n      eq\n        /* \"#utility.yul\":470:533   */\n      tag_55\n      jumpi\n        /* \"#utility.yul\":529:530   */\n      0x00\n        /* \"#utility.yul\":526:527   */\n      dup1\n        /* \"#utility.yul\":519:531   */\n      revert\n        /* \"#utility.yul\":470:533   */\n    tag_55:\n        /* \"#utility.yul\":417:539   */\n      pop\n      jump\t// out\n        /* \"#utility.yul\":545:684   */\n    tag_45:\n        /* \"#utility.yul\":591:596   */\n      0x00\n        /* \"#utility.yul\":629:635   */\n      dup2\n        /* \"#utility.yul\":616:636   */\n      calldataload\n        /* \"#utility.yul\":607:636   */\n      swap1\n      pop\n        /* \"#utility.yul\":645:678   */\n      tag_57\n        /* \"#utility.yul\":672:677   */\n      dup2\n        /* \"#utility.yul\":645:678   */\n      tag_44\n      jump\t// in\n    tag_57:\n        /* \"#utility.yul\":545:684   */\n      swap3\n      swap2\n      pop\n      pop\n      jump\t// out\n        /* \"#utility.yul\":690:1164   */\n    tag_10:\n        /* \"#utility.yul\":758:764   */\n      0x00\n        /* \"#utility.yul\":766:772   */\n      dup1\n        /* \"#utility.yul\":815:817   */\n      0x40\n        /* \"#utility.yul\":803:812   */\n      dup4\n        /* \"#utility.yul\":794:801   */\n      dup6\n        /* \"#utility.yul\":790:813   */\n      sub\n        /* \"#utility.yul\":786:818   */\n      slt\n        /* \"#utility.yul\":783:902   */\n      iszero\n      tag_59\n      jumpi\n        /* \"#utility.yul\":821:900   */\n      tag_60\n      tag_41\n      jump\t// in\n    tag_60:\n        /* \"#utility.yul\":783:902   */\n    tag_59:\n        /* \"#utility.yul\":941:942   */\n      0x00\n        /* \"#utility.yul\":966:1019   */\n      tag_61\n        /* \"#utility.yul\":1011:1018   */\n      dup6\n        /* \"#utility.yul\":1002:1008   */\n      dup3\n        /* \"#utility.yul\":991:1000   */\n      dup7\n        /* \"#utility.yul\":987:1009   */\n      add\n        /* \"#utility.yul\":966:1019   */\n      tag_45\n      jump\t// in\n    tag_61:\n        /* \"#utility.yul\":956:1019   */\n      swap3\n      pop\n        /* \"#utility.yul\":912:1029   */\n      pop\n        /* \"#utility.yul\":1068:1070   */\n      0x20\n        /* \"#utility.yul\":1094:1147   */\n      tag_62\n        /* \"#utility.yul\":1139:1146   */\n      dup6\n        /* \"#utility.yul\":1130:1136   */\n      dup3\n        /* \"#utility.yul\":1119:1128   */\n      dup7\n        /* \"#utility.yul\":1115:1137   */\n      add\n        /* \"#utility.yul\":1094:1147   */\n      tag_45\n      jump\t// in\n    tag_62:\n        /* \"#utility.yul\":1084:1147   */\n      swap2\n      pop\n        /* \"#utility.yul\":1039:1157   */\n      pop\n        /* \"#utility.yul\":690:1164   */\n      swap3\n      pop\n      swap3\n      swap1\n      pop\n      jump\t// out\n        /* \"#utility.yul\":1170:1288   */\n    tag_46:\n        /* \"#utility.yul\":1257:1281   */\n      tag_64\n        /* \"#utility.yul\":1275:1280   */\n      dup2\n        /* \"#utility.yul\":1257:1281   */\n      tag_43\n      jump\t// in\n    tag_64:\n        /* \"#utility.yul\":1252:1255   */\n      dup3\n        /* \"#utility.yul\":1245:1282   */\n      mstore\n        /* \"#utility.yul\":1170:1288   */\n      pop\n      pop\n      jump\t// out\n        /* \"#utility.yul\":1294:1516   */\n    tag_15:\n        /* \"#utility.yul\":1387:1391   */\n      0x00\n        /* \"#utility.yul\":1425:1427   */\n      0x20\n        /* \"#utility.yul\":1414:1423   */\n      dup3\n        /* \"#utility.yul\":1410:1428   */\n      add\n        /* \"#utility.yul\":1402:1428   */\n      swap1\n      pop\n        /* \"#utility.yul\":1438:1509   */\n      tag_66\n        /* \"#utility.yul\":1506:1507   */\n      0x00\n        /* \"#utility.yul\":1495:1504   */\n      dup4\n        /* \"#utility.yul\":1491:1508   */\n      add\n        /* \"#utility.yul\":1482:1488   */\n      dup5\n        /* \"#utility.yul\":1438:1509   */\n      tag_46\n      jump\t// in\n    tag_66:\n        /* \"#utility.yul\":1294:1516   */\n      swap3\n      swap2\n      pop\n      pop\n      jump\t// out\n        /* \"#utility.yul\":1522:1851   */\n    tag_18:\n        /* \"#utility.yul\":1581:1587   */\n      0x00\n        /* \"#utility.yul\":1630:1632   */\n      0x20\n        /* \"#utility.yul\":1618:1627   */\n      dup3\n        /* \"#utility.yul\":1609:1616   */\n      dup5\n        /* \"#utility.yul\":1605:1628   */\n      sub\n        /* \"#utility.yul\":1601:1633   */\n      slt\n        /* \"#utility.yul\":1598:1717   */\n      iszero\n      tag_68\n      jumpi\n        /* \"#utility.yul\":1636:1715   */\n      tag_69\n      tag_41\n      jump\t// in\n    tag_69:\n        /* \"#utility.yul\":1598:1717   */\n    tag_68:\n        /* \"#utility.yul\":1756:1757   */\n      0x00\n        /* \"#utility.yul\":1781:1834   */\n      tag_70\n        /* \"#utility.yul\":1826:1833   */\n      dup5\n        /* \"#utility.yul\":1817:1823   */\n      dup3\n        /* \"#utility.yul\":1806:1815   */\n      dup6\n        /* \"#utility.yul\":1802:1824   */\n      add\n        /* \"#utility.yul\":1781:1834   */\n      tag_45\n      jump\t// in\n    tag_70:\n        /* \"#utility.yul\":1771:1834   */\n      swap2\n      pop\n        /* \"#utility.yul\":1727:1844   */\n      pop\n        /* \"#utility.yul\":1522:1851   */\n      swap3\n      swap2\n      pop\n      pop\n      jump\t// out\n        /* \"#utility.yul\":1857:2037   */\n    tag_47:\n        /* \"#utility.yul\":1905:1982   */\n      0x4e487b7100000000000000000000000000000000000000000000000000000000\n        /* \"#utility.yul\":1902:1903   */\n      0x00\n        /* \"#utility.yul\":1895:1983   */\n      mstore\n        /* \"#utility.yul\":2002:2006   */\n      0x11\n        /* \"#utility.yul\":1999:2000   */\n      0x04\n        /* \"#utility.yul\":1992:2007   */\n      mstore\n        /* \"#utility.yul\":2026:2030   */\n      0x24\n        /* \"#utility.yul\":2023:2024   */\n      0x00\n        /* \"#utility.yul\":2016:2031   */\n      revert\n        /* \"#utility.yul\":2043:2453   */\n    tag_37:\n        /* \"#utility.yul\":2083:2090   */\n      0x00\n        /* \"#utility.yul\":2106:2126   */\n      tag_73\n        /* \"#utility.yul\":2124:2125   */\n      dup3\n        /* \"#utility.yul\":2106:2126   */\n      tag_43\n      jump\t// in\n    tag_73:\n        /* \"#utility.yul\":2101:2126   */\n      swap2\n      pop\n        /* \"#utility.yul\":2140:2160   */\n      tag_74\n        /* \"#utility.yul\":2158:2159   */\n      dup4\n        /* \"#utility.yul\":2140:2160   */\n      tag_43\n      jump\t// in\n    tag_74:\n        /* \"#utility.yul\":2135:2160   */\n      swap3\n      pop\n        /* \"#utility.yul\":2195:2196   */\n      dup3\n        /* \"#utility.yul\":2192:2193   */\n      dup3\n        /* \"#utility.yul\":2188:2197   */\n      mul\n        /* \"#utility.yul\":2217:2247   */\n      tag_75\n        /* \"#utility.yul\":2235:2246   */\n      dup2\n        /* \"#utility.yul\":2217:2247   */\n      tag_43\n      jump\t// in\n    tag_75:\n        /* \"#utility.yul\":2206:2247   */\n      swap2\n      pop\n        /* \"#utility.yul\":2396:2397   */\n      dup3\n        /* \"#utility.yul\":2387:2394   */\n      dup3\n        /* \"#utility.yul\":2383:2398   */\n      div\n        /* \"#utility.yul\":2380:2381   */\n      dup5\n        /* \"#utility.yul\":2377:2399   */\n      eq\n        /* \"#utility.yul\":2357:2358   */\n      dup4\n        /* \"#utility.yul\":2350:2359   */\n      iszero\n        /* \"#utility.yul\":2330:2413   */\n      or\n        /* \"#utility.yul\":2307:2446   */\n      tag_76\n      jumpi\n        /* \"#utility.yul\":2426:2444   */\n      tag_77\n      tag_47\n      jump\t// in\n    tag_77:\n        /* \"#utility.yul\":2307:2446   */\n    tag_76:\n        /* \"#utility.yul\":2091:2453   */\n      pop\n        /* \"#utility.yul\":2043:2453   */\n      swap3\n      swap2\n      pop\n      pop\n      jump\t// out\n\n    auxdata: 0xa26469706673582212201024a775d1e81a4fd72cc941ac71975b8ae51f0472ec0ad21c5844af8cf9e24c64736f6c63430008190033\n}\n",
				"bytecode": {
					"linkReferences": {},
					"object": "6080604052600a5f55600b6001553480156017575f80fd5b50600a80600181905550506103028061002f5f395ff3fe608060405234801561000f575f80fd5b5060043610610055575f3560e01c8063059b49751461005957806367e919b61461007557806374285006146100935780638dfa4363146100c3578063cc7353d1146100f3575b5f80fd5b610073600480360381019061006e91906101cd565b610123565b005b61007d610142565b60405161008a919061021a565b60405180910390f35b6100ad60048036038101906100a89190610233565b610147565b6040516100ba919061021a565b60405180910390f35b6100dd60048036038101906100d891906101cd565b61016e565b6040516100ea919061021a565b60405180910390f35b61010d600480360381019061010891906101cd565b610183565b60405161011a919061021a565b60405180910390f35b6001820361013657805f8190555061013e565b806001819055505b5050565b5f5481565b5f80820361015e575f600154905080915050610169565b5f6002549050809150505b919050565b5f818361017b919061028b565b905092915050565b5f61018e838361016e565b905092915050565b5f80fd5b5f819050919050565b6101ac8161019a565b81146101b6575f80fd5b50565b5f813590506101c7816101a3565b92915050565b5f80604083850312156101e3576101e2610196565b5b5f6101f0858286016101b9565b9250506020610201858286016101b9565b9150509250929050565b6102148161019a565b82525050565b5f60208201905061022d5f83018461020b565b92915050565b5f6020828403121561024857610247610196565b5b5f610255848285016101b9565b91505092915050565b7f4e487b71000000000000000000000000000000000000000000000000000000005f52601160045260245ffd5b5f6102958261019a565b91506102a08361019a565b92508282026102ae8161019a565b915082820484148315176102c5576102c461025e565b5b509291505056fea26469706673582212201024a775d1e81a4fd72cc941ac71975b8ae51f0472ec0ad21c5844af8cf9e24c64736f6c63430008190033",
					"opcodes": "PUSH1 0x80 PUSH1 0x40 MSTORE PUSH1 0xA PUSH0 SSTORE PUSH1 0xB PUSH1 0x1 SSTORE CALLVALUE DUP1 ISZERO PUSH1 0x17 JUMPI PUSH0 DUP1 REVERT JUMPDEST POP PUSH1 0xA DUP1 PUSH1 0x1 DUP2 SWAP1 SSTORE POP POP PUSH2 0x302 DUP1 PUSH2 0x2F PUSH0 CODECOPY PUSH0 RETURN INVALID PUSH1 0x80 PUSH1 0x40 MSTORE CALLVALUE DUP1 ISZERO PUSH2 0xF JUMPI PUSH0 DUP1 REVERT JUMPDEST POP PUSH1 0x4 CALLDATASIZE LT PUSH2 0x55 JUMPI PUSH0 CALLDATALOAD PUSH1 0xE0 SHR DUP1 PUSH4 0x59B4975 EQ PUSH2 0x59 JUMPI DUP1 PUSH4 0x67E919B6 EQ PUSH2 0x75 JUMPI DUP1 PUSH4 0x74285006 EQ PUSH2 0x93 JUMPI DUP1 PUSH4 0x8DFA4363 EQ PUSH2 0xC3 JUMPI DUP1 PUSH4 0xCC7353D1 EQ PUSH2 0xF3 JUMPI JUMPDEST PUSH0 DUP1 REVERT JUMPDEST PUSH2 0x73 PUSH1 0x4 DUP1 CALLDATASIZE SUB DUP2 ADD SWAP1 PUSH2 0x6E SWAP2 SWAP1 PUSH2 0x1CD JUMP JUMPDEST PUSH2 0x123 JUMP JUMPDEST STOP JUMPDEST PUSH2 0x7D PUSH2 0x142 JUMP JUMPDEST PUSH1 0x40 MLOAD PUSH2 0x8A SWAP2 SWAP1 PUSH2 0x21A JUMP JUMPDEST PUSH1 0x40 MLOAD DUP1 SWAP2 SUB SWAP1 RETURN JUMPDEST PUSH2 0xAD PUSH1 0x4 DUP1 CALLDATASIZE SUB DUP2 ADD SWAP1 PUSH2 0xA8 SWAP2 SWAP1 PUSH2 0x233 JUMP JUMPDEST PUSH2 0x147 JUMP JUMPDEST PUSH1 0x40 MLOAD PUSH2 0xBA SWAP2 SWAP1 PUSH2 0x21A JUMP JUMPDEST PUSH1 0x40 MLOAD DUP1 SWAP2 SUB SWAP1 RETURN JUMPDEST PUSH2 0xDD PUSH1 0x4 DUP1 CALLDATASIZE SUB DUP2 ADD SWAP1 PUSH2 0xD8 SWAP2 SWAP1 PUSH2 0x1CD JUMP JUMPDEST PUSH2 0x16E JUMP JUMPDEST PUSH1 0x40 MLOAD PUSH2 0xEA SWAP2 SWAP1 PUSH2 0x21A JUMP JUMPDEST PUSH1 0x40 MLOAD DUP1 SWAP2 SUB SWAP1 RETURN JUMPDEST PUSH2 0x10D PUSH1 0x4 DUP1 CALLDATASIZE SUB DUP2 ADD SWAP1 PUSH2 0x108 SWAP2 SWAP1 PUSH2 0x1CD JUMP JUMPDEST PUSH2 0x183 JUMP JUMPDEST PUSH1 0x40 MLOAD PUSH2 0x11A SWAP2 SWAP1 PUSH2 0x21A JUMP JUMPDEST PUSH1 0x40 MLOAD DUP1 SWAP2 SUB SWAP1 RETURN JUMPDEST PUSH1 0x1 DUP3 SUB PUSH2 0x136 JUMPI DUP1 PUSH0 DUP2 SWAP1 SSTORE POP PUSH2 0x13E JUMP JUMPDEST DUP1 PUSH1 0x1 DUP2 SWAP1 SSTORE POP JUMPDEST POP POP JUMP JUMPDEST PUSH0 SLOAD DUP2 JUMP JUMPDEST PUSH0 DUP1 DUP3 SUB PUSH2 0x15E JUMPI PUSH0 PUSH1 0x1 SLOAD SWAP1 POP DUP1 SWAP2 POP POP PUSH2 0x169 JUMP JUMPDEST PUSH0 PUSH1 0x2 SLOAD SWAP1 POP DUP1 SWAP2 POP POP JUMPDEST SWAP2 SWAP1 POP JUMP JUMPDEST PUSH0 DUP2 DUP4 PUSH2 0x17B SWAP2 SWAP1 PUSH2 0x28B JUMP JUMPDEST SWAP1 POP SWAP3 SWAP2 POP POP JUMP JUMPDEST PUSH0 PUSH2 0x18E DUP4 DUP4 PUSH2 0x16E JUMP JUMPDEST SWAP1 POP SWAP3 SWAP2 POP POP JUMP JUMPDEST PUSH0 DUP1 REVERT JUMPDEST PUSH0 DUP2 SWAP1 POP SWAP2 SWAP1 POP JUMP JUMPDEST PUSH2 0x1AC DUP2 PUSH2 0x19A JUMP JUMPDEST DUP2 EQ PUSH2 0x1B6 JUMPI PUSH0 DUP1 REVERT JUMPDEST POP JUMP JUMPDEST PUSH0 DUP2 CALLDATALOAD SWAP1 POP PUSH2 0x1C7 DUP2 PUSH2 0x1A3 JUMP JUMPDEST SWAP3 SWAP2 POP POP JUMP JUMPDEST PUSH0 DUP1 PUSH1 0x40 DUP4 DUP6 SUB SLT ISZERO PUSH2 0x1E3 JUMPI PUSH2 0x1E2 PUSH2 0x196 JUMP JUMPDEST JUMPDEST PUSH0 PUSH2 0x1F0 DUP6 DUP3 DUP7 ADD PUSH2 0x1B9 JUMP JUMPDEST SWAP3 POP POP PUSH1 0x20 PUSH2 0x201 DUP6 DUP3 DUP7 ADD PUSH2 0x1B9 JUMP JUMPDEST SWAP2 POP POP SWAP3 POP SWAP3 SWAP1 POP JUMP JUMPDEST PUSH2 0x214 DUP2 PUSH2 0x19A JUMP JUMPDEST DUP3 MSTORE POP POP JUMP JUMPDEST PUSH0 PUSH1 0x20 DUP3 ADD SWAP1 POP PUSH2 0x22D PUSH0 DUP4 ADD DUP5 PUSH2 0x20B JUMP JUMPDEST SWAP3 SWAP2 POP POP JUMP JUMPDEST PUSH0 PUSH1 0x20 DUP3 DUP5 SUB SLT ISZERO PUSH2 0x248 JUMPI PUSH2 0x247 PUSH2 0x196 JUMP JUMPDEST JUMPDEST PUSH0 PUSH2 0x255 DUP5 DUP3 DUP6 ADD PUSH2 0x1B9 JUMP JUMPDEST SWAP2 POP POP SWAP3 SWAP2 POP POP JUMP JUMPDEST PUSH32 0x4E487B7100000000000000000000000000000000000000000000000000000000 PUSH0 MSTORE PUSH1 0x11 PUSH1 0x4 MSTORE PUSH1 0x24 PUSH0 REVERT JUMPDEST PUSH0 PUSH2 0x295 DUP3 PUSH2 0x19A JUMP JUMPDEST SWAP2 POP PUSH2 0x2A0 DUP4 PUSH2 0x19A JUMP JUMPDEST SWAP3 POP DUP3 DUP3 MUL PUSH2 0x2AE DUP2 PUSH2 0x19A JUMP JUMPDEST SWAP2 POP DUP3 DUP3 DIV DUP5 EQ DUP4 ISZERO OR PUSH2 0x2C5 JUMPI PUSH2 0x2C4 PUSH2 0x25E JUMP JUMPDEST JUMPDEST POP SWAP3 SWAP2 POP POP JUMP INVALID LOG2 PUSH5 0x6970667358 0x22 SLT KECCAK256 LT 0x24 0xA7 PUSH22 0xD1E81A4FD72CC941AC71975B8AE51F0472EC0AD21C58 PREVRANDAO 0xAF DUP13 0xF9 0xE2 0x4C PUSH5 0x736F6C6343 STOP ADDMOD NOT STOP CALLER "
				},
				"gasEstimates": {
					"creation": {
						"codeDepositCost": "154000",
						"executionCost": "49430",
						"totalCost": "203430"
					},
					"external": {
						"alteraVariavel(uint256,uint256)": "infinite",
						"calculate(uint256,uint256)": "infinite",
						"callFooCalculate(uint256,uint256)": "infinite",
						"retornaVar2(uint256)": "infinite",
						"var1()": "2424"
					}
				},
				"methodIdentifiers": {
					"alteraVariavel(uint256,uint256)": "059b4975",
					"calculate(uint256,uint256)": "8dfa4363",
					"callFooCalculate(uint256,uint256)": "cc7353d1",
					"retornaVar2(uint256)": "74285006",
					"var1()": "67e919b6"
				}
			},
			"storageLayout": {
				"storage": [
					{
						"astId": 4,
						"contract": "contracts/Heranca.sol:Foo",
						"label": "var1",
						"offset": 0,
						"slot": "0",
						"type": "t_uint256"
					},
					{
						"astId": 7,
						"contract": "contracts/Heranca.sol:Foo",
						"label": "var2",
						"offset": 0,
						"slot": "1",
						"type": "t_uint256"
					},
					{
						"astId": 9,
						"contract": "contracts/Heranca.sol:Foo",
						"label": "var4",
						"offset": 0,
						"slot": "2",
						"type": "t_uint256"
					}
				],
				"types": {
					"t_uint256": {
						"encoding": "inplace",
						"label": "uint256",
						"numberOfBytes": "32"
					}
				}
			},
			"userdoc": {
				"kind": "user",
				"methods": {},
				"version": 1
			}
		}
	}
}