{
	"contracts/Interface.sol": {
		"Chamador": {
			"abi": [
				{
					"inputs": [
						{
							"internalType": "uint256",
							"name": "_valor",
							"type": "uint256"
						}
					],
					"name": "callAlteraValor",
					"outputs": [
						{
							"internalType": "bool",
							"name": "",
							"type": "bool"
						},
						{
							"internalType": "bytes",
							"name": "",
							"type": "bytes"
						}
					],
					"stateMutability": "nonpayable",
					"type": "function"
				},
				{
					"inputs": [
						{
							"internalType": "address",
							"name": "_address",
							"type": "address"
						}
					],
					"name": "setAddress",
					"outputs": [],
					"stateMutability": "nonpayable",
					"type": "function"
				}
			],
			"devdoc": {
				"kind": "dev",
				"methods": {},
				"version": 1
			},
			"evm": {
				"assembly": "    /* \"contracts/Interface.sol\":786:1152  contract Chamador {... */\n  mstore(0x40, 0x80)\n  callvalue\n  dup1\n  iszero\n  tag_1\n  jumpi\n  0x00\n  dup1\n  revert\ntag_1:\n  pop\n  dataSize(sub_0)\n  dup1\n  dataOffset(sub_0)\n  0x00\n  codecopy\n  0x00\n  return\nstop\n\nsub_0: assembly {\n        /* \"contracts/Interface.sol\":786:1152  contract Chamador {... */\n      mstore(0x40, 0x80)\n      callvalue\n      dup1\n      iszero\n      tag_1\n      jumpi\n      0x00\n      dup1\n      revert\n    tag_1:\n      pop\n      jumpi(tag_2, lt(calldatasize, 0x04))\n      shr(0xe0, calldataload(0x00))\n      dup1\n      0xc3a7590c\n      eq\n      tag_3\n      jumpi\n      dup1\n      0xe30081a0\n      eq\n      tag_4\n      jumpi\n    tag_2:\n      0x00\n      dup1\n      revert\n        /* \"contracts/Interface.sol\":918:1150  function callAlteraValor(uint _valor) public returns (bool,bytes memory) {... */\n    tag_3:\n      tag_5\n      0x04\n      dup1\n      calldatasize\n      sub\n      dup2\n      add\n      swap1\n      tag_6\n      swap2\n      swap1\n      tag_7\n      jump\t// in\n    tag_6:\n      tag_8\n      jump\t// in\n    tag_5:\n      mload(0x40)\n      tag_9\n      swap3\n      swap2\n      swap1\n      tag_10\n      jump\t// in\n    tag_9:\n      mload(0x40)\n      dup1\n      swap2\n      sub\n      swap1\n      return\n        /* \"contracts/Interface.sol\":832:913  function setAddress(address _address) public {... */\n    tag_4:\n      tag_11\n      0x04\n      dup1\n      calldatasize\n      sub\n      dup2\n      add\n      swap1\n      tag_12\n      swap2\n      swap1\n      tag_13\n      jump\t// in\n    tag_12:\n      tag_14\n      jump\t// in\n    tag_11:\n      stop\n        /* \"contracts/Interface.sol\":918:1150  function callAlteraValor(uint _valor) public returns (bool,bytes memory) {... */\n    tag_8:\n        /* \"contracts/Interface.sol\":972:976  bool */\n      0x00\n        /* \"contracts/Interface.sol\":977:989  bytes memory */\n      0x60\n        /* \"contracts/Interface.sol\":1002:1014  bool sucesso */\n      0x00\n        /* \"contracts/Interface.sol\":1015:1035  bytes memory retorno */\n      dup1\n        /* \"contracts/Interface.sol\":1039:1047  endereco */\n      0x00\n      dup1\n      sload\n      swap1\n      0x0100\n      exp\n      swap1\n      div\n      0xffffffffffffffffffffffffffffffffffffffff\n      and\n        /* \"contracts/Interface.sol\":1039:1052  endereco.call */\n      0xffffffffffffffffffffffffffffffffffffffff\n      and\n        /* \"contracts/Interface.sol\":1101:1107  _valor */\n      dup6\n        /* \"contracts/Interface.sol\":1053:1108  abi.encodeWithSignature(\"alteraValor(uint256)\", _valor) */\n      add(0x24, mload(0x40))\n      tag_16\n      swap2\n      swap1\n      tag_17\n      jump\t// in\n    tag_16:\n      mload(0x40)\n      0x20\n      dup2\n      dup4\n      sub\n      sub\n      dup2\n      mstore\n      swap1\n      0x40\n      mstore\n      and(not(0xffffffffffffffffffffffffffffffffffffffffffffffffffffffff), 0x0deb05a600000000000000000000000000000000000000000000000000000000)\n      0x20\n      dup3\n      add\n      dup1\n      mload\n      0xffffffffffffffffffffffffffffffffffffffffffffffffffffffff\n      dup4\n      dup2\n      dup4\n      and\n      or\n      dup4\n      mstore\n      pop\n      pop\n      pop\n      pop\n        /* \"contracts/Interface.sol\":1039:1109  endereco.call(abi.encodeWithSignature(\"alteraValor(uint256)\", _valor)) */\n      mload(0x40)\n      tag_18\n      swap2\n      swap1\n      tag_19\n      jump\t// in\n    tag_18:\n      0x00\n      mload(0x40)\n      dup1\n      dup4\n      sub\n      dup2\n      0x00\n      dup7\n      gas\n      call\n      swap2\n      pop\n      pop\n      returndatasize\n      dup1\n      0x00\n      dup2\n      eq\n      tag_22\n      jumpi\n      mload(0x40)\n      swap2\n      pop\n      and(add(returndatasize, 0x3f), not(0x1f))\n      dup3\n      add\n      0x40\n      mstore\n      returndatasize\n      dup3\n      mstore\n      returndatasize\n      0x00\n      0x20\n      dup5\n      add\n      returndatacopy\n      jump(tag_21)\n    tag_22:\n      0x60\n      swap2\n      pop\n    tag_21:\n      pop\n        /* \"contracts/Interface.sol\":1001:1109  (bool sucesso,bytes memory retorno) = endereco.call(abi.encodeWithSignature(\"alteraValor(uint256)\", _valor)) */\n      swap2\n      pop\n      swap2\n      pop\n        /* \"contracts/Interface.sol\":1127:1134  sucesso */\n      dup2\n        /* \"contracts/Interface.sol\":1135:1142  retorno */\n      dup2\n        /* \"contracts/Interface.sol\":1119:1143  return (sucesso,retorno) */\n      swap4\n      pop\n      swap4\n      pop\n      pop\n      pop\n        /* \"contracts/Interface.sol\":918:1150  function callAlteraValor(uint _valor) public returns (bool,bytes memory) {... */\n      swap2\n      pop\n      swap2\n      jump\t// out\n        /* \"contracts/Interface.sol\":832:913  function setAddress(address _address) public {... */\n    tag_14:\n        /* \"contracts/Interface.sol\":898:906  _address */\n      dup1\n        /* \"contracts/Interface.sol\":887:895  endereco */\n      0x00\n      dup1\n        /* \"contracts/Interface.sol\":887:906  endereco = _address */\n      0x0100\n      exp\n      dup2\n      sload\n      dup2\n      0xffffffffffffffffffffffffffffffffffffffff\n      mul\n      not\n      and\n      swap1\n      dup4\n      0xffffffffffffffffffffffffffffffffffffffff\n      and\n      mul\n      or\n      swap1\n      sstore\n      pop\n        /* \"contracts/Interface.sol\":832:913  function setAddress(address _address) public {... */\n      pop\n      jump\t// out\n        /* \"#utility.yul\":88:205   */\n    tag_25:\n        /* \"#utility.yul\":197:198   */\n      0x00\n        /* \"#utility.yul\":194:195   */\n      dup1\n        /* \"#utility.yul\":187:199   */\n      revert\n        /* \"#utility.yul\":334:411   */\n    tag_27:\n        /* \"#utility.yul\":371:378   */\n      0x00\n        /* \"#utility.yul\":400:405   */\n      dup2\n        /* \"#utility.yul\":389:405   */\n      swap1\n      pop\n        /* \"#utility.yul\":334:411   */\n      swap2\n      swap1\n      pop\n      jump\t// out\n        /* \"#utility.yul\":417:539   */\n    tag_28:\n        /* \"#utility.yul\":490:514   */\n      tag_50\n        /* \"#utility.yul\":508:513   */\n      dup2\n        /* \"#utility.yul\":490:514   */\n      tag_27\n      jump\t// in\n    tag_50:\n        /* \"#utility.yul\":483:488   */\n      dup2\n        /* \"#utility.yul\":480:515   */\n      eq\n        /* \"#utility.yul\":470:533   */\n      tag_51\n      jumpi\n        /* \"#utility.yul\":529:530   */\n      0x00\n        /* \"#utility.yul\":526:527   */\n      dup1\n        /* \"#utility.yul\":519:531   */\n      revert\n        /* \"#utility.yul\":470:533   */\n    tag_51:\n        /* \"#utility.yul\":417:539   */\n      pop\n      jump\t// out\n        /* \"#utility.yul\":545:684   */\n    tag_29:\n        /* \"#utility.yul\":591:596   */\n      0x00\n        /* \"#utility.yul\":629:635   */\n      dup2\n        /* \"#utility.yul\":616:636   */\n      calldataload\n        /* \"#utility.yul\":607:636   */\n      swap1\n      pop\n        /* \"#utility.yul\":645:678   */\n      tag_53\n        /* \"#utility.yul\":672:677   */\n      dup2\n        /* \"#utility.yul\":645:678   */\n      tag_28\n      jump\t// in\n    tag_53:\n        /* \"#utility.yul\":545:684   */\n      swap3\n      swap2\n      pop\n      pop\n      jump\t// out\n        /* \"#utility.yul\":690:1019   */\n    tag_7:\n        /* \"#utility.yul\":749:755   */\n      0x00\n        /* \"#utility.yul\":798:800   */\n      0x20\n        /* \"#utility.yul\":786:795   */\n      dup3\n        /* \"#utility.yul\":777:784   */\n      dup5\n        /* \"#utility.yul\":773:796   */\n      sub\n        /* \"#utility.yul\":769:801   */\n      slt\n        /* \"#utility.yul\":766:885   */\n      iszero\n      tag_55\n      jumpi\n        /* \"#utility.yul\":804:883   */\n      tag_56\n      tag_25\n      jump\t// in\n    tag_56:\n        /* \"#utility.yul\":766:885   */\n    tag_55:\n        /* \"#utility.yul\":924:925   */\n      0x00\n        /* \"#utility.yul\":949:1002   */\n      tag_57\n        /* \"#utility.yul\":994:1001   */\n      dup5\n        /* \"#utility.yul\":985:991   */\n      dup3\n        /* \"#utility.yul\":974:983   */\n      dup6\n        /* \"#utility.yul\":970:992   */\n      add\n        /* \"#utility.yul\":949:1002   */\n      tag_29\n      jump\t// in\n    tag_57:\n        /* \"#utility.yul\":939:1002   */\n      swap2\n      pop\n        /* \"#utility.yul\":895:1012   */\n      pop\n        /* \"#utility.yul\":690:1019   */\n      swap3\n      swap2\n      pop\n      pop\n      jump\t// out\n        /* \"#utility.yul\":1025:1115   */\n    tag_30:\n        /* \"#utility.yul\":1059:1066   */\n      0x00\n        /* \"#utility.yul\":1102:1107   */\n      dup2\n        /* \"#utility.yul\":1095:1108   */\n      iszero\n        /* \"#utility.yul\":1088:1109   */\n      iszero\n        /* \"#utility.yul\":1077:1109   */\n      swap1\n      pop\n        /* \"#utility.yul\":1025:1115   */\n      swap2\n      swap1\n      pop\n      jump\t// out\n        /* \"#utility.yul\":1121:1230   */\n    tag_31:\n        /* \"#utility.yul\":1202:1223   */\n      tag_60\n        /* \"#utility.yul\":1217:1222   */\n      dup2\n        /* \"#utility.yul\":1202:1223   */\n      tag_30\n      jump\t// in\n    tag_60:\n        /* \"#utility.yul\":1197:1200   */\n      dup3\n        /* \"#utility.yul\":1190:1224   */\n      mstore\n        /* \"#utility.yul\":1121:1230   */\n      pop\n      pop\n      jump\t// out\n        /* \"#utility.yul\":1236:1334   */\n    tag_32:\n        /* \"#utility.yul\":1287:1293   */\n      0x00\n        /* \"#utility.yul\":1321:1326   */\n      dup2\n        /* \"#utility.yul\":1315:1327   */\n      mload\n        /* \"#utility.yul\":1305:1327   */\n      swap1\n      pop\n        /* \"#utility.yul\":1236:1334   */\n      swap2\n      swap1\n      pop\n      jump\t// out\n        /* \"#utility.yul\":1340:1508   */\n    tag_33:\n        /* \"#utility.yul\":1423:1434   */\n      0x00\n        /* \"#utility.yul\":1457:1463   */\n      dup3\n        /* \"#utility.yul\":1452:1455   */\n      dup3\n        /* \"#utility.yul\":1445:1464   */\n      mstore\n        /* \"#utility.yul\":1497:1501   */\n      0x20\n        /* \"#utility.yul\":1492:1495   */\n      dup3\n        /* \"#utility.yul\":1488:1502   */\n      add\n        /* \"#utility.yul\":1473:1502   */\n      swap1\n      pop\n        /* \"#utility.yul\":1340:1508   */\n      swap3\n      swap2\n      pop\n      pop\n      jump\t// out\n        /* \"#utility.yul\":1514:1653   */\n    tag_34:\n        /* \"#utility.yul\":1603:1609   */\n      dup3\n        /* \"#utility.yul\":1598:1601   */\n      dup2\n        /* \"#utility.yul\":1593:1596   */\n      dup4\n        /* \"#utility.yul\":1587:1610   */\n      mcopy\n        /* \"#utility.yul\":1644:1645   */\n      0x00\n        /* \"#utility.yul\":1635:1641   */\n      dup4\n        /* \"#utility.yul\":1630:1633   */\n      dup4\n        /* \"#utility.yul\":1626:1642   */\n      add\n        /* \"#utility.yul\":1619:1646   */\n      mstore\n        /* \"#utility.yul\":1514:1653   */\n      pop\n      pop\n      pop\n      jump\t// out\n        /* \"#utility.yul\":1659:1761   */\n    tag_35:\n        /* \"#utility.yul\":1700:1706   */\n      0x00\n        /* \"#utility.yul\":1751:1753   */\n      0x1f\n        /* \"#utility.yul\":1747:1754   */\n      not\n        /* \"#utility.yul\":1742:1744   */\n      0x1f\n        /* \"#utility.yul\":1735:1740   */\n      dup4\n        /* \"#utility.yul\":1731:1745   */\n      add\n        /* \"#utility.yul\":1727:1755   */\n      and\n        /* \"#utility.yul\":1717:1755   */\n      swap1\n      pop\n        /* \"#utility.yul\":1659:1761   */\n      swap2\n      swap1\n      pop\n      jump\t// out\n        /* \"#utility.yul\":1767:2140   */\n    tag_36:\n        /* \"#utility.yul\":1853:1856   */\n      0x00\n        /* \"#utility.yul\":1881:1919   */\n      tag_66\n        /* \"#utility.yul\":1913:1918   */\n      dup3\n        /* \"#utility.yul\":1881:1919   */\n      tag_32\n      jump\t// in\n    tag_66:\n        /* \"#utility.yul\":1935:2005   */\n      tag_67\n        /* \"#utility.yul\":1998:2004   */\n      dup2\n        /* \"#utility.yul\":1993:1996   */\n      dup6\n        /* \"#utility.yul\":1935:2005   */\n      tag_33\n      jump\t// in\n    tag_67:\n        /* \"#utility.yul\":1928:2005   */\n      swap4\n      pop\n        /* \"#utility.yul\":2014:2079   */\n      tag_68\n        /* \"#utility.yul\":2072:2078   */\n      dup2\n        /* \"#utility.yul\":2067:2070   */\n      dup6\n        /* \"#utility.yul\":2060:2064   */\n      0x20\n        /* \"#utility.yul\":2053:2058   */\n      dup7\n        /* \"#utility.yul\":2049:2065   */\n      add\n        /* \"#utility.yul\":2014:2079   */\n      tag_34\n      jump\t// in\n    tag_68:\n        /* \"#utility.yul\":2104:2133   */\n      tag_69\n        /* \"#utility.yul\":2126:2132   */\n      dup2\n        /* \"#utility.yul\":2104:2133   */\n      tag_35\n      jump\t// in\n    tag_69:\n        /* \"#utility.yul\":2099:2102   */\n      dup5\n        /* \"#utility.yul\":2095:2134   */\n      add\n        /* \"#utility.yul\":2088:2134   */\n      swap2\n      pop\n        /* \"#utility.yul\":1857:2140   */\n      pop\n        /* \"#utility.yul\":1767:2140   */\n      swap3\n      swap2\n      pop\n      pop\n      jump\t// out\n        /* \"#utility.yul\":2146:2553   */\n    tag_10:\n        /* \"#utility.yul\":2279:2283   */\n      0x00\n        /* \"#utility.yul\":2317:2319   */\n      0x40\n        /* \"#utility.yul\":2306:2315   */\n      dup3\n        /* \"#utility.yul\":2302:2320   */\n      add\n        /* \"#utility.yul\":2294:2320   */\n      swap1\n      pop\n        /* \"#utility.yul\":2330:2395   */\n      tag_71\n        /* \"#utility.yul\":2392:2393   */\n      0x00\n        /* \"#utility.yul\":2381:2390   */\n      dup4\n        /* \"#utility.yul\":2377:2394   */\n      add\n        /* \"#utility.yul\":2368:2374   */\n      dup6\n        /* \"#utility.yul\":2330:2395   */\n      tag_31\n      jump\t// in\n    tag_71:\n        /* \"#utility.yul\":2442:2451   */\n      dup2\n        /* \"#utility.yul\":2436:2440   */\n      dup2\n        /* \"#utility.yul\":2432:2452   */\n      sub\n        /* \"#utility.yul\":2427:2429   */\n      0x20\n        /* \"#utility.yul\":2416:2425   */\n      dup4\n        /* \"#utility.yul\":2412:2430   */\n      add\n        /* \"#utility.yul\":2405:2453   */\n      mstore\n        /* \"#utility.yul\":2470:2546   */\n      tag_72\n        /* \"#utility.yul\":2541:2545   */\n      dup2\n        /* \"#utility.yul\":2532:2538   */\n      dup5\n        /* \"#utility.yul\":2470:2546   */\n      tag_36\n      jump\t// in\n    tag_72:\n        /* \"#utility.yul\":2462:2546   */\n      swap1\n      pop\n        /* \"#utility.yul\":2146:2553   */\n      swap4\n      swap3\n      pop\n      pop\n      pop\n      jump\t// out\n        /* \"#utility.yul\":2559:2685   */\n    tag_37:\n        /* \"#utility.yul\":2596:2603   */\n      0x00\n        /* \"#utility.yul\":2636:2678   */\n      0xffffffffffffffffffffffffffffffffffffffff\n        /* \"#utility.yul\":2629:2634   */\n      dup3\n        /* \"#utility.yul\":2625:2679   */\n      and\n        /* \"#utility.yul\":2614:2679   */\n      swap1\n      pop\n        /* \"#utility.yul\":2559:2685   */\n      swap2\n      swap1\n      pop\n      jump\t// out\n        /* \"#utility.yul\":2691:2787   */\n    tag_38:\n        /* \"#utility.yul\":2728:2735   */\n      0x00\n        /* \"#utility.yul\":2757:2781   */\n      tag_75\n        /* \"#utility.yul\":2775:2780   */\n      dup3\n        /* \"#utility.yul\":2757:2781   */\n      tag_37\n      jump\t// in\n    tag_75:\n        /* \"#utility.yul\":2746:2781   */\n      swap1\n      pop\n        /* \"#utility.yul\":2691:2787   */\n      swap2\n      swap1\n      pop\n      jump\t// out\n        /* \"#utility.yul\":2793:2915   */\n    tag_39:\n        /* \"#utility.yul\":2866:2890   */\n      tag_77\n        /* \"#utility.yul\":2884:2889   */\n      dup2\n        /* \"#utility.yul\":2866:2890   */\n      tag_38\n      jump\t// in\n    tag_77:\n        /* \"#utility.yul\":2859:2864   */\n      dup2\n        /* \"#utility.yul\":2856:2891   */\n      eq\n        /* \"#utility.yul\":2846:2909   */\n      tag_78\n      jumpi\n        /* \"#utility.yul\":2905:2906   */\n      0x00\n        /* \"#utility.yul\":2902:2903   */\n      dup1\n        /* \"#utility.yul\":2895:2907   */\n      revert\n        /* \"#utility.yul\":2846:2909   */\n    tag_78:\n        /* \"#utility.yul\":2793:2915   */\n      pop\n      jump\t// out\n        /* \"#utility.yul\":2921:3060   */\n    tag_40:\n        /* \"#utility.yul\":2967:2972   */\n      0x00\n        /* \"#utility.yul\":3005:3011   */\n      dup2\n        /* \"#utility.yul\":2992:3012   */\n      calldataload\n        /* \"#utility.yul\":2983:3012   */\n      swap1\n      pop\n        /* \"#utility.yul\":3021:3054   */\n      tag_80\n        /* \"#utility.yul\":3048:3053   */\n      dup2\n        /* \"#utility.yul\":3021:3054   */\n      tag_39\n      jump\t// in\n    tag_80:\n        /* \"#utility.yul\":2921:3060   */\n      swap3\n      swap2\n      pop\n      pop\n      jump\t// out\n        /* \"#utility.yul\":3066:3395   */\n    tag_13:\n        /* \"#utility.yul\":3125:3131   */\n      0x00\n        /* \"#utility.yul\":3174:3176   */\n      0x20\n        /* \"#utility.yul\":3162:3171   */\n      dup3\n        /* \"#utility.yul\":3153:3160   */\n      dup5\n        /* \"#utility.yul\":3149:3172   */\n      sub\n        /* \"#utility.yul\":3145:3177   */\n      slt\n        /* \"#utility.yul\":3142:3261   */\n      iszero\n      tag_82\n      jumpi\n        /* \"#utility.yul\":3180:3259   */\n      tag_83\n      tag_25\n      jump\t// in\n    tag_83:\n        /* \"#utility.yul\":3142:3261   */\n    tag_82:\n        /* \"#utility.yul\":3300:3301   */\n      0x00\n        /* \"#utility.yul\":3325:3378   */\n      tag_84\n        /* \"#utility.yul\":3370:3377   */\n      dup5\n        /* \"#utility.yul\":3361:3367   */\n      dup3\n        /* \"#utility.yul\":3350:3359   */\n      dup6\n        /* \"#utility.yul\":3346:3368   */\n      add\n        /* \"#utility.yul\":3325:3378   */\n      tag_40\n      jump\t// in\n    tag_84:\n        /* \"#utility.yul\":3315:3378   */\n      swap2\n      pop\n        /* \"#utility.yul\":3271:3388   */\n      pop\n        /* \"#utility.yul\":3066:3395   */\n      swap3\n      swap2\n      pop\n      pop\n      jump\t// out\n        /* \"#utility.yul\":3401:3519   */\n    tag_41:\n        /* \"#utility.yul\":3488:3512   */\n      tag_86\n        /* \"#utility.yul\":3506:3511   */\n      dup2\n        /* \"#utility.yul\":3488:3512   */\n      tag_27\n      jump\t// in\n    tag_86:\n        /* \"#utility.yul\":3483:3486   */\n      dup3\n        /* \"#utility.yul\":3476:3513   */\n      mstore\n        /* \"#utility.yul\":3401:3519   */\n      pop\n      pop\n      jump\t// out\n        /* \"#utility.yul\":3525:3747   */\n    tag_17:\n        /* \"#utility.yul\":3618:3622   */\n      0x00\n        /* \"#utility.yul\":3656:3658   */\n      0x20\n        /* \"#utility.yul\":3645:3654   */\n      dup3\n        /* \"#utility.yul\":3641:3659   */\n      add\n        /* \"#utility.yul\":3633:3659   */\n      swap1\n      pop\n        /* \"#utility.yul\":3669:3740   */\n      tag_88\n        /* \"#utility.yul\":3737:3738   */\n      0x00\n        /* \"#utility.yul\":3726:3735   */\n      dup4\n        /* \"#utility.yul\":3722:3739   */\n      add\n        /* \"#utility.yul\":3713:3719   */\n      dup5\n        /* \"#utility.yul\":3669:3740   */\n      tag_41\n      jump\t// in\n    tag_88:\n        /* \"#utility.yul\":3525:3747   */\n      swap3\n      swap2\n      pop\n      pop\n      jump\t// out\n        /* \"#utility.yul\":3753:3900   */\n    tag_42:\n        /* \"#utility.yul\":3854:3865   */\n      0x00\n        /* \"#utility.yul\":3891:3894   */\n      dup2\n        /* \"#utility.yul\":3876:3894   */\n      swap1\n      pop\n        /* \"#utility.yul\":3753:3900   */\n      swap3\n      swap2\n      pop\n      pop\n      jump\t// out\n        /* \"#utility.yul\":3906:4292   */\n    tag_43:\n        /* \"#utility.yul\":4010:4013   */\n      0x00\n        /* \"#utility.yul\":4038:4076   */\n      tag_91\n        /* \"#utility.yul\":4070:4075   */\n      dup3\n        /* \"#utility.yul\":4038:4076   */\n      tag_32\n      jump\t// in\n    tag_91:\n        /* \"#utility.yul\":4092:4180   */\n      tag_92\n        /* \"#utility.yul\":4173:4179   */\n      dup2\n        /* \"#utility.yul\":4168:4171   */\n      dup6\n        /* \"#utility.yul\":4092:4180   */\n      tag_42\n      jump\t// in\n    tag_92:\n        /* \"#utility.yul\":4085:4180   */\n      swap4\n      pop\n        /* \"#utility.yul\":4189:4254   */\n      tag_93\n        /* \"#utility.yul\":4247:4253   */\n      dup2\n        /* \"#utility.yul\":4242:4245   */\n      dup6\n        /* \"#utility.yul\":4235:4239   */\n      0x20\n        /* \"#utility.yul\":4228:4233   */\n      dup7\n        /* \"#utility.yul\":4224:4240   */\n      add\n        /* \"#utility.yul\":4189:4254   */\n      tag_34\n      jump\t// in\n    tag_93:\n        /* \"#utility.yul\":4279:4285   */\n      dup1\n        /* \"#utility.yul\":4274:4277   */\n      dup5\n        /* \"#utility.yul\":4270:4286   */\n      add\n        /* \"#utility.yul\":4263:4286   */\n      swap2\n      pop\n        /* \"#utility.yul\":4014:4292   */\n      pop\n        /* \"#utility.yul\":3906:4292   */\n      swap3\n      swap2\n      pop\n      pop\n      jump\t// out\n        /* \"#utility.yul\":4298:4569   */\n    tag_19:\n        /* \"#utility.yul\":4428:4431   */\n      0x00\n        /* \"#utility.yul\":4450:4543   */\n      tag_95\n        /* \"#utility.yul\":4539:4542   */\n      dup3\n        /* \"#utility.yul\":4530:4536   */\n      dup5\n        /* \"#utility.yul\":4450:4543   */\n      tag_43\n      jump\t// in\n    tag_95:\n        /* \"#utility.yul\":4443:4543   */\n      swap2\n      pop\n        /* \"#utility.yul\":4560:4563   */\n      dup2\n        /* \"#utility.yul\":4553:4563   */\n      swap1\n      pop\n        /* \"#utility.yul\":4298:4569   */\n      swap3\n      swap2\n      pop\n      pop\n      jump\t// out\n\n    auxdata: 0xa26469706673582212205bd8218f5b97484c46eddceeed778ffa6c80281af3715c4611c8c4a3d3a8711364736f6c63430008190033\n}\n",
				"bytecode": {
					"linkReferences": {},
					"object": "6080604052348015600e575f80fd5b5061043a8061001c5f395ff3fe608060405234801561000f575f80fd5b5060043610610034575f3560e01c8063c3a7590c14610038578063e30081a014610069575b5f80fd5b610052600480360381019061004d9190610224565b610085565b6040516100609291906102d9565b60405180910390f35b610083600480360381019061007e9190610361565b6101ab565b005b5f60605f805f8054906101000a900473ffffffffffffffffffffffffffffffffffffffff1673ffffffffffffffffffffffffffffffffffffffff16856040516024016100d1919061039b565b6040516020818303038152906040527f0deb05a6000000000000000000000000000000000000000000000000000000007bffffffffffffffffffffffffffffffffffffffffffffffffffffffff19166020820180517bffffffffffffffffffffffffffffffffffffffffffffffffffffffff838183161783525050505060405161015b91906103ee565b5f604051808303815f865af19150503d805f8114610194576040519150601f19603f3d011682016040523d82523d5f602084013e610199565b606091505b50915091508181935093505050915091565b805f806101000a81548173ffffffffffffffffffffffffffffffffffffffff021916908373ffffffffffffffffffffffffffffffffffffffff16021790555050565b5f80fd5b5f819050919050565b610203816101f1565b811461020d575f80fd5b50565b5f8135905061021e816101fa565b92915050565b5f60208284031215610239576102386101ed565b5b5f61024684828501610210565b91505092915050565b5f8115159050919050565b6102638161024f565b82525050565b5f81519050919050565b5f82825260208201905092915050565b8281835e5f83830152505050565b5f601f19601f8301169050919050565b5f6102ab82610269565b6102b58185610273565b93506102c5818560208601610283565b6102ce81610291565b840191505092915050565b5f6040820190506102ec5f83018561025a565b81810360208301526102fe81846102a1565b90509392505050565b5f73ffffffffffffffffffffffffffffffffffffffff82169050919050565b5f61033082610307565b9050919050565b61034081610326565b811461034a575f80fd5b50565b5f8135905061035b81610337565b92915050565b5f60208284031215610376576103756101ed565b5b5f6103838482850161034d565b91505092915050565b610395816101f1565b82525050565b5f6020820190506103ae5f83018461038c565b92915050565b5f81905092915050565b5f6103c882610269565b6103d281856103b4565b93506103e2818560208601610283565b80840191505092915050565b5f6103f982846103be565b91508190509291505056fea26469706673582212205bd8218f5b97484c46eddceeed778ffa6c80281af3715c4611c8c4a3d3a8711364736f6c63430008190033",
					"opcodes": "PUSH1 0x80 PUSH1 0x40 MSTORE CALLVALUE DUP1 ISZERO PUSH1 0xE JUMPI PUSH0 DUP1 REVERT JUMPDEST POP PUSH2 0x43A DUP1 PUSH2 0x1C PUSH0 CODECOPY PUSH0 RETURN INVALID PUSH1 0x80 PUSH1 0x40 MSTORE CALLVALUE DUP1 ISZERO PUSH2 0xF JUMPI PUSH0 DUP1 REVERT JUMPDEST POP PUSH1 0x4 CALLDATASIZE LT PUSH2 0x34 JUMPI PUSH0 CALLDATALOAD PUSH1 0xE0 SHR DUP1 PUSH4 0xC3A7590C EQ PUSH2 0x38 JUMPI DUP1 PUSH4 0xE30081A0 EQ PUSH2 0x69 JUMPI JUMPDEST PUSH0 DUP1 REVERT JUMPDEST PUSH2 0x52 PUSH1 0x4 DUP1 CALLDATASIZE SUB DUP2 ADD SWAP1 PUSH2 0x4D SWAP2 SWAP1 PUSH2 0x224 JUMP JUMPDEST PUSH2 0x85 JUMP JUMPDEST PUSH1 0x40 MLOAD PUSH2 0x60 SWAP3 SWAP2 SWAP1 PUSH2 0x2D9 JUMP JUMPDEST PUSH1 0x40 MLOAD DUP1 SWAP2 SUB SWAP1 RETURN JUMPDEST PUSH2 0x83 PUSH1 0x4 DUP1 CALLDATASIZE SUB DUP2 ADD SWAP1 PUSH2 0x7E SWAP2 SWAP1 PUSH2 0x361 JUMP JUMPDEST PUSH2 0x1AB JUMP JUMPDEST STOP JUMPDEST PUSH0 PUSH1 0x60 PUSH0 DUP1 PUSH0 DUP1 SLOAD SWAP1 PUSH2 0x100 EXP SWAP1 DIV PUSH20 0xFFFFFFFFFFFFFFFFFFFFFFFFFFFFFFFFFFFFFFFF AND PUSH20 0xFFFFFFFFFFFFFFFFFFFFFFFFFFFFFFFFFFFFFFFF AND DUP6 PUSH1 0x40 MLOAD PUSH1 0x24 ADD PUSH2 0xD1 SWAP2 SWAP1 PUSH2 0x39B JUMP JUMPDEST PUSH1 0x40 MLOAD PUSH1 0x20 DUP2 DUP4 SUB SUB DUP2 MSTORE SWAP1 PUSH1 0x40 MSTORE PUSH32 0xDEB05A600000000000000000000000000000000000000000000000000000000 PUSH28 0xFFFFFFFFFFFFFFFFFFFFFFFFFFFFFFFFFFFFFFFFFFFFFFFFFFFFFFFF NOT AND PUSH1 0x20 DUP3 ADD DUP1 MLOAD PUSH28 0xFFFFFFFFFFFFFFFFFFFFFFFFFFFFFFFFFFFFFFFFFFFFFFFFFFFFFFFF DUP4 DUP2 DUP4 AND OR DUP4 MSTORE POP POP POP POP PUSH1 0x40 MLOAD PUSH2 0x15B SWAP2 SWAP1 PUSH2 0x3EE JUMP JUMPDEST PUSH0 PUSH1 0x40 MLOAD DUP1 DUP4 SUB DUP2 PUSH0 DUP7 GAS CALL SWAP2 POP POP RETURNDATASIZE DUP1 PUSH0 DUP2 EQ PUSH2 0x194 JUMPI PUSH1 0x40 MLOAD SWAP2 POP PUSH1 0x1F NOT PUSH1 0x3F RETURNDATASIZE ADD AND DUP3 ADD PUSH1 0x40 MSTORE RETURNDATASIZE DUP3 MSTORE RETURNDATASIZE PUSH0 PUSH1 0x20 DUP5 ADD RETURNDATACOPY PUSH2 0x199 JUMP JUMPDEST PUSH1 0x60 SWAP2 POP JUMPDEST POP SWAP2 POP SWAP2 POP DUP2 DUP2 SWAP4 POP SWAP4 POP POP POP SWAP2 POP SWAP2 JUMP JUMPDEST DUP1 PUSH0 DUP1 PUSH2 0x100 EXP DUP2 SLOAD DUP2 PUSH20 0xFFFFFFFFFFFFFFFFFFFFFFFFFFFFFFFFFFFFFFFF MUL NOT AND SWAP1 DUP4 PUSH20 0xFFFFFFFFFFFFFFFFFFFFFFFFFFFFFFFFFFFFFFFF AND MUL OR SWAP1 SSTORE POP POP JUMP JUMPDEST PUSH0 DUP1 REVERT JUMPDEST PUSH0 DUP2 SWAP1 POP SWAP2 SWAP1 POP JUMP JUMPDEST PUSH2 0x203 DUP2 PUSH2 0x1F1 JUMP JUMPDEST DUP2 EQ PUSH2 0x20D JUMPI PUSH0 DUP1 REVERT JUMPDEST POP JUMP JUMPDEST PUSH0 DUP2 CALLDATALOAD SWAP1 POP PUSH2 0x21E DUP2 PUSH2 0x1FA JUMP JUMPDEST SWAP3 SWAP2 POP POP JUMP JUMPDEST PUSH0 PUSH1 0x20 DUP3 DUP5 SUB SLT ISZERO PUSH2 0x239 JUMPI PUSH2 0x238 PUSH2 0x1ED JUMP JUMPDEST JUMPDEST PUSH0 PUSH2 0x246 DUP5 DUP3 DUP6 ADD PUSH2 0x210 JUMP JUMPDEST SWAP2 POP POP SWAP3 SWAP2 POP POP JUMP JUMPDEST PUSH0 DUP2 ISZERO ISZERO SWAP1 POP SWAP2 SWAP1 POP JUMP JUMPDEST PUSH2 0x263 DUP2 PUSH2 0x24F JUMP JUMPDEST DUP3 MSTORE POP POP JUMP JUMPDEST PUSH0 DUP2 MLOAD SWAP1 POP SWAP2 SWAP1 POP JUMP JUMPDEST PUSH0 DUP3 DUP3 MSTORE PUSH1 0x20 DUP3 ADD SWAP1 POP SWAP3 SWAP2 POP POP JUMP JUMPDEST DUP3 DUP2 DUP4 MCOPY PUSH0 DUP4 DUP4 ADD MSTORE POP POP POP JUMP JUMPDEST PUSH0 PUSH1 0x1F NOT PUSH1 0x1F DUP4 ADD AND SWAP1 POP SWAP2 SWAP1 POP JUMP JUMPDEST PUSH0 PUSH2 0x2AB DUP3 PUSH2 0x269 JUMP JUMPDEST PUSH2 0x2B5 DUP2 DUP6 PUSH2 0x273 JUMP JUMPDEST SWAP4 POP PUSH2 0x2C5 DUP2 DUP6 PUSH1 0x20 DUP7 ADD PUSH2 0x283 JUMP JUMPDEST PUSH2 0x2CE DUP2 PUSH2 0x291 JUMP JUMPDEST DUP5 ADD SWAP2 POP POP SWAP3 SWAP2 POP POP JUMP JUMPDEST PUSH0 PUSH1 0x40 DUP3 ADD SWAP1 POP PUSH2 0x2EC PUSH0 DUP4 ADD DUP6 PUSH2 0x25A JUMP JUMPDEST DUP2 DUP2 SUB PUSH1 0x20 DUP4 ADD MSTORE PUSH2 0x2FE DUP2 DUP5 PUSH2 0x2A1 JUMP JUMPDEST SWAP1 POP SWAP4 SWAP3 POP POP POP JUMP JUMPDEST PUSH0 PUSH20 0xFFFFFFFFFFFFFFFFFFFFFFFFFFFFFFFFFFFFFFFF DUP3 AND SWAP1 POP SWAP2 SWAP1 POP JUMP JUMPDEST PUSH0 PUSH2 0x330 DUP3 PUSH2 0x307 JUMP JUMPDEST SWAP1 POP SWAP2 SWAP1 POP JUMP JUMPDEST PUSH2 0x340 DUP2 PUSH2 0x326 JUMP JUMPDEST DUP2 EQ PUSH2 0x34A JUMPI PUSH0 DUP1 REVERT JUMPDEST POP JUMP JUMPDEST PUSH0 DUP2 CALLDATALOAD SWAP1 POP PUSH2 0x35B DUP2 PUSH2 0x337 JUMP JUMPDEST SWAP3 SWAP2 POP POP JUMP JUMPDEST PUSH0 PUSH1 0x20 DUP3 DUP5 SUB SLT ISZERO PUSH2 0x376 JUMPI PUSH2 0x375 PUSH2 0x1ED JUMP JUMPDEST JUMPDEST PUSH0 PUSH2 0x383 DUP5 DUP3 DUP6 ADD PUSH2 0x34D JUMP JUMPDEST SWAP2 POP POP SWAP3 SWAP2 POP POP JUMP JUMPDEST PUSH2 0x395 DUP2 PUSH2 0x1F1 JUMP JUMPDEST DUP3 MSTORE POP POP JUMP JUMPDEST PUSH0 PUSH1 0x20 DUP3 ADD SWAP1 POP PUSH2 0x3AE PUSH0 DUP4 ADD DUP5 PUSH2 0x38C JUMP JUMPDEST SWAP3 SWAP2 POP POP JUMP JUMPDEST PUSH0 DUP2 SWAP1 POP SWAP3 SWAP2 POP POP JUMP JUMPDEST PUSH0 PUSH2 0x3C8 DUP3 PUSH2 0x269 JUMP JUMPDEST PUSH2 0x3D2 DUP2 DUP6 PUSH2 0x3B4 JUMP JUMPDEST SWAP4 POP PUSH2 0x3E2 DUP2 DUP6 PUSH1 0x20 DUP7 ADD PUSH2 0x283 JUMP JUMPDEST DUP1 DUP5 ADD SWAP2 POP POP SWAP3 SWAP2 POP POP JUMP JUMPDEST PUSH0 PUSH2 0x3F9 DUP3 DUP5 PUSH2 0x3BE JUMP JUMPDEST SWAP2 POP DUP2 SWAP1 POP SWAP3 SWAP2 POP POP JUMP INVALID LOG2 PUSH5 0x6970667358 0x22 SLT KECCAK256 JUMPDEST 0xD8 0x21 DUP16 JUMPDEST SWAP8 BASEFEE 0x4C CHAINID 0xED 0xDC 0xEE 0xED PUSH24 0x8FFA6C80281AF3715C4611C8C4A3D3A8711364736F6C6343 STOP ADDMOD NOT STOP CALLER "
				},
				"gasEstimates": {
					"creation": {
						"codeDepositCost": "216400",
						"executionCost": "255",
						"totalCost": "216655"
					},
					"external": {
						"callAlteraValor(uint256)": "infinite",
						"setAddress(address)": "24715"
					}
				},
				"methodIdentifiers": {
					"callAlteraValor(uint256)": "c3a7590c",
					"setAddress(address)": "e30081a0"
				}
			},
			"storageLayout": {
				"storage": [
					{
						"astId": 61,
						"contract": "contracts/Interface.sol:Chamador",
						"label": "endereco",
						"offset": 0,
						"slot": "0",
						"type": "t_address"
					}
				],
				"types": {
					"t_address": {
						"encoding": "inplace",
						"label": "address",
						"numberOfBytes": "20"
					}
				}
			},
			"userdoc": {
				"kind": "user",
				"methods": {},
				"version": 1
			}
		}
	}
}