{
	"contracts/Visibilidade.sol": {
		"Visibilidade": {
			"abi": [
				{
					"inputs": [],
					"name": "contagem",
					"outputs": [
						{
							"internalType": "int256",
							"name": "",
							"type": "int256"
						}
					],
					"stateMutability": "view",
					"type": "function"
				},
				{
					"inputs": [],
					"name": "incrementa",
					"outputs": [],
					"stateMutability": "nonpayable",
					"type": "function"
				},
				{
					"inputs": [],
					"name": "incrementaExterno",
					"outputs": [],
					"stateMutability": "nonpayable",
					"type": "function"
				}
			],
			"devdoc": {
				"kind": "dev",
				"methods": {},
				"version": 1
			},
			"evm": {
				"assembly": "    /* \"contracts/Visibilidade.sol\":57:427  contract Visibilidade {... */\n  mstore(0x40, 0x80)\n  callvalue\n  dup1\n  iszero\n  tag_1\n  jumpi\n  0x00\n  dup1\n  revert\ntag_1:\n  pop\n  dataSize(sub_0)\n  dup1\n  dataOffset(sub_0)\n  0x00\n  codecopy\n  0x00\n  return\nstop\n\nsub_0: assembly {\n        /* \"contracts/Visibilidade.sol\":57:427  contract Visibilidade {... */\n      mstore(0x40, 0x80)\n      callvalue\n      dup1\n      iszero\n      tag_1\n      jumpi\n      0x00\n      dup1\n      revert\n    tag_1:\n      pop\n      jumpi(tag_2, lt(calldatasize, 0x04))\n      shr(0xe0, calldataload(0x00))\n      dup1\n      0x7e438072\n      eq\n      tag_3\n      jumpi\n      dup1\n      0x978b7d8a\n      eq\n      tag_4\n      jumpi\n      dup1\n      0xa72548b4\n      eq\n      tag_5\n      jumpi\n    tag_2:\n      0x00\n      dup1\n      revert\n        /* \"contracts/Visibilidade.sol\":183:257  function incrementaExterno() external {... */\n    tag_3:\n      tag_6\n      tag_7\n      jump\t// in\n    tag_6:\n      stop\n        /* \"contracts/Visibilidade.sol\":85:104  int public contagem */\n    tag_4:\n      tag_8\n      tag_9\n      jump\t// in\n    tag_8:\n      mload(0x40)\n      tag_10\n      swap2\n      swap1\n      tag_11\n      jump\t// in\n    tag_10:\n      mload(0x40)\n      dup1\n      swap2\n      sub\n      swap1\n      return\n        /* \"contracts/Visibilidade.sol\":111:177  function incrementa() public {... */\n    tag_5:\n      tag_12\n      tag_13\n      jump\t// in\n    tag_12:\n      stop\n        /* \"contracts/Visibilidade.sol\":183:257  function incrementaExterno() external {... */\n    tag_7:\n        /* \"contracts/Visibilidade.sol\":231:250  incrementaPrivate() */\n      tag_15\n        /* \"contracts/Visibilidade.sol\":231:248  incrementaPrivate */\n      tag_16\n        /* \"contracts/Visibilidade.sol\":231:250  incrementaPrivate() */\n      jump\t// in\n    tag_15:\n        /* \"contracts/Visibilidade.sol\":183:257  function incrementaExterno() external {... */\n      jump\t// out\n        /* \"contracts/Visibilidade.sol\":85:104  int public contagem */\n    tag_9:\n      sload(0x00)\n      dup2\n      jump\t// out\n        /* \"contracts/Visibilidade.sol\":111:177  function incrementa() public {... */\n    tag_13:\n        /* \"contracts/Visibilidade.sol\":150:170  incrementaInternal() */\n      tag_18\n        /* \"contracts/Visibilidade.sol\":150:168  incrementaInternal */\n      tag_19\n        /* \"contracts/Visibilidade.sol\":150:170  incrementaInternal() */\n      jump\t// in\n    tag_18:\n        /* \"contracts/Visibilidade.sol\":111:177  function incrementa() public {... */\n      jump\t// out\n        /* \"contracts/Visibilidade.sol\":263:340  function incrementaPrivate() private {... */\n    tag_16:\n        /* \"contracts/Visibilidade.sol\":332:333  1 */\n      0x01\n        /* \"contracts/Visibilidade.sol\":321:329  contagem */\n      sload(0x00)\n        /* \"contracts/Visibilidade.sol\":321:333  contagem + 1 */\n      tag_21\n      swap2\n      swap1\n      tag_22\n      jump\t// in\n    tag_21:\n        /* \"contracts/Visibilidade.sol\":310:318  contagem */\n      0x00\n        /* \"contracts/Visibilidade.sol\":310:333  contagem = contagem + 1 */\n      dup2\n      swap1\n      sstore\n      pop\n        /* \"contracts/Visibilidade.sol\":263:340  function incrementaPrivate() private {... */\n      jump\t// out\n        /* \"contracts/Visibilidade.sol\":346:425  function incrementaInternal() internal {... */\n    tag_19:\n        /* \"contracts/Visibilidade.sol\":417:418  1 */\n      0x01\n        /* \"contracts/Visibilidade.sol\":406:414  contagem */\n      sload(0x00)\n        /* \"contracts/Visibilidade.sol\":406:418  contagem + 1 */\n      tag_24\n      swap2\n      swap1\n      tag_22\n      jump\t// in\n    tag_24:\n        /* \"contracts/Visibilidade.sol\":395:403  contagem */\n      0x00\n        /* \"contracts/Visibilidade.sol\":395:418  contagem = contagem + 1 */\n      dup2\n      swap1\n      sstore\n      pop\n        /* \"contracts/Visibilidade.sol\":346:425  function incrementaInternal() internal {... */\n      jump\t// out\n        /* \"#utility.yul\":7:83   */\n    tag_25:\n        /* \"#utility.yul\":43:50   */\n      0x00\n        /* \"#utility.yul\":72:77   */\n      dup2\n        /* \"#utility.yul\":61:77   */\n      swap1\n      pop\n        /* \"#utility.yul\":7:83   */\n      swap2\n      swap1\n      pop\n      jump\t// out\n        /* \"#utility.yul\":89:204   */\n    tag_26:\n        /* \"#utility.yul\":174:197   */\n      tag_31\n        /* \"#utility.yul\":191:196   */\n      dup2\n        /* \"#utility.yul\":174:197   */\n      tag_25\n      jump\t// in\n    tag_31:\n        /* \"#utility.yul\":169:172   */\n      dup3\n        /* \"#utility.yul\":162:198   */\n      mstore\n        /* \"#utility.yul\":89:204   */\n      pop\n      pop\n      jump\t// out\n        /* \"#utility.yul\":210:428   */\n    tag_11:\n        /* \"#utility.yul\":301:305   */\n      0x00\n        /* \"#utility.yul\":339:341   */\n      0x20\n        /* \"#utility.yul\":328:337   */\n      dup3\n        /* \"#utility.yul\":324:342   */\n      add\n        /* \"#utility.yul\":316:342   */\n      swap1\n      pop\n        /* \"#utility.yul\":352:421   */\n      tag_33\n        /* \"#utility.yul\":418:419   */\n      0x00\n        /* \"#utility.yul\":407:416   */\n      dup4\n        /* \"#utility.yul\":403:420   */\n      add\n        /* \"#utility.yul\":394:400   */\n      dup5\n        /* \"#utility.yul\":352:421   */\n      tag_26\n      jump\t// in\n    tag_33:\n        /* \"#utility.yul\":210:428   */\n      swap3\n      swap2\n      pop\n      pop\n      jump\t// out\n        /* \"#utility.yul\":434:614   */\n    tag_27:\n        /* \"#utility.yul\":482:559   */\n      0x4e487b7100000000000000000000000000000000000000000000000000000000\n        /* \"#utility.yul\":479:480   */\n      0x00\n        /* \"#utility.yul\":472:560   */\n      mstore\n        /* \"#utility.yul\":579:583   */\n      0x11\n        /* \"#utility.yul\":576:577   */\n      0x04\n        /* \"#utility.yul\":569:584   */\n      mstore\n        /* \"#utility.yul\":603:607   */\n      0x24\n        /* \"#utility.yul\":600:601   */\n      0x00\n        /* \"#utility.yul\":593:608   */\n      revert\n        /* \"#utility.yul\":620:995   */\n    tag_22:\n        /* \"#utility.yul\":659:662   */\n      0x00\n        /* \"#utility.yul\":678:697   */\n      tag_36\n        /* \"#utility.yul\":695:696   */\n      dup3\n        /* \"#utility.yul\":678:697   */\n      tag_25\n      jump\t// in\n    tag_36:\n        /* \"#utility.yul\":673:697   */\n      swap2\n      pop\n        /* \"#utility.yul\":711:730   */\n      tag_37\n        /* \"#utility.yul\":728:729   */\n      dup4\n        /* \"#utility.yul\":711:730   */\n      tag_25\n      jump\t// in\n    tag_37:\n        /* \"#utility.yul\":706:730   */\n      swap3\n      pop\n        /* \"#utility.yul\":753:754   */\n      dup3\n        /* \"#utility.yul\":750:751   */\n      dup3\n        /* \"#utility.yul\":746:755   */\n      add\n        /* \"#utility.yul\":739:755   */\n      swap1\n      pop\n        /* \"#utility.yul\":951:952   */\n      dup3\n        /* \"#utility.yul\":946:949   */\n      dup2\n        /* \"#utility.yul\":942:953   */\n      slt\n        /* \"#utility.yul\":935:954   */\n      iszero\n        /* \"#utility.yul\":931:932   */\n      0x00\n        /* \"#utility.yul\":928:929   */\n      dup4\n        /* \"#utility.yul\":924:933   */\n      slt\n        /* \"#utility.yul\":920:955   */\n      and\n        /* \"#utility.yul\":903:904   */\n      dup4\n        /* \"#utility.yul\":898:901   */\n      dup3\n        /* \"#utility.yul\":894:905   */\n      slt\n        /* \"#utility.yul\":889:890   */\n      0x00\n        /* \"#utility.yul\":886:887   */\n      dup5\n        /* \"#utility.yul\":882:891   */\n      slt\n        /* \"#utility.yul\":875:892   */\n      iszero\n        /* \"#utility.yul\":871:906   */\n      and\n        /* \"#utility.yul\":855:965   */\n      or\n        /* \"#utility.yul\":852:988   */\n      iszero\n      tag_38\n      jumpi\n        /* \"#utility.yul\":968:986   */\n      tag_39\n      tag_27\n      jump\t// in\n    tag_39:\n        /* \"#utility.yul\":852:988   */\n    tag_38:\n        /* \"#utility.yul\":620:995   */\n      swap3\n      swap2\n      pop\n      pop\n      jump\t// out\n\n    auxdata: 0xa2646970667358221220031b7fd85c60753cfd855be7ce5648f85bd13f8745174ae9b09985ddca22d62264736f6c63430008190033\n}\n",
				"bytecode": {
					"linkReferences": {},
					"object": "6080604052348015600e575f80fd5b5061018d8061001c5f395ff3fe608060405234801561000f575f80fd5b506004361061003f575f3560e01c80637e43807214610043578063978b7d8a1461004d578063a72548b41461006b575b5f80fd5b61004b610075565b005b61005561007f565b60405161006291906100d0565b60405180910390f35b610073610084565b005b61007d61008e565b565b5f5481565b61008c6100a3565b565b60015f5461009c9190610116565b5f81905550565b60015f546100b19190610116565b5f81905550565b5f819050919050565b6100ca816100b8565b82525050565b5f6020820190506100e35f8301846100c1565b92915050565b7f4e487b71000000000000000000000000000000000000000000000000000000005f52601160045260245ffd5b5f610120826100b8565b915061012b836100b8565b92508282019050828112155f8312168382125f841215161715610151576101506100e9565b5b9291505056fea2646970667358221220031b7fd85c60753cfd855be7ce5648f85bd13f8745174ae9b09985ddca22d62264736f6c63430008190033",
					"opcodes": "PUSH1 0x80 PUSH1 0x40 MSTORE CALLVALUE DUP1 ISZERO PUSH1 0xE JUMPI PUSH0 DUP1 REVERT JUMPDEST POP PUSH2 0x18D DUP1 PUSH2 0x1C PUSH0 CODECOPY PUSH0 RETURN INVALID PUSH1 0x80 PUSH1 0x40 MSTORE CALLVALUE DUP1 ISZERO PUSH2 0xF JUMPI PUSH0 DUP1 REVERT JUMPDEST POP PUSH1 0x4 CALLDATASIZE LT PUSH2 0x3F JUMPI PUSH0 CALLDATALOAD PUSH1 0xE0 SHR DUP1 PUSH4 0x7E438072 EQ PUSH2 0x43 JUMPI DUP1 PUSH4 0x978B7D8A EQ PUSH2 0x4D JUMPI DUP1 PUSH4 0xA72548B4 EQ PUSH2 0x6B JUMPI JUMPDEST PUSH0 DUP1 REVERT JUMPDEST PUSH2 0x4B PUSH2 0x75 JUMP JUMPDEST STOP JUMPDEST PUSH2 0x55 PUSH2 0x7F JUMP JUMPDEST PUSH1 0x40 MLOAD PUSH2 0x62 SWAP2 SWAP1 PUSH2 0xD0 JUMP JUMPDEST PUSH1 0x40 MLOAD DUP1 SWAP2 SUB SWAP1 RETURN JUMPDEST PUSH2 0x73 PUSH2 0x84 JUMP JUMPDEST STOP JUMPDEST PUSH2 0x7D PUSH2 0x8E JUMP JUMPDEST JUMP JUMPDEST PUSH0 SLOAD DUP2 JUMP JUMPDEST PUSH2 0x8C PUSH2 0xA3 JUMP JUMPDEST JUMP JUMPDEST PUSH1 0x1 PUSH0 SLOAD PUSH2 0x9C SWAP2 SWAP1 PUSH2 0x116 JUMP JUMPDEST PUSH0 DUP2 SWAP1 SSTORE POP JUMP JUMPDEST PUSH1 0x1 PUSH0 SLOAD PUSH2 0xB1 SWAP2 SWAP1 PUSH2 0x116 JUMP JUMPDEST PUSH0 DUP2 SWAP1 SSTORE POP JUMP JUMPDEST PUSH0 DUP2 SWAP1 POP SWAP2 SWAP1 POP JUMP JUMPDEST PUSH2 0xCA DUP2 PUSH2 0xB8 JUMP JUMPDEST DUP3 MSTORE POP POP JUMP JUMPDEST PUSH0 PUSH1 0x20 DUP3 ADD SWAP1 POP PUSH2 0xE3 PUSH0 DUP4 ADD DUP5 PUSH2 0xC1 JUMP JUMPDEST SWAP3 SWAP2 POP POP JUMP JUMPDEST PUSH32 0x4E487B7100000000000000000000000000000000000000000000000000000000 PUSH0 MSTORE PUSH1 0x11 PUSH1 0x4 MSTORE PUSH1 0x24 PUSH0 REVERT JUMPDEST PUSH0 PUSH2 0x120 DUP3 PUSH2 0xB8 JUMP JUMPDEST SWAP2 POP PUSH2 0x12B DUP4 PUSH2 0xB8 JUMP JUMPDEST SWAP3 POP DUP3 DUP3 ADD SWAP1 POP DUP3 DUP2 SLT ISZERO PUSH0 DUP4 SLT AND DUP4 DUP3 SLT PUSH0 DUP5 SLT ISZERO AND OR ISZERO PUSH2 0x151 JUMPI PUSH2 0x150 PUSH2 0xE9 JUMP JUMPDEST JUMPDEST SWAP3 SWAP2 POP POP JUMP INVALID LOG2 PUSH5 0x6970667358 0x22 SLT KECCAK256 SUB SHL PUSH32 0xD85C60753CFD855BE7CE5648F85BD13F8745174AE9B09985DDCA22D62264736F PUSH13 0x63430008190033000000000000 "
				},
				"gasEstimates": {
					"creation": {
						"codeDepositCost": "79400",
						"executionCost": "127",
						"totalCost": "79527"
					},
					"external": {
						"contagem()": "2424",
						"incrementa()": "infinite",
						"incrementaExterno()": "infinite"
					},
					"internal": {
						"incrementaInternal()": "infinite",
						"incrementaPrivate()": "infinite"
					}
				},
				"methodIdentifiers": {
					"contagem()": "978b7d8a",
					"incrementa()": "a72548b4",
					"incrementaExterno()": "7e438072"
				}
			},
			"storageLayout": {
				"storage": [
					{
						"astId": 3,
						"contract": "contracts/Visibilidade.sol:Visibilidade",
						"label": "contagem",
						"offset": 0,
						"slot": "0",
						"type": "t_int256"
					}
				],
				"types": {
					"t_int256": {
						"encoding": "inplace",
						"label": "int256",
						"numberOfBytes": "32"
					}
				}
			},
			"userdoc": {
				"kind": "user",
				"methods": {},
				"version": 1
			}
		}
	}
}